{
  "contractName": "ConvertLib",
  "abi": [
    {
      "constant": true,
      "inputs": [
        {
          "name": "amount",
          "type": "uint256"
        },
        {
          "name": "conversionRate",
          "type": "uint256"
        }
      ],
      "name": "convert",
      "outputs": [
        {
          "name": "convertedAmount",
          "type": "uint256"
        }
      ],
      "payable": false,
      "stateMutability": "pure",
      "type": "function"
    }
  ],
  "bytecode": "0x60d761002f600b82828239805160001a6073146000811461001f57610021565bfe5b5030600052607381538281f3fe73000000000000000000000000000000000000000030146080604052600436106050576000357c01000000000000000000000000000000000000000000000000000000009004806396e4ee3d146055575b600080fd5b608860048036036040811015606957600080fd5b810190808035906020019092919080359060200190929190505050609e565b6040518082815260200191505060405180910390f35b600081830290509291505056fea165627a7a72305820cedcaf314485b1405d15e486aa48846d54fe868f5975b0dd14b6bf1f9ed07ebd0029",
  "source": "// SPDX License Identifier: MIT\npragma solidity >=0.4.25 <0.7.0;\n\nlibrary ConvertLib{\n    function convert(uint amount, uint conversionRate) public pure returns (uint convertedAmount){\n        return amount * conversionRate;\n    }\n}",
  "sourcePath": "/home/ubuntu/Downloads/dev/tpfunir/contracts/ConvertLib.sol",
  "compiler": {
    "name": "solc",
    "version": "0.5.1+commit.c8a2cb62.Emscripten.clang"
  },
  "schemaVersion": "3.4.4",
  "updatedAt": "2022-03-08T01:50:48.484Z",
  "networkType": "ethereum",
  "devdoc": {
    "methods": {}
  },
  "userdoc": {
    "methods": {}
  }
}