{
  "contractName": "CrowdFunding",
  "abi": [
    {
      "constant": true,
      "inputs": [],
      "name": "owner",
      "outputs": [
        {
          "name": "",
          "type": "address"
        }
      ],
      "payable": false,
      "stateMutability": "view",
      "type": "function"
    },
    {
      "inputs": [],
      "payable": false,
      "stateMutability": "nonpayable",
      "type": "constructor"
    }
  ],
  "bytecode": "0x608060405234801561001057600080fd5b50336000806101000a81548173ffffffffffffffffffffffffffffffffffffffff021916908373ffffffffffffffffffffffffffffffffffffffff16021790555060e38061005f6000396000f3fe6080604052600436106039576000357c0100000000000000000000000000000000000000000000000000000000900480638da5cb5b14603e575b600080fd5b348015604957600080fd5b5060506092565b604051808273ffffffffffffffffffffffffffffffffffffffff1673ffffffffffffffffffffffffffffffffffffffff16815260200191505060405180910390f35b6000809054906101000a900473ffffffffffffffffffffffffffffffffffffffff168156fea165627a7a72305820312bb3861feed586ac37d0383758c2c8bded16482f3beeb76e59529fbf0af8a30029",
  "source": "// SPDX License Identifier: MIT\npragma solidity ^0.5.1;\n\ncontract CrowdFunding {\n    address public owner;\n    \n    constructor() public {\n        owner = msg.sender;\n    }\n}",
  "sourcePath": "/home/ubuntu/Downloads/dev/tpfunir/contracts/CrowdFunding.sol",
  "compiler": {
    "name": "solc",
    "version": "0.5.1+commit.c8a2cb62.Emscripten.clang"
  },
  "schemaVersion": "3.4.4",
  "updatedAt": "2022-03-08T01:50:48.488Z",
  "networkType": "ethereum",
  "devdoc": {
    "methods": {}
  },
  "userdoc": {
    "methods": {}
  }
}