{
  "contractName": "CrowdFunding",
  "abi": [
    {
      "inputs": [],
      "stateMutability": "nonpayable",
      "type": "constructor"
    },
    {
      "anonymous": false,
      "inputs": [
        {
          "indexed": true,
          "internalType": "address",
          "name": "previousOwner",
          "type": "address"
        },
        {
          "indexed": true,
          "internalType": "address",
          "name": "newOwner",
          "type": "address"
        }
      ],
      "name": "OwnershipTransferred",
      "type": "event"
    },
    {
      "inputs": [],
      "name": "owner",
      "outputs": [
        {
          "internalType": "address",
          "name": "",
          "type": "address"
        }
      ],
      "stateMutability": "view",
      "type": "function",
      "constant": true
    },
    {
      "inputs": [],
      "name": "renounceOwnership",
      "outputs": [],
      "stateMutability": "nonpayable",
      "type": "function"
    },
    {
      "inputs": [
        {
          "internalType": "address",
          "name": "newOwner",
          "type": "address"
        }
      ],
      "name": "transferOwnership",
      "outputs": [],
      "stateMutability": "nonpayable",
      "type": "function"
    },
    {
      "inputs": [
        {
          "internalType": "string",
          "name": "_name",
          "type": "string"
        }
      ],
      "name": "setNameCrowdFunding",
      "outputs": [],
      "stateMutability": "nonpayable",
      "type": "function"
    },
    {
      "inputs": [],
      "name": "getDataCrowdFunding",
      "outputs": [
        {
          "internalType": "string",
          "name": "",
          "type": "string"
        },
        {
          "internalType": "uint256",
          "name": "",
          "type": "uint256"
        },
        {
          "internalType": "uint256",
          "name": "",
          "type": "uint256"
        },
        {
          "internalType": "bool",
          "name": "",
          "type": "bool"
        },
        {
          "internalType": "uint256",
          "name": "",
          "type": "uint256"
        }
      ],
      "stateMutability": "view",
      "type": "function",
      "constant": true
    },
    {
      "inputs": [],
      "name": "getPriceTokenCFT",
      "outputs": [
        {
          "internalType": "uint256",
          "name": "",
          "type": "uint256"
        }
      ],
      "stateMutability": "view",
      "type": "function",
      "constant": true
    },
    {
      "inputs": [],
      "name": "getPriceTicketLottery",
      "outputs": [
        {
          "internalType": "uint256",
          "name": "",
          "type": "uint256"
        }
      ],
      "stateMutability": "view",
      "type": "function",
      "constant": true
    },
    {
      "inputs": [],
      "name": "getTotalGeneratedToken",
      "outputs": [
        {
          "internalType": "uint256",
          "name": "",
          "type": "uint256"
        }
      ],
      "stateMutability": "view",
      "type": "function",
      "constant": true
    },
    {
      "inputs": [
        {
          "internalType": "uint256",
          "name": "_cantTokenForExchange",
          "type": "uint256"
        },
        {
          "internalType": "uint256",
          "name": "_cantTokenToTheWinner",
          "type": "uint256"
        }
      ],
      "name": "addToken",
      "outputs": [],
      "stateMutability": "nonpayable",
      "type": "function"
    },
    {
      "inputs": [],
      "name": "openCrowdFunding",
      "outputs": [],
      "stateMutability": "nonpayable",
      "type": "function"
    },
    {
      "inputs": [],
      "name": "closeCrowdFunding",
      "outputs": [],
      "stateMutability": "nonpayable",
      "type": "function"
    },
    {
      "inputs": [
        {
          "internalType": "address",
          "name": "account",
          "type": "address"
        }
      ],
      "name": "getBalanceCFT",
      "outputs": [
        {
          "internalType": "uint256",
          "name": "",
          "type": "uint256"
        }
      ],
      "stateMutability": "view",
      "type": "function",
      "constant": true
    },
    {
      "inputs": [],
      "name": "getBalanceCrowdFundingETH",
      "outputs": [
        {
          "internalType": "uint256",
          "name": "",
          "type": "uint256"
        }
      ],
      "stateMutability": "view",
      "type": "function",
      "constant": true
    },
    {
      "inputs": [
        {
          "internalType": "address payable",
          "name": "_buyer",
          "type": "address"
        },
        {
          "internalType": "uint256",
          "name": "cantToken",
          "type": "uint256"
        }
      ],
      "name": "buyToken",
      "outputs": [],
      "stateMutability": "payable",
      "type": "function",
      "payable": true
    },
    {
      "inputs": [],
      "name": "buyTicketLottery",
      "outputs": [],
      "stateMutability": "nonpayable",
      "type": "function"
    },
    {
      "inputs": [],
      "name": "getCantTicketTotalLottery",
      "outputs": [
        {
          "internalType": "uint256",
          "name": "",
          "type": "uint256"
        }
      ],
      "stateMutability": "view",
      "type": "function",
      "constant": true
    },
    {
      "inputs": [
        {
          "internalType": "address",
          "name": "account",
          "type": "address"
        }
      ],
      "name": "getCantTicketLotteryFromAccount",
      "outputs": [
        {
          "internalType": "uint256",
          "name": "",
          "type": "uint256"
        }
      ],
      "stateMutability": "view",
      "type": "function",
      "constant": true
    },
    {
      "inputs": [
        {
          "internalType": "uint256",
          "name": "_number",
          "type": "uint256"
        }
      ],
      "name": "getAddressFromNumberLotteryAssigned",
      "outputs": [
        {
          "internalType": "address",
          "name": "",
          "type": "address"
        }
      ],
      "stateMutability": "view",
      "type": "function",
      "constant": true
    },
    {
      "inputs": [
        {
          "internalType": "address",
          "name": "account",
          "type": "address"
        }
      ],
      "name": "getListNumberTicketAssigned",
      "outputs": [
        {
          "internalType": "uint256[]",
          "name": "",
          "type": "uint256[]"
        }
      ],
      "stateMutability": "view",
      "type": "function",
      "constant": true
    },
    {
      "inputs": [],
      "name": "closeCrowdFundingAndPickTheWinner",
      "outputs": [],
      "stateMutability": "nonpayable",
      "type": "function"
    }
  ],
  "bytecode": "0x60806040523480156200001157600080fd5b506200003262000026620001a560201b60201c565b620001ad60201b60201c565b604051620000409062000271565b604051809103906000f0801580156200005d573d6000803e3d6000fd5b50600160006101000a81548173ffffffffffffffffffffffffffffffffffffffff021916908373ffffffffffffffffffffffffffffffffffffffff1602179055506040518060200160405280600081525060029080519060200190620000c59291906200027f565b506000600560006101000a81548160ff021916908315150217905550600160009054906101000a900473ffffffffffffffffffffffffffffffffffffffff1673ffffffffffffffffffffffffffffffffffffffff1663095ea7b33060006040518363ffffffff1660e01b815260040162000141929190620003cb565b6020604051808303816000875af115801562000161573d6000803e3d6000fd5b505050506040513d601f19601f820116820180604052508101906200018791906200043a565b50670de0b6b3a76400006006819055506002600781905550620004d0565b600033905090565b60008060009054906101000a900473ffffffffffffffffffffffffffffffffffffffff169050816000806101000a81548173ffffffffffffffffffffffffffffffffffffffff021916908373ffffffffffffffffffffffffffffffffffffffff1602179055508173ffffffffffffffffffffffffffffffffffffffff168173ffffffffffffffffffffffffffffffffffffffff167f8be0079c531659141344cd1fd0a4f28419497f9722a3daafe3b4186f6b6457e060405160405180910390a35050565b611fda806200235a83390190565b8280546200028d906200049b565b90600052602060002090601f016020900481019282620002b15760008555620002fd565b82601f10620002cc57805160ff1916838001178555620002fd565b82800160010185558215620002fd579182015b82811115620002fc578251825591602001919060010190620002df565b5b5090506200030c919062000310565b5090565b5b808211156200032b57600081600090555060010162000311565b5090565b600073ffffffffffffffffffffffffffffffffffffffff82169050919050565b60006200035c826200032f565b9050919050565b6200036e816200034f565b82525050565b6000819050919050565b6000819050919050565b6000819050919050565b6000620003b3620003ad620003a78462000374565b62000388565b6200037e565b9050919050565b620003c58162000392565b82525050565b6000604082019050620003e2600083018562000363565b620003f16020830184620003ba565b9392505050565b600080fd5b60008115159050919050565b6200041481620003fd565b81146200042057600080fd5b50565b600081519050620004348162000409565b92915050565b600060208284031215620004535762000452620003f8565b5b6000620004638482850162000423565b91505092915050565b7f4e487b7100000000000000000000000000000000000000000000000000000000600052602260045260246000fd5b60006002820490506001821680620004b457607f821691505b602082108103620004ca57620004c96200046c565b5b50919050565b611e7a80620004e06000396000f3fe60806040526004361061011f5760003560e01c80639292b460116100a0578063d488e57411610064578063d488e57414610368578063d5de072c14610393578063d91cd860146103be578063dac4eedb146103ed578063f2fde38b1461042a5761011f565b80639292b46014610295578063b4e6dc62146102be578063c0e1bba2146102d5578063c1c7f7d914610300578063d00cb6001461033d5761011f565b806368f8fc10116100e757806368f8fc10146101e3578063715018a6146101ff5780637274762b1461021657806389beb665146102535780638da5cb5b1461026a5761011f565b8063134c6ba91461012457806317b9ebec1461013b57806346997ca3146101645780634983e9a5146101a157806367b3fa11146101cc575b600080fd5b34801561013057600080fd5b50610139610453565b005b34801561014757600080fd5b50610162600480360381019061015d9190611506565b6104ec565b005b34801561017057600080fd5b5061018b600480360381019061018691906115a4565b6106ec565b604051610198919061168f565b60405180910390f35b3480156101ad57600080fd5b506101b6610783565b6040516101c391906116c0565b60405180910390f35b3480156101d857600080fd5b506101e161078d565b005b6101fd60048036038101906101f89190611719565b6108ba565b005b34801561020b57600080fd5b50610214610a12565b005b34801561022257600080fd5b5061023d60048036038101906102389190611759565b610a9a565b60405161024a9190611795565b60405180910390f35b34801561025f57600080fd5b50610268610ad7565b005b34801561027657600080fd5b5061027f610b70565b60405161028c9190611795565b60405180910390f35b3480156102a157600080fd5b506102bc60048036038101906102b791906118f6565b610b99565b005b3480156102ca57600080fd5b506102d3610c3d565b005b3480156102e157600080fd5b506102ea610f38565b6040516102f791906116c0565b60405180910390f35b34801561030c57600080fd5b50610327600480360381019061032291906115a4565b610f49565b60405161033491906116c0565b60405180910390f35b34801561034957600080fd5b50610352610f95565b60405161035f91906116c0565b60405180910390f35b34801561037457600080fd5b5061037d610f9d565b60405161038a91906116c0565b60405180910390f35b34801561039f57600080fd5b506103a8610fa7565b6040516103b591906116c0565b60405180910390f35b3480156103ca57600080fd5b506103d361103f565b6040516103e49594939291906119e2565b60405180910390f35b3480156103f957600080fd5b50610414600480360381019061040f91906115a4565b61118d565b60405161042191906116c0565b60405180910390f35b34801561043657600080fd5b50610451600480360381019061044c91906115a4565b611232565b005b61045b611329565b73ffffffffffffffffffffffffffffffffffffffff16610479610b70565b73ffffffffffffffffffffffffffffffffffffffff16146104cf576040517f08c379a00000000000000000000000000000000000000000000000000000000081526004016104c690611a88565b60405180910390fd5b6000600560006101000a81548160ff021916908315150217905550565b6104f4611329565b73ffffffffffffffffffffffffffffffffffffffff16610512610b70565b73ffffffffffffffffffffffffffffffffffffffff1614610568576040517f08c379a000000000000000000000000000000000000000000000000000000000815260040161055f90611a88565b60405180910390fd5b6000821161057557600080fd5b600081101561058357600080fd5b600160009054906101000a900473ffffffffffffffffffffffffffffffffffffffff1673ffffffffffffffffffffffffffffffffffffffff166340c10f193383856105ce9190611ad7565b6040518363ffffffff1660e01b81526004016105eb929190611b2d565b600060405180830381600087803b15801561060557600080fd5b505af1158015610619573d6000803e3d6000fd5b505050508160035461062b9190611ad7565b6003819055508060045461063f9190611ad7565b600481905550600160009054906101000a900473ffffffffffffffffffffffffffffffffffffffff1673ffffffffffffffffffffffffffffffffffffffff166339509351306003546040518363ffffffff1660e01b81526004016106a4929190611b2d565b6020604051808303816000875af11580156106c3573d6000803e3d6000fd5b505050506040513d601f19601f820116820180604052508101906106e79190611b82565b505050565b6060600960008373ffffffffffffffffffffffffffffffffffffffff1673ffffffffffffffffffffffffffffffffffffffff16815260200190815260200160002080548060200260200160405190810160405280929190818152602001828054801561077757602002820191906000526020600020905b815481526020019060010190808311610763575b50505050509050919050565b6000600754905090565b610795611329565b73ffffffffffffffffffffffffffffffffffffffff166107b3610b70565b73ffffffffffffffffffffffffffffffffffffffff1614610809576040517f08c379a000000000000000000000000000000000000000000000000000000000815260040161080090611a88565b60405180910390fd5b60006108156008611331565b1161081f57600080fd5b600061082b6008611331565b4260405160200161083c9190611bd0565b6040516020818303038152906040528051906020012060001c61085f9190611c1a565b905061086a81610a9a565b600b60000160006101000a81548173ffffffffffffffffffffffffffffffffffffffff021916908373ffffffffffffffffffffffffffffffffffffffff16021790555080600b6001018190555050565b6000816006546108ca9190611c4b565b9050803410156108d957600080fd5b6000600354116108e857600080fd5b600081346108f69190611ca5565b90506000811115610949578373ffffffffffffffffffffffffffffffffffffffff166108fc829081150290604051600060405180830381858888f19350505050158015610947573d6000803e3d6000fd5b505b600160009054906101000a900473ffffffffffffffffffffffffffffffffffffffff1673ffffffffffffffffffffffffffffffffffffffff16637c524ffc61098f610b70565b33866040518463ffffffff1660e01b81526004016109af93929190611cd9565b6020604051808303816000875af11580156109ce573d6000803e3d6000fd5b505050506040513d601f19601f820116820180604052508101906109f29190611b82565b508260036000828254610a059190611ca5565b9250508190555050505050565b610a1a611329565b73ffffffffffffffffffffffffffffffffffffffff16610a38610b70565b73ffffffffffffffffffffffffffffffffffffffff1614610a8e576040517f08c379a0000000000000000000000000000000000000000000000000000000008152600401610a8590611a88565b60405180910390fd5b610a98600061133f565b565b6000600a600083815260200190815260200160002060009054906101000a900473ffffffffffffffffffffffffffffffffffffffff169050919050565b610adf611329565b73ffffffffffffffffffffffffffffffffffffffff16610afd610b70565b73ffffffffffffffffffffffffffffffffffffffff1614610b53576040517f08c379a0000000000000000000000000000000000000000000000000000000008152600401610b4a90611a88565b60405180910390fd5b6001600560006101000a81548160ff021916908315150217905550565b60008060009054906101000a900473ffffffffffffffffffffffffffffffffffffffff16905090565b610ba1611329565b73ffffffffffffffffffffffffffffffffffffffff16610bbf610b70565b73ffffffffffffffffffffffffffffffffffffffff1614610c15576040517f08c379a0000000000000000000000000000000000000000000000000000000008152600401610c0c90611a88565b60405180910390fd5b6000815111610c2357600080fd5b8060029080519060200190610c39929190611419565b5050565b60011515600560009054906101000a900460ff16151514610c5d57600080fd5b3073ffffffffffffffffffffffffffffffffffffffff16634983e9a56040518163ffffffff1660e01b8152600401602060405180830381865afa158015610ca8573d6000803e3d6000fd5b505050506040513d601f19601f82011682018060405250810190610ccc9190611d25565b3073ffffffffffffffffffffffffffffffffffffffff1663dac4eedb336040518263ffffffff1660e01b8152600401610d059190611795565b602060405180830381865afa158015610d22573d6000803e3d6000fd5b505050506040513d601f19601f82011682018060405250810190610d469190611d25565b1015610d5157600080fd5b610d5b6008611403565b600960003373ffffffffffffffffffffffffffffffffffffffff1673ffffffffffffffffffffffffffffffffffffffff168152602001908152602001600020610da46008611331565b908060018154018082558091505060019003906000526020600020016000909190919091505533600a6000610dd96008611331565b815260200190815260200160002060006101000a81548173ffffffffffffffffffffffffffffffffffffffff021916908373ffffffffffffffffffffffffffffffffffffffff160217905550600160009054906101000a900473ffffffffffffffffffffffffffffffffffffffff1673ffffffffffffffffffffffffffffffffffffffff16637c524ffc33303073ffffffffffffffffffffffffffffffffffffffff16634983e9a56040518163ffffffff1660e01b8152600401602060405180830381865afa158015610eb0573d6000803e3d6000fd5b505050506040513d601f19601f82011682018060405250810190610ed49190611d25565b6040518463ffffffff1660e01b8152600401610ef293929190611cd9565b6020604051808303816000875af1158015610f11573d6000803e3d6000fd5b505050506040513d601f19601f82011682018060405250810190610f359190611b82565b50565b6000610f446008611331565b905090565b6000600960008373ffffffffffffffffffffffffffffffffffffffff1673ffffffffffffffffffffffffffffffffffffffff168152602001908152602001600020805490509050919050565b600047905090565b6000600654905090565b6000600160009054906101000a900473ffffffffffffffffffffffffffffffffffffffff1673ffffffffffffffffffffffffffffffffffffffff166318160ddd6040518163ffffffff1660e01b8152600401602060405180830381865afa158015611016573d6000803e3d6000fd5b505050506040513d601f19601f8201168201806040525081019061103a9190611d25565b905090565b60606000806000806002600354600454600560009054906101000a900460ff16600160009054906101000a900473ffffffffffffffffffffffffffffffffffffffff1673ffffffffffffffffffffffffffffffffffffffff166318160ddd6040518163ffffffff1660e01b8152600401602060405180830381865afa1580156110cc573d6000803e3d6000fd5b505050506040513d601f19601f820116820180604052508101906110f09190611d25565b8480546110fc90611d81565b80601f016020809104026020016040519081016040528092919081815260200182805461112890611d81565b80156111755780601f1061114a57610100808354040283529160200191611175565b820191906000526020600020905b81548152906001019060200180831161115857829003601f168201915b50505050509450945094509450945094509091929394565b6000600160009054906101000a900473ffffffffffffffffffffffffffffffffffffffff1673ffffffffffffffffffffffffffffffffffffffff166370a08231836040518263ffffffff1660e01b81526004016111ea9190611795565b602060405180830381865afa158015611207573d6000803e3d6000fd5b505050506040513d601f19601f8201168201806040525081019061122b9190611d25565b9050919050565b61123a611329565b73ffffffffffffffffffffffffffffffffffffffff16611258610b70565b73ffffffffffffffffffffffffffffffffffffffff16146112ae576040517f08c379a00000000000000000000000000000000000000000000000000000000081526004016112a590611a88565b60405180910390fd5b600073ffffffffffffffffffffffffffffffffffffffff168173ffffffffffffffffffffffffffffffffffffffff160361131d576040517f08c379a000000000000000000000000000000000000000000000000000000000815260040161131490611e24565b60405180910390fd5b6113268161133f565b50565b600033905090565b600081600001549050919050565b60008060009054906101000a900473ffffffffffffffffffffffffffffffffffffffff169050816000806101000a81548173ffffffffffffffffffffffffffffffffffffffff021916908373ffffffffffffffffffffffffffffffffffffffff1602179055508173ffffffffffffffffffffffffffffffffffffffff168173ffffffffffffffffffffffffffffffffffffffff167f8be0079c531659141344cd1fd0a4f28419497f9722a3daafe3b4186f6b6457e060405160405180910390a35050565b6001816000016000828254019250508190555050565b82805461142590611d81565b90600052602060002090601f016020900481019282611447576000855561148e565b82601f1061146057805160ff191683800117855561148e565b8280016001018555821561148e579182015b8281111561148d578251825591602001919060010190611472565b5b50905061149b919061149f565b5090565b5b808211156114b85760008160009055506001016114a0565b5090565b6000604051905090565b600080fd5b600080fd5b6000819050919050565b6114e3816114d0565b81146114ee57600080fd5b50565b600081359050611500816114da565b92915050565b6000806040838503121561151d5761151c6114c6565b5b600061152b858286016114f1565b925050602061153c858286016114f1565b9150509250929050565b600073ffffffffffffffffffffffffffffffffffffffff82169050919050565b600061157182611546565b9050919050565b61158181611566565b811461158c57600080fd5b50565b60008135905061159e81611578565b92915050565b6000602082840312156115ba576115b96114c6565b5b60006115c88482850161158f565b91505092915050565b600081519050919050565b600082825260208201905092915050565b6000819050602082019050919050565b611606816114d0565b82525050565b600061161883836115fd565b60208301905092915050565b6000602082019050919050565b600061163c826115d1565b61164681856115dc565b9350611651836115ed565b8060005b83811015611682578151611669888261160c565b975061167483611624565b925050600181019050611655565b5085935050505092915050565b600060208201905081810360008301526116a98184611631565b905092915050565b6116ba816114d0565b82525050565b60006020820190506116d560008301846116b1565b92915050565b60006116e682611546565b9050919050565b6116f6816116db565b811461170157600080fd5b50565b600081359050611713816116ed565b92915050565b600080604083850312156117305761172f6114c6565b5b600061173e85828601611704565b925050602061174f858286016114f1565b9150509250929050565b60006020828403121561176f5761176e6114c6565b5b600061177d848285016114f1565b91505092915050565b61178f81611566565b82525050565b60006020820190506117aa6000830184611786565b92915050565b600080fd5b600080fd5b6000601f19601f8301169050919050565b7f4e487b7100000000000000000000000000000000000000000000000000000000600052604160045260246000fd5b611803826117ba565b810181811067ffffffffffffffff82111715611822576118216117cb565b5b80604052505050565b60006118356114bc565b905061184182826117fa565b919050565b600067ffffffffffffffff821115611861576118606117cb565b5b61186a826117ba565b9050602081019050919050565b82818337600083830152505050565b600061189961189484611846565b61182b565b9050828152602081018484840111156118b5576118b46117b5565b5b6118c0848285611877565b509392505050565b600082601f8301126118dd576118dc6117b0565b5b81356118ed848260208601611886565b91505092915050565b60006020828403121561190c5761190b6114c6565b5b600082013567ffffffffffffffff81111561192a576119296114cb565b5b611936848285016118c8565b91505092915050565b600081519050919050565b600082825260208201905092915050565b60005b8381101561197957808201518184015260208101905061195e565b83811115611988576000848401525b50505050565b60006119998261193f565b6119a3818561194a565b93506119b381856020860161195b565b6119bc816117ba565b840191505092915050565b60008115159050919050565b6119dc816119c7565b82525050565b600060a08201905081810360008301526119fc818861198e565b9050611a0b60208301876116b1565b611a1860408301866116b1565b611a2560608301856119d3565b611a3260808301846116b1565b9695505050505050565b7f4f776e61626c653a2063616c6c6572206973206e6f7420746865206f776e6572600082015250565b6000611a7260208361194a565b9150611a7d82611a3c565b602082019050919050565b60006020820190508181036000830152611aa181611a65565b9050919050565b7f4e487b7100000000000000000000000000000000000000000000000000000000600052601160045260246000fd5b6000611ae2826114d0565b9150611aed836114d0565b9250827fffffffffffffffffffffffffffffffffffffffffffffffffffffffffffffffff03821115611b2257611b21611aa8565b5b828201905092915050565b6000604082019050611b426000830185611786565b611b4f60208301846116b1565b9392505050565b611b5f816119c7565b8114611b6a57600080fd5b50565b600081519050611b7c81611b56565b92915050565b600060208284031215611b9857611b976114c6565b5b6000611ba684828501611b6d565b91505092915050565b6000819050919050565b611bca611bc5826114d0565b611baf565b82525050565b6000611bdc8284611bb9565b60208201915081905092915050565b7f4e487b7100000000000000000000000000000000000000000000000000000000600052601260045260246000fd5b6000611c25826114d0565b9150611c30836114d0565b925082611c4057611c3f611beb565b5b828206905092915050565b6000611c56826114d0565b9150611c61836114d0565b9250817fffffffffffffffffffffffffffffffffffffffffffffffffffffffffffffffff0483118215151615611c9a57611c99611aa8565b5b828202905092915050565b6000611cb0826114d0565b9150611cbb836114d0565b925082821015611cce57611ccd611aa8565b5b828203905092915050565b6000606082019050611cee6000830186611786565b611cfb6020830185611786565b611d0860408301846116b1565b949350505050565b600081519050611d1f816114da565b92915050565b600060208284031215611d3b57611d3a6114c6565b5b6000611d4984828501611d10565b91505092915050565b7f4e487b7100000000000000000000000000000000000000000000000000000000600052602260045260246000fd5b60006002820490506001821680611d9957607f821691505b602082108103611dac57611dab611d52565b5b50919050565b7f4f776e61626c653a206e6577206f776e657220697320746865207a65726f206160008201527f6464726573730000000000000000000000000000000000000000000000000000602082015250565b6000611e0e60268361194a565b9150611e1982611db2565b604082019050919050565b60006020820190508181036000830152611e3d81611e01565b905091905056fea26469706673582212202b91a3bfe25178755305ae05534c5ec6ac0ef83bbb55d5d296234e20012d1c6f64736f6c634300080d003360806040523480156200001157600080fd5b506040518060400160405280600c81526020017f43726f776446756e64696e6700000000000000000000000000000000000000008152506040518060400160405280600381526020017f43465400000000000000000000000000000000000000000000000000000000008152508160039080519060200190620000969291906200033b565b508060049080519060200190620000af9291906200033b565b505050620000d2620000c6620000eb60201b60201c565b620000f360201b60201c565b620000e5336000620001b960201b60201c565b62000596565b600033905090565b6000600560009054906101000a900473ffffffffffffffffffffffffffffffffffffffff16905081600560006101000a81548173ffffffffffffffffffffffffffffffffffffffff021916908373ffffffffffffffffffffffffffffffffffffffff1602179055508173ffffffffffffffffffffffffffffffffffffffff168173ffffffffffffffffffffffffffffffffffffffff167f8be0079c531659141344cd1fd0a4f28419497f9722a3daafe3b4186f6b6457e060405160405180910390a35050565b600073ffffffffffffffffffffffffffffffffffffffff168273ffffffffffffffffffffffffffffffffffffffff16036200022b576040517f08c379a000000000000000000000000000000000000000000000000000000000815260040162000222906200044c565b60405180910390fd5b6200023f600083836200033160201b60201c565b8060026000828254620002539190620004a7565b92505081905550806000808473ffffffffffffffffffffffffffffffffffffffff1673ffffffffffffffffffffffffffffffffffffffff1681526020019081526020016000206000828254620002aa9190620004a7565b925050819055508173ffffffffffffffffffffffffffffffffffffffff16600073ffffffffffffffffffffffffffffffffffffffff167fddf252ad1be2c89b69c2b068fc378daa952ba7f163c4a11628f55a4df523b3ef8360405162000311919062000515565b60405180910390a36200032d600083836200033660201b60201c565b5050565b505050565b505050565b828054620003499062000561565b90600052602060002090601f0160209004810192826200036d5760008555620003b9565b82601f106200038857805160ff1916838001178555620003b9565b82800160010185558215620003b9579182015b82811115620003b85782518255916020019190600101906200039b565b5b509050620003c89190620003cc565b5090565b5b80821115620003e7576000816000905550600101620003cd565b5090565b600082825260208201905092915050565b7f45524332303a206d696e7420746f20746865207a65726f206164647265737300600082015250565b600062000434601f83620003eb565b91506200044182620003fc565b602082019050919050565b60006020820190508181036000830152620004678162000425565b9050919050565b6000819050919050565b7f4e487b7100000000000000000000000000000000000000000000000000000000600052601160045260246000fd5b6000620004b4826200046e565b9150620004c1836200046e565b9250827fffffffffffffffffffffffffffffffffffffffffffffffffffffffffffffffff03821115620004f957620004f862000478565b5b828201905092915050565b6200050f816200046e565b82525050565b60006020820190506200052c600083018462000504565b92915050565b7f4e487b7100000000000000000000000000000000000000000000000000000000600052602260045260246000fd5b600060028204905060018216806200057a57607f821691505b60208210810362000590576200058f62000532565b5b50919050565b611a3480620005a66000396000f3fe608060405234801561001057600080fd5b50600436106101005760003560e01c8063715018a611610097578063a457c2d711610066578063a457c2d7146102b1578063a9059cbb146102e1578063dd62ed3e14610311578063f2fde38b1461034157610100565b8063715018a61461023b5780637c524ffc146102455780638da5cb5b1461027557806395d89b411461029357610100565b8063313ce567116100d3578063313ce567146101a157806339509351146101bf57806340c10f19146101ef57806370a082311461020b57610100565b806306fdde0314610105578063095ea7b31461012357806318160ddd1461015357806323b872dd14610171575b600080fd5b61010d61035d565b60405161011a919061115b565b60405180910390f35b61013d60048036038101906101389190611216565b6103ef565b60405161014a9190611271565b60405180910390f35b61015b610412565b604051610168919061129b565b60405180910390f35b61018b600480360381019061018691906112b6565b61041c565b6040516101989190611271565b60405180910390f35b6101a961044b565b6040516101b69190611325565b60405180910390f35b6101d960048036038101906101d49190611216565b610454565b6040516101e69190611271565b60405180910390f35b61020960048036038101906102049190611216565b6104fe565b005b61022560048036038101906102209190611340565b610588565b604051610232919061129b565b60405180910390f35b6102436105d0565b005b61025f600480360381019061025a91906112b6565b610658565b60405161026c9190611271565b60405180910390f35b61027d610670565b60405161028a919061137c565b60405180910390f35b61029b61069a565b6040516102a8919061115b565b60405180910390f35b6102cb60048036038101906102c69190611216565b61072c565b6040516102d89190611271565b60405180910390f35b6102fb60048036038101906102f69190611216565b610816565b6040516103089190611271565b60405180910390f35b61032b60048036038101906103269190611397565b610839565b604051610338919061129b565b60405180910390f35b61035b60048036038101906103569190611340565b6108c0565b005b60606003805461036c90611406565b80601f016020809104026020016040519081016040528092919081815260200182805461039890611406565b80156103e55780601f106103ba576101008083540402835291602001916103e5565b820191906000526020600020905b8154815290600101906020018083116103c857829003601f168201915b5050505050905090565b6000806103fa6109b7565b90506104078185856109bf565b600191505092915050565b6000600254905090565b6000806104276109b7565b9050610434858285610b88565b61043f858585610c14565b60019150509392505050565b60006012905090565b60008061045f6109b7565b90506104f3818585600160008673ffffffffffffffffffffffffffffffffffffffff1673ffffffffffffffffffffffffffffffffffffffff16815260200190815260200160002060008973ffffffffffffffffffffffffffffffffffffffff1673ffffffffffffffffffffffffffffffffffffffff168152602001908152602001600020546104ee9190611466565b6109bf565b600191505092915050565b6105066109b7565b73ffffffffffffffffffffffffffffffffffffffff16610524610670565b73ffffffffffffffffffffffffffffffffffffffff161461057a576040517f08c379a000000000000000000000000000000000000000000000000000000000815260040161057190611508565b60405180910390fd5b6105848282610e93565b5050565b60008060008373ffffffffffffffffffffffffffffffffffffffff1673ffffffffffffffffffffffffffffffffffffffff168152602001908152602001600020549050919050565b6105d86109b7565b73ffffffffffffffffffffffffffffffffffffffff166105f6610670565b73ffffffffffffffffffffffffffffffffffffffff161461064c576040517f08c379a000000000000000000000000000000000000000000000000000000000815260040161064390611508565b60405180910390fd5b6106566000610ff2565b565b6000610665848484610c14565b600190509392505050565b6000600560009054906101000a900473ffffffffffffffffffffffffffffffffffffffff16905090565b6060600480546106a990611406565b80601f01602080910402602001604051908101604052809291908181526020018280546106d590611406565b80156107225780601f106106f757610100808354040283529160200191610722565b820191906000526020600020905b81548152906001019060200180831161070557829003601f168201915b5050505050905090565b6000806107376109b7565b90506000600160008373ffffffffffffffffffffffffffffffffffffffff1673ffffffffffffffffffffffffffffffffffffffff16815260200190815260200160002060008673ffffffffffffffffffffffffffffffffffffffff1673ffffffffffffffffffffffffffffffffffffffff168152602001908152602001600020549050838110156107fd576040517f08c379a00000000000000000000000000000000000000000000000000000000081526004016107f49061159a565b60405180910390fd5b61080a82868684036109bf565b60019250505092915050565b6000806108216109b7565b905061082e818585610c14565b600191505092915050565b6000600160008473ffffffffffffffffffffffffffffffffffffffff1673ffffffffffffffffffffffffffffffffffffffff16815260200190815260200160002060008373ffffffffffffffffffffffffffffffffffffffff1673ffffffffffffffffffffffffffffffffffffffff16815260200190815260200160002054905092915050565b6108c86109b7565b73ffffffffffffffffffffffffffffffffffffffff166108e6610670565b73ffffffffffffffffffffffffffffffffffffffff161461093c576040517f08c379a000000000000000000000000000000000000000000000000000000000815260040161093390611508565b60405180910390fd5b600073ffffffffffffffffffffffffffffffffffffffff168173ffffffffffffffffffffffffffffffffffffffff16036109ab576040517f08c379a00000000000000000000000000000000000000000000000000000000081526004016109a29061162c565b60405180910390fd5b6109b481610ff2565b50565b600033905090565b600073ffffffffffffffffffffffffffffffffffffffff168373ffffffffffffffffffffffffffffffffffffffff1603610a2e576040517f08c379a0000000000000000000000000000000000000000000000000000000008152600401610a25906116be565b60405180910390fd5b600073ffffffffffffffffffffffffffffffffffffffff168273ffffffffffffffffffffffffffffffffffffffff1603610a9d576040517f08c379a0000000000000000000000000000000000000000000000000000000008152600401610a9490611750565b60405180910390fd5b80600160008573ffffffffffffffffffffffffffffffffffffffff1673ffffffffffffffffffffffffffffffffffffffff16815260200190815260200160002060008473ffffffffffffffffffffffffffffffffffffffff1673ffffffffffffffffffffffffffffffffffffffff168152602001908152602001600020819055508173ffffffffffffffffffffffffffffffffffffffff168373ffffffffffffffffffffffffffffffffffffffff167f8c5be1e5ebec7d5bd14f71427d1e84f3dd0314c0f7b2291e5b200ac8c7c3b92583604051610b7b919061129b565b60405180910390a3505050565b6000610b948484610839565b90507fffffffffffffffffffffffffffffffffffffffffffffffffffffffffffffffff8114610c0e5781811015610c00576040517f08c379a0000000000000000000000000000000000000000000000000000000008152600401610bf7906117bc565b60405180910390fd5b610c0d84848484036109bf565b5b50505050565b600073ffffffffffffffffffffffffffffffffffffffff168373ffffffffffffffffffffffffffffffffffffffff1603610c83576040517f08c379a0000000000000000000000000000000000000000000000000000000008152600401610c7a9061184e565b60405180910390fd5b600073ffffffffffffffffffffffffffffffffffffffff168273ffffffffffffffffffffffffffffffffffffffff1603610cf2576040517f08c379a0000000000000000000000000000000000000000000000000000000008152600401610ce9906118e0565b60405180910390fd5b610cfd8383836110b8565b60008060008573ffffffffffffffffffffffffffffffffffffffff1673ffffffffffffffffffffffffffffffffffffffff16815260200190815260200160002054905081811015610d83576040517f08c379a0000000000000000000000000000000000000000000000000000000008152600401610d7a90611972565b60405180910390fd5b8181036000808673ffffffffffffffffffffffffffffffffffffffff1673ffffffffffffffffffffffffffffffffffffffff16815260200190815260200160002081905550816000808573ffffffffffffffffffffffffffffffffffffffff1673ffffffffffffffffffffffffffffffffffffffff1681526020019081526020016000206000828254610e169190611466565b925050819055508273ffffffffffffffffffffffffffffffffffffffff168473ffffffffffffffffffffffffffffffffffffffff167fddf252ad1be2c89b69c2b068fc378daa952ba7f163c4a11628f55a4df523b3ef84604051610e7a919061129b565b60405180910390a3610e8d8484846110bd565b50505050565b600073ffffffffffffffffffffffffffffffffffffffff168273ffffffffffffffffffffffffffffffffffffffff1603610f02576040517f08c379a0000000000000000000000000000000000000000000000000000000008152600401610ef9906119de565b60405180910390fd5b610f0e600083836110b8565b8060026000828254610f209190611466565b92505081905550806000808473ffffffffffffffffffffffffffffffffffffffff1673ffffffffffffffffffffffffffffffffffffffff1681526020019081526020016000206000828254610f759190611466565b925050819055508173ffffffffffffffffffffffffffffffffffffffff16600073ffffffffffffffffffffffffffffffffffffffff167fddf252ad1be2c89b69c2b068fc378daa952ba7f163c4a11628f55a4df523b3ef83604051610fda919061129b565b60405180910390a3610fee600083836110bd565b5050565b6000600560009054906101000a900473ffffffffffffffffffffffffffffffffffffffff16905081600560006101000a81548173ffffffffffffffffffffffffffffffffffffffff021916908373ffffffffffffffffffffffffffffffffffffffff1602179055508173ffffffffffffffffffffffffffffffffffffffff168173ffffffffffffffffffffffffffffffffffffffff167f8be0079c531659141344cd1fd0a4f28419497f9722a3daafe3b4186f6b6457e060405160405180910390a35050565b505050565b505050565b600081519050919050565b600082825260208201905092915050565b60005b838110156110fc5780820151818401526020810190506110e1565b8381111561110b576000848401525b50505050565b6000601f19601f8301169050919050565b600061112d826110c2565b61113781856110cd565b93506111478185602086016110de565b61115081611111565b840191505092915050565b600060208201905081810360008301526111758184611122565b905092915050565b600080fd5b600073ffffffffffffffffffffffffffffffffffffffff82169050919050565b60006111ad82611182565b9050919050565b6111bd816111a2565b81146111c857600080fd5b50565b6000813590506111da816111b4565b92915050565b6000819050919050565b6111f3816111e0565b81146111fe57600080fd5b50565b600081359050611210816111ea565b92915050565b6000806040838503121561122d5761122c61117d565b5b600061123b858286016111cb565b925050602061124c85828601611201565b9150509250929050565b60008115159050919050565b61126b81611256565b82525050565b60006020820190506112866000830184611262565b92915050565b611295816111e0565b82525050565b60006020820190506112b0600083018461128c565b92915050565b6000806000606084860312156112cf576112ce61117d565b5b60006112dd868287016111cb565b93505060206112ee868287016111cb565b92505060406112ff86828701611201565b9150509250925092565b600060ff82169050919050565b61131f81611309565b82525050565b600060208201905061133a6000830184611316565b92915050565b6000602082840312156113565761135561117d565b5b6000611364848285016111cb565b91505092915050565b611376816111a2565b82525050565b6000602082019050611391600083018461136d565b92915050565b600080604083850312156113ae576113ad61117d565b5b60006113bc858286016111cb565b92505060206113cd858286016111cb565b9150509250929050565b7f4e487b7100000000000000000000000000000000000000000000000000000000600052602260045260246000fd5b6000600282049050600182168061141e57607f821691505b602082108103611431576114306113d7565b5b50919050565b7f4e487b7100000000000000000000000000000000000000000000000000000000600052601160045260246000fd5b6000611471826111e0565b915061147c836111e0565b9250827fffffffffffffffffffffffffffffffffffffffffffffffffffffffffffffffff038211156114b1576114b0611437565b5b828201905092915050565b7f4f776e61626c653a2063616c6c6572206973206e6f7420746865206f776e6572600082015250565b60006114f26020836110cd565b91506114fd826114bc565b602082019050919050565b60006020820190508181036000830152611521816114e5565b9050919050565b7f45524332303a2064656372656173656420616c6c6f77616e63652062656c6f7760008201527f207a65726f000000000000000000000000000000000000000000000000000000602082015250565b60006115846025836110cd565b915061158f82611528565b604082019050919050565b600060208201905081810360008301526115b381611577565b9050919050565b7f4f776e61626c653a206e6577206f776e657220697320746865207a65726f206160008201527f6464726573730000000000000000000000000000000000000000000000000000602082015250565b60006116166026836110cd565b9150611621826115ba565b604082019050919050565b6000602082019050818103600083015261164581611609565b9050919050565b7f45524332303a20617070726f76652066726f6d20746865207a65726f2061646460008201527f7265737300000000000000000000000000000000000000000000000000000000602082015250565b60006116a86024836110cd565b91506116b38261164c565b604082019050919050565b600060208201905081810360008301526116d78161169b565b9050919050565b7f45524332303a20617070726f766520746f20746865207a65726f20616464726560008201527f7373000000000000000000000000000000000000000000000000000000000000602082015250565b600061173a6022836110cd565b9150611745826116de565b604082019050919050565b600060208201905081810360008301526117698161172d565b9050919050565b7f45524332303a20696e73756666696369656e7420616c6c6f77616e6365000000600082015250565b60006117a6601d836110cd565b91506117b182611770565b602082019050919050565b600060208201905081810360008301526117d581611799565b9050919050565b7f45524332303a207472616e736665722066726f6d20746865207a65726f20616460008201527f6472657373000000000000000000000000000000000000000000000000000000602082015250565b60006118386025836110cd565b9150611843826117dc565b604082019050919050565b600060208201905081810360008301526118678161182b565b9050919050565b7f45524332303a207472616e7366657220746f20746865207a65726f206164647260008201527f6573730000000000000000000000000000000000000000000000000000000000602082015250565b60006118ca6023836110cd565b91506118d58261186e565b604082019050919050565b600060208201905081810360008301526118f9816118bd565b9050919050565b7f45524332303a207472616e7366657220616d6f756e742065786365656473206260008201527f616c616e63650000000000000000000000000000000000000000000000000000602082015250565b600061195c6026836110cd565b915061196782611900565b604082019050919050565b6000602082019050818103600083015261198b8161194f565b9050919050565b7f45524332303a206d696e7420746f20746865207a65726f206164647265737300600082015250565b60006119c8601f836110cd565b91506119d382611992565b602082019050919050565b600060208201905081810360008301526119f7816119bb565b905091905056fea264697066735822122033d2c7cc872f3326e32e24c0ac8a259f7504cebac96ead558615378774d5172264736f6c634300080d0033",
  "immutableReferences": {},
  "source": "// SPDX-License-Identifier: MIT\n\nimport \"./CrowdFundingTOKEN.sol\";\nimport \"@openzeppelin/contracts/access/Ownable.sol\";\nimport \"@openzeppelin/contracts/utils/Counters.sol\";\n\npragma solidity ^0.8.0;\n\ncontract CrowdFunding is Ownable {\n    CrowdFundingTOKEN private token;\n    string private name;\n    uint256 private cantTokenForExchange;\n    uint256 private cantTokenToTheWinner;\n    bool private stateCanFund;\n    uint256 private priceTokenCFT;\n    uint256 private priceTicketLottery;\n    using Counters for Counters.Counter;\n    Counters.Counter private _numberTicket;\n    mapping (address => uint256 []) personAddress_NumberTicketMap;\n    mapping (uint256 => address) numberTicketAssigned_personAddressMap;\n\n    struct WinnerLottery{\n        address accountWinner;\n        uint256 numerWinner; \n    }\n    WinnerLottery private winnerLottery;\n    \n    constructor() {\n        token = new CrowdFundingTOKEN();\n        name = \"\";\n        stateCanFund = false;\n        token.approve(address(this), 0);\n        priceTokenCFT = 1 ether;\n        priceTicketLottery = 2;\n    }\n\n    function setNameCrowdFunding(string memory _name) public onlyOwner {\n        // Verifica que el Nombre no sea nulo\n        require(bytes(_name).length > 0);        \n        name = _name;        \n    }\n\n    function getDataCrowdFunding() public view returns (string memory, uint256,uint256, bool, uint256) {        \n        return (name, cantTokenForExchange, cantTokenToTheWinner, stateCanFund, token.totalSupply());\n    }\n\n    function getPriceTokenCFT() public view returns(uint256) {\n        return priceTokenCFT;\n    }\n\n    function getPriceTicketLottery() public view returns(uint256) {\n        return priceTicketLottery;\n    }\n\n    function getTotalGeneratedToken() public view returns (uint256) {\n        return token.totalSupply();\n    }\n\n    function addToken(uint256 _cantTokenForExchange, \n        uint256 _cantTokenToTheWinner) public onlyOwner {\n\n        // Verifica valores validos\n        require(_cantTokenForExchange > 0);\n        require(_cantTokenToTheWinner >= 0);\n\n        token.mint(\n                msg.sender, \n                _cantTokenForExchange + \n                _cantTokenToTheWinner)\n        ;\n        cantTokenForExchange = cantTokenForExchange + _cantTokenForExchange;\n        cantTokenToTheWinner = cantTokenToTheWinner + _cantTokenToTheWinner;\n        token.increaseAllowance(address(this), cantTokenForExchange);\n    }\n\n    function openCrowdFunding() public onlyOwner {\n        stateCanFund = true;\n    }\n\n    function closeCrowdFunding() public  onlyOwner {\n        stateCanFund = false;\n    }\n\n    function getBalanceCFT(address account) view public returns (uint256){\n        return token.balanceOf(account);\n    }\n\n    function getBalanceCrowdFundingETH() view public returns(uint256){\n        return (address(this).balance);\n    }\n\n    function buyToken(address payable _buyer, uint cantToken) public payable {\n        uint totalPriceToken = priceTokenCFT * cantToken;\n        require(msg.value >= totalPriceToken);\n        require(cantTokenForExchange > 0);        \n\n        uint returnValue = msg.value - totalPriceToken;\n        if (returnValue > 0){\n            _buyer.transfer(returnValue);\n        }                    \n\n        token.transferCFT(owner(), msg.sender, cantToken);\n        cantTokenForExchange -= cantToken;\n    }\n\n    function buyTicketLottery() public {                \n        require(stateCanFund == true);\n        require(this.getBalanceCFT(msg.sender) >= this.getPriceTicketLottery());\n\n        _numberTicket.increment();\n        personAddress_NumberTicketMap[msg.sender].push(_numberTicket.current());\n        numberTicketAssigned_personAddressMap[_numberTicket.current()] = msg.sender;\n\n        token.transferCFT(msg.sender, address(this), this.getPriceTicketLottery());\n\n    }\n\n    function getCantTicketTotalLottery() view public returns(uint256) {        \n        return _numberTicket.current();\n    }\n\n    function getCantTicketLotteryFromAccount(address account) view public returns(uint256) {\n        return personAddress_NumberTicketMap[account].length;\n    }\n    \n    function getAddressFromNumberLotteryAssigned(\n        uint256 _number) view public returns(address) {\n        return numberTicketAssigned_personAddressMap[_number];\n    }\n\n    function getListNumberTicketAssigned(address account) view public returns(uint256 [] memory) {\n        return personAddress_NumberTicketMap[account];\n    }\n\n    function closeCrowdFundingAndPickTheWinner() public onlyOwner{\n    //verificar que est abierto el crowdfundiong\n    //verificar que haya nmero vendidos\n    //generar el random con el nmero mximo de venta\n    //devolver tokenes a todos los participantes\n    //darle al ganador el premio\n    require(_numberTicket.current()>0);\n    uint numberWinner = uint(uint(keccak256(abi.encodePacked(block.timestamp))) % _numberTicket.current());\n\n    winnerLottery.accountWinner = getAddressFromNumberLotteryAssigned(numberWinner);\n    winnerLottery.numerWinner = numberWinner;\n\n    }\n}",
  "sourcePath": "/home/ubuntu/dev/tpfunir/contracts/CrowdFunding.sol",
  "compiler": {
    "name": "solc",
    "version": "0.8.13+commit.abaa5c0e.Emscripten.clang"
  },
  "schemaVersion": "3.4.6",
  "updatedAt": "2022-04-02T20:24:28.071Z",
  "networkType": "ethereum",
  "devdoc": {
    "kind": "dev",
    "methods": {
      "owner()": {
        "details": "Returns the address of the current owner."
      },
      "renounceOwnership()": {
        "details": "Leaves the contract without owner. It will not be possible to call `onlyOwner` functions anymore. Can only be called by the current owner. NOTE: Renouncing ownership will leave the contract without an owner, thereby removing any functionality that is only available to the owner."
      },
      "transferOwnership(address)": {
        "details": "Transfers ownership of the contract to a new account (`newOwner`). Can only be called by the current owner."
      }
    },
    "version": 1
  },
  "userdoc": {
    "kind": "user",
    "methods": {},
    "version": 1
  }
}