{
  "contractName": "CrowdFunding",
  "abi": [
    {
      "inputs": [],
      "stateMutability": "nonpayable",
      "type": "constructor"
    },
    {
      "anonymous": false,
      "inputs": [
        {
          "indexed": true,
          "internalType": "address",
          "name": "previousOwner",
          "type": "address"
        },
        {
          "indexed": true,
          "internalType": "address",
          "name": "newOwner",
          "type": "address"
        }
      ],
      "name": "OwnershipTransferred",
      "type": "event"
    },
    {
      "inputs": [],
      "name": "owner",
      "outputs": [
        {
          "internalType": "address",
          "name": "",
          "type": "address"
        }
      ],
      "stateMutability": "view",
      "type": "function",
      "constant": true
    },
    {
      "inputs": [],
      "name": "renounceOwnership",
      "outputs": [],
      "stateMutability": "nonpayable",
      "type": "function"
    },
    {
      "inputs": [
        {
          "internalType": "address",
          "name": "newOwner",
          "type": "address"
        }
      ],
      "name": "transferOwnership",
      "outputs": [],
      "stateMutability": "nonpayable",
      "type": "function"
    },
    {
      "inputs": [
        {
          "internalType": "string",
          "name": "name",
          "type": "string"
        }
      ],
      "name": "setNameCrowdFunding",
      "outputs": [],
      "stateMutability": "nonpayable",
      "type": "function"
    },
    {
      "inputs": [],
      "name": "getDataCrowdFunding",
      "outputs": [
        {
          "internalType": "string",
          "name": "",
          "type": "string"
        },
        {
          "internalType": "uint256",
          "name": "",
          "type": "uint256"
        },
        {
          "internalType": "uint256",
          "name": "",
          "type": "uint256"
        },
        {
          "internalType": "bool",
          "name": "",
          "type": "bool"
        },
        {
          "internalType": "uint256",
          "name": "",
          "type": "uint256"
        }
      ],
      "stateMutability": "view",
      "type": "function",
      "constant": true
    },
    {
      "inputs": [],
      "name": "getPriceTokenCFT",
      "outputs": [
        {
          "internalType": "uint256",
          "name": "",
          "type": "uint256"
        }
      ],
      "stateMutability": "view",
      "type": "function",
      "constant": true
    },
    {
      "inputs": [],
      "name": "getPriceTicketLottery",
      "outputs": [
        {
          "internalType": "uint256",
          "name": "",
          "type": "uint256"
        }
      ],
      "stateMutability": "view",
      "type": "function",
      "constant": true
    },
    {
      "inputs": [],
      "name": "getTotalGeneratedToken",
      "outputs": [
        {
          "internalType": "uint256",
          "name": "",
          "type": "uint256"
        }
      ],
      "stateMutability": "view",
      "type": "function",
      "constant": true
    },
    {
      "inputs": [
        {
          "internalType": "uint256",
          "name": "cantAddTokenForExchange",
          "type": "uint256"
        },
        {
          "internalType": "uint256",
          "name": "cantAddTokenToTheWinner",
          "type": "uint256"
        }
      ],
      "name": "addToken",
      "outputs": [],
      "stateMutability": "nonpayable",
      "type": "function"
    },
    {
      "inputs": [],
      "name": "openCrowdFunding",
      "outputs": [],
      "stateMutability": "nonpayable",
      "type": "function"
    },
    {
      "inputs": [],
      "name": "closeCrowdFunding",
      "outputs": [],
      "stateMutability": "nonpayable",
      "type": "function"
    },
    {
      "inputs": [
        {
          "internalType": "address",
          "name": "account",
          "type": "address"
        }
      ],
      "name": "getBalanceCFT",
      "outputs": [
        {
          "internalType": "uint256",
          "name": "",
          "type": "uint256"
        }
      ],
      "stateMutability": "view",
      "type": "function",
      "constant": true
    },
    {
      "inputs": [],
      "name": "getBalanceCrowdFundingETH",
      "outputs": [
        {
          "internalType": "uint256",
          "name": "",
          "type": "uint256"
        }
      ],
      "stateMutability": "view",
      "type": "function",
      "constant": true
    },
    {
      "inputs": [
        {
          "internalType": "address payable",
          "name": "_buyer",
          "type": "address"
        },
        {
          "internalType": "uint256",
          "name": "cantToken",
          "type": "uint256"
        }
      ],
      "name": "buyToken",
      "outputs": [],
      "stateMutability": "payable",
      "type": "function",
      "payable": true
    },
    {
      "inputs": [],
      "name": "buyTicketLottery",
      "outputs": [],
      "stateMutability": "nonpayable",
      "type": "function"
    },
    {
      "inputs": [],
      "name": "getCantTicketTotalLottery",
      "outputs": [
        {
          "internalType": "uint256",
          "name": "",
          "type": "uint256"
        }
      ],
      "stateMutability": "view",
      "type": "function",
      "constant": true
    },
    {
      "inputs": [
        {
          "internalType": "address",
          "name": "account",
          "type": "address"
        }
      ],
      "name": "getCantTicketLotteryFromAccount",
      "outputs": [
        {
          "internalType": "uint256",
          "name": "",
          "type": "uint256"
        }
      ],
      "stateMutability": "view",
      "type": "function",
      "constant": true
    },
    {
      "inputs": [
        {
          "internalType": "uint256",
          "name": "_number",
          "type": "uint256"
        }
      ],
      "name": "getAddressFromNumberLotteryAssigned",
      "outputs": [
        {
          "internalType": "address",
          "name": "",
          "type": "address"
        }
      ],
      "stateMutability": "view",
      "type": "function",
      "constant": true
    },
    {
      "inputs": [
        {
          "internalType": "address",
          "name": "account",
          "type": "address"
        }
      ],
      "name": "getListNumberTicketAssigned",
      "outputs": [
        {
          "internalType": "uint256[]",
          "name": "",
          "type": "uint256[]"
        }
      ],
      "stateMutability": "view",
      "type": "function",
      "constant": true
    },
    {
      "inputs": [],
      "name": "makeLottery",
      "outputs": [],
      "stateMutability": "nonpayable",
      "type": "function"
    },
    {
      "inputs": [],
      "name": "getWinnerLottery",
      "outputs": [
        {
          "components": [
            {
              "internalType": "address",
              "name": "accountWinner",
              "type": "address"
            },
            {
              "internalType": "uint256",
              "name": "numberWinner",
              "type": "uint256"
            }
          ],
          "internalType": "struct CrowdFunding.WinnerLotteryStruct",
          "name": "",
          "type": "tuple"
        }
      ],
      "stateMutability": "view",
      "type": "function",
      "constant": true
    }
  ],
  "bytecode": "0x60806040523480156200001157600080fd5b506200003262000026620001a560201b60201c565b620001ad60201b60201c565b604051620000409062000271565b604051809103906000f0801580156200005d573d6000803e3d6000fd5b50600160006101000a81548173ffffffffffffffffffffffffffffffffffffffff021916908373ffffffffffffffffffffffffffffffffffffffff1602179055506040518060200160405280600081525060029080519060200190620000c59291906200027f565b506000600560006101000a81548160ff021916908315150217905550600160009054906101000a900473ffffffffffffffffffffffffffffffffffffffff1673ffffffffffffffffffffffffffffffffffffffff1663095ea7b33060006040518363ffffffff1660e01b815260040162000141929190620003cb565b6020604051808303816000875af115801562000161573d6000803e3d6000fd5b505050506040513d601f19601f820116820180604052508101906200018791906200043a565b50670de0b6b3a76400006006819055506002600781905550620004d0565b600033905090565b60008060009054906101000a900473ffffffffffffffffffffffffffffffffffffffff169050816000806101000a81548173ffffffffffffffffffffffffffffffffffffffff021916908373ffffffffffffffffffffffffffffffffffffffff1602179055508173ffffffffffffffffffffffffffffffffffffffff168173ffffffffffffffffffffffffffffffffffffffff167f8be0079c531659141344cd1fd0a4f28419497f9722a3daafe3b4186f6b6457e060405160405180910390a35050565b611fda806200249383390190565b8280546200028d906200049b565b90600052602060002090601f016020900481019282620002b15760008555620002fd565b82601f10620002cc57805160ff1916838001178555620002fd565b82800160010185558215620002fd579182015b82811115620002fc578251825591602001919060010190620002df565b5b5090506200030c919062000310565b5090565b5b808211156200032b57600081600090555060010162000311565b5090565b600073ffffffffffffffffffffffffffffffffffffffff82169050919050565b60006200035c826200032f565b9050919050565b6200036e816200034f565b82525050565b6000819050919050565b6000819050919050565b6000819050919050565b6000620003b3620003ad620003a78462000374565b62000388565b6200037e565b9050919050565b620003c58162000392565b82525050565b6000604082019050620003e2600083018562000363565b620003f16020830184620003ba565b9392505050565b600080fd5b60008115159050919050565b6200041481620003fd565b81146200042057600080fd5b50565b600081519050620004348162000409565b92915050565b600060208284031215620004535762000452620003f8565b5b6000620004638482850162000423565b91505092915050565b7f4e487b7100000000000000000000000000000000000000000000000000000000600052602260045260246000fd5b60006002820490506001821680620004b457607f821691505b602082108103620004ca57620004c96200046c565b5b50919050565b611fb380620004e06000396000f3fe60806040526004361061012a5760003560e01c80639292b460116100ab578063d00cb6001161006f578063d00cb60014610373578063d488e5741461039e578063d5de072c146103c9578063d91cd860146103f4578063dac4eedb14610423578063f2fde38b146104605761012a565b80639292b460146102a05780639a532a61146102c9578063b4e6dc62146102f4578063c0e1bba21461030b578063c1c7f7d9146103365761012a565b806368f8fc10116100f257806368f8fc10146101ee578063715018a61461020a5780637274762b1461022157806389beb6651461025e5780638da5cb5b146102755761012a565b8063134c6ba91461012f57806317b9ebec146101465780632b47acb41461016f57806346997ca3146101865780634983e9a5146101c3575b600080fd5b34801561013b57600080fd5b50610144610489565b005b34801561015257600080fd5b5061016d600480360381019061016891906115e6565b610522565b005b34801561017b57600080fd5b50610184610722565b005b34801561019257600080fd5b506101ad60048036038101906101a89190611684565b61084f565b6040516101ba919061176f565b60405180910390f35b3480156101cf57600080fd5b506101d86108e6565b6040516101e591906117a0565b60405180910390f35b610208600480360381019061020391906117f9565b6108f0565b005b34801561021657600080fd5b5061021f610a48565b005b34801561022d57600080fd5b5061024860048036038101906102439190611839565b610ad0565b6040516102559190611875565b60405180910390f35b34801561026a57600080fd5b50610273610b0d565b005b34801561028157600080fd5b5061028a610ba6565b6040516102979190611875565b60405180910390f35b3480156102ac57600080fd5b506102c760048036038101906102c291906119d6565b610bcf565b005b3480156102d557600080fd5b506102de610c73565b6040516102eb9190611a5d565b60405180910390f35b34801561030057600080fd5b50610309610ced565b005b34801561031757600080fd5b50610320610fe8565b60405161032d91906117a0565b60405180910390f35b34801561034257600080fd5b5061035d60048036038101906103589190611684565b610ff9565b60405161036a91906117a0565b60405180910390f35b34801561037f57600080fd5b50610388611045565b60405161039591906117a0565b60405180910390f35b3480156103aa57600080fd5b506103b361104d565b6040516103c091906117a0565b60405180910390f35b3480156103d557600080fd5b506103de611057565b6040516103eb91906117a0565b60405180910390f35b34801561040057600080fd5b506104096110ef565b60405161041a959493929190611b1b565b60405180910390f35b34801561042f57600080fd5b5061044a60048036038101906104459190611684565b61123d565b60405161045791906117a0565b60405180910390f35b34801561046c57600080fd5b5061048760048036038101906104829190611684565b6112e2565b005b6104916113d9565b73ffffffffffffffffffffffffffffffffffffffff166104af610ba6565b73ffffffffffffffffffffffffffffffffffffffff1614610505576040517f08c379a00000000000000000000000000000000000000000000000000000000081526004016104fc90611bc1565b60405180910390fd5b6000600560006101000a81548160ff021916908315150217905550565b61052a6113d9565b73ffffffffffffffffffffffffffffffffffffffff16610548610ba6565b73ffffffffffffffffffffffffffffffffffffffff161461059e576040517f08c379a000000000000000000000000000000000000000000000000000000000815260040161059590611bc1565b60405180910390fd5b600082116105ab57600080fd5b60008110156105b957600080fd5b600160009054906101000a900473ffffffffffffffffffffffffffffffffffffffff1673ffffffffffffffffffffffffffffffffffffffff166340c10f193383856106049190611c10565b6040518363ffffffff1660e01b8152600401610621929190611c66565b600060405180830381600087803b15801561063b57600080fd5b505af115801561064f573d6000803e3d6000fd5b50505050816003546106619190611c10565b600381905550806004546106759190611c10565b600481905550600160009054906101000a900473ffffffffffffffffffffffffffffffffffffffff1673ffffffffffffffffffffffffffffffffffffffff166339509351306003546040518363ffffffff1660e01b81526004016106da929190611c66565b6020604051808303816000875af11580156106f9573d6000803e3d6000fd5b505050506040513d601f19601f8201168201806040525081019061071d9190611cbb565b505050565b61072a6113d9565b73ffffffffffffffffffffffffffffffffffffffff16610748610ba6565b73ffffffffffffffffffffffffffffffffffffffff161461079e576040517f08c379a000000000000000000000000000000000000000000000000000000000815260040161079590611bc1565b60405180910390fd5b60006107aa60086113e1565b116107b457600080fd5b60006107c060086113e1565b426040516020016107d19190611d09565b6040516020818303038152906040528051906020012060001c6107f49190611d53565b90506107ff81610ad0565b600b60000160006101000a81548173ffffffffffffffffffffffffffffffffffffffff021916908373ffffffffffffffffffffffffffffffffffffffff16021790555080600b6001018190555050565b6060600960008373ffffffffffffffffffffffffffffffffffffffff1673ffffffffffffffffffffffffffffffffffffffff1681526020019081526020016000208054806020026020016040519081016040528092919081815260200182805480156108da57602002820191906000526020600020905b8154815260200190600101908083116108c6575b50505050509050919050565b6000600754905090565b6000816006546109009190611d84565b90508034101561090f57600080fd5b60006003541161091e57600080fd5b6000813461092c9190611dde565b9050600081111561097f578373ffffffffffffffffffffffffffffffffffffffff166108fc829081150290604051600060405180830381858888f1935050505015801561097d573d6000803e3d6000fd5b505b600160009054906101000a900473ffffffffffffffffffffffffffffffffffffffff1673ffffffffffffffffffffffffffffffffffffffff16637c524ffc6109c5610ba6565b33866040518463ffffffff1660e01b81526004016109e593929190611e12565b6020604051808303816000875af1158015610a04573d6000803e3d6000fd5b505050506040513d601f19601f82011682018060405250810190610a289190611cbb565b508260036000828254610a3b9190611dde565b9250508190555050505050565b610a506113d9565b73ffffffffffffffffffffffffffffffffffffffff16610a6e610ba6565b73ffffffffffffffffffffffffffffffffffffffff1614610ac4576040517f08c379a0000000000000000000000000000000000000000000000000000000008152600401610abb90611bc1565b60405180910390fd5b610ace60006113ef565b565b6000600a600083815260200190815260200160002060009054906101000a900473ffffffffffffffffffffffffffffffffffffffff169050919050565b610b156113d9565b73ffffffffffffffffffffffffffffffffffffffff16610b33610ba6565b73ffffffffffffffffffffffffffffffffffffffff1614610b89576040517f08c379a0000000000000000000000000000000000000000000000000000000008152600401610b8090611bc1565b60405180910390fd5b6001600560006101000a81548160ff021916908315150217905550565b60008060009054906101000a900473ffffffffffffffffffffffffffffffffffffffff16905090565b610bd76113d9565b73ffffffffffffffffffffffffffffffffffffffff16610bf5610ba6565b73ffffffffffffffffffffffffffffffffffffffff1614610c4b576040517f08c379a0000000000000000000000000000000000000000000000000000000008152600401610c4290611bc1565b60405180910390fd5b6000815111610c5957600080fd5b8060029080519060200190610c6f9291906114c9565b5050565b610c7b61154f565b600b6040518060400160405290816000820160009054906101000a900473ffffffffffffffffffffffffffffffffffffffff1673ffffffffffffffffffffffffffffffffffffffff1673ffffffffffffffffffffffffffffffffffffffff168152602001600182015481525050905090565b60011515600560009054906101000a900460ff16151514610d0d57600080fd5b3073ffffffffffffffffffffffffffffffffffffffff16634983e9a56040518163ffffffff1660e01b8152600401602060405180830381865afa158015610d58573d6000803e3d6000fd5b505050506040513d601f19601f82011682018060405250810190610d7c9190611e5e565b3073ffffffffffffffffffffffffffffffffffffffff1663dac4eedb336040518263ffffffff1660e01b8152600401610db59190611875565b602060405180830381865afa158015610dd2573d6000803e3d6000fd5b505050506040513d601f19601f82011682018060405250810190610df69190611e5e565b1015610e0157600080fd5b610e0b60086114b3565b600960003373ffffffffffffffffffffffffffffffffffffffff1673ffffffffffffffffffffffffffffffffffffffff168152602001908152602001600020610e5460086113e1565b908060018154018082558091505060019003906000526020600020016000909190919091505533600a6000610e8960086113e1565b815260200190815260200160002060006101000a81548173ffffffffffffffffffffffffffffffffffffffff021916908373ffffffffffffffffffffffffffffffffffffffff160217905550600160009054906101000a900473ffffffffffffffffffffffffffffffffffffffff1673ffffffffffffffffffffffffffffffffffffffff16637c524ffc33303073ffffffffffffffffffffffffffffffffffffffff16634983e9a56040518163ffffffff1660e01b8152600401602060405180830381865afa158015610f60573d6000803e3d6000fd5b505050506040513d601f19601f82011682018060405250810190610f849190611e5e565b6040518463ffffffff1660e01b8152600401610fa293929190611e12565b6020604051808303816000875af1158015610fc1573d6000803e3d6000fd5b505050506040513d601f19601f82011682018060405250810190610fe59190611cbb565b50565b6000610ff460086113e1565b905090565b6000600960008373ffffffffffffffffffffffffffffffffffffffff1673ffffffffffffffffffffffffffffffffffffffff168152602001908152602001600020805490509050919050565b600047905090565b6000600654905090565b6000600160009054906101000a900473ffffffffffffffffffffffffffffffffffffffff1673ffffffffffffffffffffffffffffffffffffffff166318160ddd6040518163ffffffff1660e01b8152600401602060405180830381865afa1580156110c6573d6000803e3d6000fd5b505050506040513d601f19601f820116820180604052508101906110ea9190611e5e565b905090565b60606000806000806002600354600454600560009054906101000a900460ff16600160009054906101000a900473ffffffffffffffffffffffffffffffffffffffff1673ffffffffffffffffffffffffffffffffffffffff166318160ddd6040518163ffffffff1660e01b8152600401602060405180830381865afa15801561117c573d6000803e3d6000fd5b505050506040513d601f19601f820116820180604052508101906111a09190611e5e565b8480546111ac90611eba565b80601f01602080910402602001604051908101604052809291908181526020018280546111d890611eba565b80156112255780601f106111fa57610100808354040283529160200191611225565b820191906000526020600020905b81548152906001019060200180831161120857829003601f168201915b50505050509450945094509450945094509091929394565b6000600160009054906101000a900473ffffffffffffffffffffffffffffffffffffffff1673ffffffffffffffffffffffffffffffffffffffff166370a08231836040518263ffffffff1660e01b815260040161129a9190611875565b602060405180830381865afa1580156112b7573d6000803e3d6000fd5b505050506040513d601f19601f820116820180604052508101906112db9190611e5e565b9050919050565b6112ea6113d9565b73ffffffffffffffffffffffffffffffffffffffff16611308610ba6565b73ffffffffffffffffffffffffffffffffffffffff161461135e576040517f08c379a000000000000000000000000000000000000000000000000000000000815260040161135590611bc1565b60405180910390fd5b600073ffffffffffffffffffffffffffffffffffffffff168173ffffffffffffffffffffffffffffffffffffffff16036113cd576040517f08c379a00000000000000000000000000000000000000000000000000000000081526004016113c490611f5d565b60405180910390fd5b6113d6816113ef565b50565b600033905090565b600081600001549050919050565b60008060009054906101000a900473ffffffffffffffffffffffffffffffffffffffff169050816000806101000a81548173ffffffffffffffffffffffffffffffffffffffff021916908373ffffffffffffffffffffffffffffffffffffffff1602179055508173ffffffffffffffffffffffffffffffffffffffff168173ffffffffffffffffffffffffffffffffffffffff167f8be0079c531659141344cd1fd0a4f28419497f9722a3daafe3b4186f6b6457e060405160405180910390a35050565b6001816000016000828254019250508190555050565b8280546114d590611eba565b90600052602060002090601f0160209004810192826114f7576000855561153e565b82601f1061151057805160ff191683800117855561153e565b8280016001018555821561153e579182015b8281111561153d578251825591602001919060010190611522565b5b50905061154b919061157f565b5090565b6040518060400160405280600073ffffffffffffffffffffffffffffffffffffffff168152602001600081525090565b5b80821115611598576000816000905550600101611580565b5090565b6000604051905090565b600080fd5b600080fd5b6000819050919050565b6115c3816115b0565b81146115ce57600080fd5b50565b6000813590506115e0816115ba565b92915050565b600080604083850312156115fd576115fc6115a6565b5b600061160b858286016115d1565b925050602061161c858286016115d1565b9150509250929050565b600073ffffffffffffffffffffffffffffffffffffffff82169050919050565b600061165182611626565b9050919050565b61166181611646565b811461166c57600080fd5b50565b60008135905061167e81611658565b92915050565b60006020828403121561169a576116996115a6565b5b60006116a88482850161166f565b91505092915050565b600081519050919050565b600082825260208201905092915050565b6000819050602082019050919050565b6116e6816115b0565b82525050565b60006116f883836116dd565b60208301905092915050565b6000602082019050919050565b600061171c826116b1565b61172681856116bc565b9350611731836116cd565b8060005b8381101561176257815161174988826116ec565b975061175483611704565b925050600181019050611735565b5085935050505092915050565b600060208201905081810360008301526117898184611711565b905092915050565b61179a816115b0565b82525050565b60006020820190506117b56000830184611791565b92915050565b60006117c682611626565b9050919050565b6117d6816117bb565b81146117e157600080fd5b50565b6000813590506117f3816117cd565b92915050565b600080604083850312156118105761180f6115a6565b5b600061181e858286016117e4565b925050602061182f858286016115d1565b9150509250929050565b60006020828403121561184f5761184e6115a6565b5b600061185d848285016115d1565b91505092915050565b61186f81611646565b82525050565b600060208201905061188a6000830184611866565b92915050565b600080fd5b600080fd5b6000601f19601f8301169050919050565b7f4e487b7100000000000000000000000000000000000000000000000000000000600052604160045260246000fd5b6118e38261189a565b810181811067ffffffffffffffff82111715611902576119016118ab565b5b80604052505050565b600061191561159c565b905061192182826118da565b919050565b600067ffffffffffffffff821115611941576119406118ab565b5b61194a8261189a565b9050602081019050919050565b82818337600083830152505050565b600061197961197484611926565b61190b565b90508281526020810184848401111561199557611994611895565b5b6119a0848285611957565b509392505050565b600082601f8301126119bd576119bc611890565b5b81356119cd848260208601611966565b91505092915050565b6000602082840312156119ec576119eb6115a6565b5b600082013567ffffffffffffffff811115611a0a57611a096115ab565b5b611a16848285016119a8565b91505092915050565b611a2881611646565b82525050565b604082016000820151611a446000850182611a1f565b506020820151611a5760208501826116dd565b50505050565b6000604082019050611a726000830184611a2e565b92915050565b600081519050919050565b600082825260208201905092915050565b60005b83811015611ab2578082015181840152602081019050611a97565b83811115611ac1576000848401525b50505050565b6000611ad282611a78565b611adc8185611a83565b9350611aec818560208601611a94565b611af58161189a565b840191505092915050565b60008115159050919050565b611b1581611b00565b82525050565b600060a0820190508181036000830152611b358188611ac7565b9050611b446020830187611791565b611b516040830186611791565b611b5e6060830185611b0c565b611b6b6080830184611791565b9695505050505050565b7f4f776e61626c653a2063616c6c6572206973206e6f7420746865206f776e6572600082015250565b6000611bab602083611a83565b9150611bb682611b75565b602082019050919050565b60006020820190508181036000830152611bda81611b9e565b9050919050565b7f4e487b7100000000000000000000000000000000000000000000000000000000600052601160045260246000fd5b6000611c1b826115b0565b9150611c26836115b0565b9250827fffffffffffffffffffffffffffffffffffffffffffffffffffffffffffffffff03821115611c5b57611c5a611be1565b5b828201905092915050565b6000604082019050611c7b6000830185611866565b611c886020830184611791565b9392505050565b611c9881611b00565b8114611ca357600080fd5b50565b600081519050611cb581611c8f565b92915050565b600060208284031215611cd157611cd06115a6565b5b6000611cdf84828501611ca6565b91505092915050565b6000819050919050565b611d03611cfe826115b0565b611ce8565b82525050565b6000611d158284611cf2565b60208201915081905092915050565b7f4e487b7100000000000000000000000000000000000000000000000000000000600052601260045260246000fd5b6000611d5e826115b0565b9150611d69836115b0565b925082611d7957611d78611d24565b5b828206905092915050565b6000611d8f826115b0565b9150611d9a836115b0565b9250817fffffffffffffffffffffffffffffffffffffffffffffffffffffffffffffffff0483118215151615611dd357611dd2611be1565b5b828202905092915050565b6000611de9826115b0565b9150611df4836115b0565b925082821015611e0757611e06611be1565b5b828203905092915050565b6000606082019050611e276000830186611866565b611e346020830185611866565b611e416040830184611791565b949350505050565b600081519050611e58816115ba565b92915050565b600060208284031215611e7457611e736115a6565b5b6000611e8284828501611e49565b91505092915050565b7f4e487b7100000000000000000000000000000000000000000000000000000000600052602260045260246000fd5b60006002820490506001821680611ed257607f821691505b602082108103611ee557611ee4611e8b565b5b50919050565b7f4f776e61626c653a206e6577206f776e657220697320746865207a65726f206160008201527f6464726573730000000000000000000000000000000000000000000000000000602082015250565b6000611f47602683611a83565b9150611f5282611eeb565b604082019050919050565b60006020820190508181036000830152611f7681611f3a565b905091905056fea264697066735822122016346ddb8dc97ddd2dfeb7de59e560271dfe07a8388ceba1ad6de9c86e77412664736f6c634300080d003360806040523480156200001157600080fd5b506040518060400160405280600c81526020017f43726f776446756e64696e6700000000000000000000000000000000000000008152506040518060400160405280600381526020017f43465400000000000000000000000000000000000000000000000000000000008152508160039080519060200190620000969291906200033b565b508060049080519060200190620000af9291906200033b565b505050620000d2620000c6620000eb60201b60201c565b620000f360201b60201c565b620000e5336000620001b960201b60201c565b62000596565b600033905090565b6000600560009054906101000a900473ffffffffffffffffffffffffffffffffffffffff16905081600560006101000a81548173ffffffffffffffffffffffffffffffffffffffff021916908373ffffffffffffffffffffffffffffffffffffffff1602179055508173ffffffffffffffffffffffffffffffffffffffff168173ffffffffffffffffffffffffffffffffffffffff167f8be0079c531659141344cd1fd0a4f28419497f9722a3daafe3b4186f6b6457e060405160405180910390a35050565b600073ffffffffffffffffffffffffffffffffffffffff168273ffffffffffffffffffffffffffffffffffffffff16036200022b576040517f08c379a000000000000000000000000000000000000000000000000000000000815260040162000222906200044c565b60405180910390fd5b6200023f600083836200033160201b60201c565b8060026000828254620002539190620004a7565b92505081905550806000808473ffffffffffffffffffffffffffffffffffffffff1673ffffffffffffffffffffffffffffffffffffffff1681526020019081526020016000206000828254620002aa9190620004a7565b925050819055508173ffffffffffffffffffffffffffffffffffffffff16600073ffffffffffffffffffffffffffffffffffffffff167fddf252ad1be2c89b69c2b068fc378daa952ba7f163c4a11628f55a4df523b3ef8360405162000311919062000515565b60405180910390a36200032d600083836200033660201b60201c565b5050565b505050565b505050565b828054620003499062000561565b90600052602060002090601f0160209004810192826200036d5760008555620003b9565b82601f106200038857805160ff1916838001178555620003b9565b82800160010185558215620003b9579182015b82811115620003b85782518255916020019190600101906200039b565b5b509050620003c89190620003cc565b5090565b5b80821115620003e7576000816000905550600101620003cd565b5090565b600082825260208201905092915050565b7f45524332303a206d696e7420746f20746865207a65726f206164647265737300600082015250565b600062000434601f83620003eb565b91506200044182620003fc565b602082019050919050565b60006020820190508181036000830152620004678162000425565b9050919050565b6000819050919050565b7f4e487b7100000000000000000000000000000000000000000000000000000000600052601160045260246000fd5b6000620004b4826200046e565b9150620004c1836200046e565b9250827fffffffffffffffffffffffffffffffffffffffffffffffffffffffffffffffff03821115620004f957620004f862000478565b5b828201905092915050565b6200050f816200046e565b82525050565b60006020820190506200052c600083018462000504565b92915050565b7f4e487b7100000000000000000000000000000000000000000000000000000000600052602260045260246000fd5b600060028204905060018216806200057a57607f821691505b60208210810362000590576200058f62000532565b5b50919050565b611a3480620005a66000396000f3fe608060405234801561001057600080fd5b50600436106101005760003560e01c8063715018a611610097578063a457c2d711610066578063a457c2d7146102b1578063a9059cbb146102e1578063dd62ed3e14610311578063f2fde38b1461034157610100565b8063715018a61461023b5780637c524ffc146102455780638da5cb5b1461027557806395d89b411461029357610100565b8063313ce567116100d3578063313ce567146101a157806339509351146101bf57806340c10f19146101ef57806370a082311461020b57610100565b806306fdde0314610105578063095ea7b31461012357806318160ddd1461015357806323b872dd14610171575b600080fd5b61010d61035d565b60405161011a919061115b565b60405180910390f35b61013d60048036038101906101389190611216565b6103ef565b60405161014a9190611271565b60405180910390f35b61015b610412565b604051610168919061129b565b60405180910390f35b61018b600480360381019061018691906112b6565b61041c565b6040516101989190611271565b60405180910390f35b6101a961044b565b6040516101b69190611325565b60405180910390f35b6101d960048036038101906101d49190611216565b610454565b6040516101e69190611271565b60405180910390f35b61020960048036038101906102049190611216565b6104fe565b005b61022560048036038101906102209190611340565b610588565b604051610232919061129b565b60405180910390f35b6102436105d0565b005b61025f600480360381019061025a91906112b6565b610658565b60405161026c9190611271565b60405180910390f35b61027d610670565b60405161028a919061137c565b60405180910390f35b61029b61069a565b6040516102a8919061115b565b60405180910390f35b6102cb60048036038101906102c69190611216565b61072c565b6040516102d89190611271565b60405180910390f35b6102fb60048036038101906102f69190611216565b610816565b6040516103089190611271565b60405180910390f35b61032b60048036038101906103269190611397565b610839565b604051610338919061129b565b60405180910390f35b61035b60048036038101906103569190611340565b6108c0565b005b60606003805461036c90611406565b80601f016020809104026020016040519081016040528092919081815260200182805461039890611406565b80156103e55780601f106103ba576101008083540402835291602001916103e5565b820191906000526020600020905b8154815290600101906020018083116103c857829003601f168201915b5050505050905090565b6000806103fa6109b7565b90506104078185856109bf565b600191505092915050565b6000600254905090565b6000806104276109b7565b9050610434858285610b88565b61043f858585610c14565b60019150509392505050565b60006012905090565b60008061045f6109b7565b90506104f3818585600160008673ffffffffffffffffffffffffffffffffffffffff1673ffffffffffffffffffffffffffffffffffffffff16815260200190815260200160002060008973ffffffffffffffffffffffffffffffffffffffff1673ffffffffffffffffffffffffffffffffffffffff168152602001908152602001600020546104ee9190611466565b6109bf565b600191505092915050565b6105066109b7565b73ffffffffffffffffffffffffffffffffffffffff16610524610670565b73ffffffffffffffffffffffffffffffffffffffff161461057a576040517f08c379a000000000000000000000000000000000000000000000000000000000815260040161057190611508565b60405180910390fd5b6105848282610e93565b5050565b60008060008373ffffffffffffffffffffffffffffffffffffffff1673ffffffffffffffffffffffffffffffffffffffff168152602001908152602001600020549050919050565b6105d86109b7565b73ffffffffffffffffffffffffffffffffffffffff166105f6610670565b73ffffffffffffffffffffffffffffffffffffffff161461064c576040517f08c379a000000000000000000000000000000000000000000000000000000000815260040161064390611508565b60405180910390fd5b6106566000610ff2565b565b6000610665848484610c14565b600190509392505050565b6000600560009054906101000a900473ffffffffffffffffffffffffffffffffffffffff16905090565b6060600480546106a990611406565b80601f01602080910402602001604051908101604052809291908181526020018280546106d590611406565b80156107225780601f106106f757610100808354040283529160200191610722565b820191906000526020600020905b81548152906001019060200180831161070557829003601f168201915b5050505050905090565b6000806107376109b7565b90506000600160008373ffffffffffffffffffffffffffffffffffffffff1673ffffffffffffffffffffffffffffffffffffffff16815260200190815260200160002060008673ffffffffffffffffffffffffffffffffffffffff1673ffffffffffffffffffffffffffffffffffffffff168152602001908152602001600020549050838110156107fd576040517f08c379a00000000000000000000000000000000000000000000000000000000081526004016107f49061159a565b60405180910390fd5b61080a82868684036109bf565b60019250505092915050565b6000806108216109b7565b905061082e818585610c14565b600191505092915050565b6000600160008473ffffffffffffffffffffffffffffffffffffffff1673ffffffffffffffffffffffffffffffffffffffff16815260200190815260200160002060008373ffffffffffffffffffffffffffffffffffffffff1673ffffffffffffffffffffffffffffffffffffffff16815260200190815260200160002054905092915050565b6108c86109b7565b73ffffffffffffffffffffffffffffffffffffffff166108e6610670565b73ffffffffffffffffffffffffffffffffffffffff161461093c576040517f08c379a000000000000000000000000000000000000000000000000000000000815260040161093390611508565b60405180910390fd5b600073ffffffffffffffffffffffffffffffffffffffff168173ffffffffffffffffffffffffffffffffffffffff16036109ab576040517f08c379a00000000000000000000000000000000000000000000000000000000081526004016109a29061162c565b60405180910390fd5b6109b481610ff2565b50565b600033905090565b600073ffffffffffffffffffffffffffffffffffffffff168373ffffffffffffffffffffffffffffffffffffffff1603610a2e576040517f08c379a0000000000000000000000000000000000000000000000000000000008152600401610a25906116be565b60405180910390fd5b600073ffffffffffffffffffffffffffffffffffffffff168273ffffffffffffffffffffffffffffffffffffffff1603610a9d576040517f08c379a0000000000000000000000000000000000000000000000000000000008152600401610a9490611750565b60405180910390fd5b80600160008573ffffffffffffffffffffffffffffffffffffffff1673ffffffffffffffffffffffffffffffffffffffff16815260200190815260200160002060008473ffffffffffffffffffffffffffffffffffffffff1673ffffffffffffffffffffffffffffffffffffffff168152602001908152602001600020819055508173ffffffffffffffffffffffffffffffffffffffff168373ffffffffffffffffffffffffffffffffffffffff167f8c5be1e5ebec7d5bd14f71427d1e84f3dd0314c0f7b2291e5b200ac8c7c3b92583604051610b7b919061129b565b60405180910390a3505050565b6000610b948484610839565b90507fffffffffffffffffffffffffffffffffffffffffffffffffffffffffffffffff8114610c0e5781811015610c00576040517f08c379a0000000000000000000000000000000000000000000000000000000008152600401610bf7906117bc565b60405180910390fd5b610c0d84848484036109bf565b5b50505050565b600073ffffffffffffffffffffffffffffffffffffffff168373ffffffffffffffffffffffffffffffffffffffff1603610c83576040517f08c379a0000000000000000000000000000000000000000000000000000000008152600401610c7a9061184e565b60405180910390fd5b600073ffffffffffffffffffffffffffffffffffffffff168273ffffffffffffffffffffffffffffffffffffffff1603610cf2576040517f08c379a0000000000000000000000000000000000000000000000000000000008152600401610ce9906118e0565b60405180910390fd5b610cfd8383836110b8565b60008060008573ffffffffffffffffffffffffffffffffffffffff1673ffffffffffffffffffffffffffffffffffffffff16815260200190815260200160002054905081811015610d83576040517f08c379a0000000000000000000000000000000000000000000000000000000008152600401610d7a90611972565b60405180910390fd5b8181036000808673ffffffffffffffffffffffffffffffffffffffff1673ffffffffffffffffffffffffffffffffffffffff16815260200190815260200160002081905550816000808573ffffffffffffffffffffffffffffffffffffffff1673ffffffffffffffffffffffffffffffffffffffff1681526020019081526020016000206000828254610e169190611466565b925050819055508273ffffffffffffffffffffffffffffffffffffffff168473ffffffffffffffffffffffffffffffffffffffff167fddf252ad1be2c89b69c2b068fc378daa952ba7f163c4a11628f55a4df523b3ef84604051610e7a919061129b565b60405180910390a3610e8d8484846110bd565b50505050565b600073ffffffffffffffffffffffffffffffffffffffff168273ffffffffffffffffffffffffffffffffffffffff1603610f02576040517f08c379a0000000000000000000000000000000000000000000000000000000008152600401610ef9906119de565b60405180910390fd5b610f0e600083836110b8565b8060026000828254610f209190611466565b92505081905550806000808473ffffffffffffffffffffffffffffffffffffffff1673ffffffffffffffffffffffffffffffffffffffff1681526020019081526020016000206000828254610f759190611466565b925050819055508173ffffffffffffffffffffffffffffffffffffffff16600073ffffffffffffffffffffffffffffffffffffffff167fddf252ad1be2c89b69c2b068fc378daa952ba7f163c4a11628f55a4df523b3ef83604051610fda919061129b565b60405180910390a3610fee600083836110bd565b5050565b6000600560009054906101000a900473ffffffffffffffffffffffffffffffffffffffff16905081600560006101000a81548173ffffffffffffffffffffffffffffffffffffffff021916908373ffffffffffffffffffffffffffffffffffffffff1602179055508173ffffffffffffffffffffffffffffffffffffffff168173ffffffffffffffffffffffffffffffffffffffff167f8be0079c531659141344cd1fd0a4f28419497f9722a3daafe3b4186f6b6457e060405160405180910390a35050565b505050565b505050565b600081519050919050565b600082825260208201905092915050565b60005b838110156110fc5780820151818401526020810190506110e1565b8381111561110b576000848401525b50505050565b6000601f19601f8301169050919050565b600061112d826110c2565b61113781856110cd565b93506111478185602086016110de565b61115081611111565b840191505092915050565b600060208201905081810360008301526111758184611122565b905092915050565b600080fd5b600073ffffffffffffffffffffffffffffffffffffffff82169050919050565b60006111ad82611182565b9050919050565b6111bd816111a2565b81146111c857600080fd5b50565b6000813590506111da816111b4565b92915050565b6000819050919050565b6111f3816111e0565b81146111fe57600080fd5b50565b600081359050611210816111ea565b92915050565b6000806040838503121561122d5761122c61117d565b5b600061123b858286016111cb565b925050602061124c85828601611201565b9150509250929050565b60008115159050919050565b61126b81611256565b82525050565b60006020820190506112866000830184611262565b92915050565b611295816111e0565b82525050565b60006020820190506112b0600083018461128c565b92915050565b6000806000606084860312156112cf576112ce61117d565b5b60006112dd868287016111cb565b93505060206112ee868287016111cb565b92505060406112ff86828701611201565b9150509250925092565b600060ff82169050919050565b61131f81611309565b82525050565b600060208201905061133a6000830184611316565b92915050565b6000602082840312156113565761135561117d565b5b6000611364848285016111cb565b91505092915050565b611376816111a2565b82525050565b6000602082019050611391600083018461136d565b92915050565b600080604083850312156113ae576113ad61117d565b5b60006113bc858286016111cb565b92505060206113cd858286016111cb565b9150509250929050565b7f4e487b7100000000000000000000000000000000000000000000000000000000600052602260045260246000fd5b6000600282049050600182168061141e57607f821691505b602082108103611431576114306113d7565b5b50919050565b7f4e487b7100000000000000000000000000000000000000000000000000000000600052601160045260246000fd5b6000611471826111e0565b915061147c836111e0565b9250827fffffffffffffffffffffffffffffffffffffffffffffffffffffffffffffffff038211156114b1576114b0611437565b5b828201905092915050565b7f4f776e61626c653a2063616c6c6572206973206e6f7420746865206f776e6572600082015250565b60006114f26020836110cd565b91506114fd826114bc565b602082019050919050565b60006020820190508181036000830152611521816114e5565b9050919050565b7f45524332303a2064656372656173656420616c6c6f77616e63652062656c6f7760008201527f207a65726f000000000000000000000000000000000000000000000000000000602082015250565b60006115846025836110cd565b915061158f82611528565b604082019050919050565b600060208201905081810360008301526115b381611577565b9050919050565b7f4f776e61626c653a206e6577206f776e657220697320746865207a65726f206160008201527f6464726573730000000000000000000000000000000000000000000000000000602082015250565b60006116166026836110cd565b9150611621826115ba565b604082019050919050565b6000602082019050818103600083015261164581611609565b9050919050565b7f45524332303a20617070726f76652066726f6d20746865207a65726f2061646460008201527f7265737300000000000000000000000000000000000000000000000000000000602082015250565b60006116a86024836110cd565b91506116b38261164c565b604082019050919050565b600060208201905081810360008301526116d78161169b565b9050919050565b7f45524332303a20617070726f766520746f20746865207a65726f20616464726560008201527f7373000000000000000000000000000000000000000000000000000000000000602082015250565b600061173a6022836110cd565b9150611745826116de565b604082019050919050565b600060208201905081810360008301526117698161172d565b9050919050565b7f45524332303a20696e73756666696369656e7420616c6c6f77616e6365000000600082015250565b60006117a6601d836110cd565b91506117b182611770565b602082019050919050565b600060208201905081810360008301526117d581611799565b9050919050565b7f45524332303a207472616e736665722066726f6d20746865207a65726f20616460008201527f6472657373000000000000000000000000000000000000000000000000000000602082015250565b60006118386025836110cd565b9150611843826117dc565b604082019050919050565b600060208201905081810360008301526118678161182b565b9050919050565b7f45524332303a207472616e7366657220746f20746865207a65726f206164647260008201527f6573730000000000000000000000000000000000000000000000000000000000602082015250565b60006118ca6023836110cd565b91506118d58261186e565b604082019050919050565b600060208201905081810360008301526118f9816118bd565b9050919050565b7f45524332303a207472616e7366657220616d6f756e742065786365656473206260008201527f616c616e63650000000000000000000000000000000000000000000000000000602082015250565b600061195c6026836110cd565b915061196782611900565b604082019050919050565b6000602082019050818103600083015261198b8161194f565b9050919050565b7f45524332303a206d696e7420746f20746865207a65726f206164647265737300600082015250565b60006119c8601f836110cd565b91506119d382611992565b602082019050919050565b600060208201905081810360008301526119f7816119bb565b905091905056fea264697066735822122033d2c7cc872f3326e32e24c0ac8a259f7504cebac96ead558615378774d5172264736f6c634300080d0033",
  "immutableReferences": {},
  "source": "// SPDX-License-Identifier: MIT\n\nimport \"./CrowdFundingTOKEN.sol\";\nimport \"@openzeppelin/contracts/access/Ownable.sol\";\nimport \"@openzeppelin/contracts/utils/Counters.sol\";\n\npragma solidity ^0.8.0;\n\ncontract CrowdFunding is Ownable {\n    CrowdFundingTOKEN private _token;\n    string private _name;\n    uint256 private _cantTokenForExchange;\n    uint256 private _cantTokenToTheWinner;\n    bool private _stateCanFund;\n    uint256 private _priceTokenCFT;\n    uint256 private _priceTicketLottery;\n    using Counters for Counters.Counter;\n    Counters.Counter private _numberTicket;\n    mapping (address => uint256 []) _Address_ListNumberTicketMap;\n    mapping (uint256 => address) _numberTicketAssigned_AddressMap;\n\n    struct WinnerLotteryStruct{\n        address accountWinner;\n        uint256 numberWinner; \n    }\n    WinnerLotteryStruct private _winnerLotteryStruct;\n    \n    constructor() {\n        _token = new CrowdFundingTOKEN();\n        _name = \"\";\n        _stateCanFund = false;\n        _token.approve(address(this), 0);\n        _priceTokenCFT = 1 ether;\n        _priceTicketLottery = 2;\n    }\n\n    function setNameCrowdFunding(string memory name) public onlyOwner {\n        // Verifica que el Nombre no sea nulo\n        require(bytes(name).length > 0);        \n        _name = name;        \n    }\n\n    function getDataCrowdFunding() external view returns (string memory, uint256,uint256, bool, uint256) {        \n        return (_name, _cantTokenForExchange, _cantTokenToTheWinner, _stateCanFund, _token.totalSupply());\n    }\n\n    function getPriceTokenCFT() external view returns(uint256) {\n        return _priceTokenCFT;\n    }\n\n    function getPriceTicketLottery() external view returns(uint256) {\n        return _priceTicketLottery;\n    }\n\n    function getTotalGeneratedToken() external view returns (uint256) {\n        return _token.totalSupply();\n    }\n\n    function addToken(uint256 cantAddTokenForExchange, \n        uint256 cantAddTokenToTheWinner) external onlyOwner {\n\n        // Verifica valores validos\n        require(cantAddTokenForExchange > 0);\n        require(cantAddTokenToTheWinner >= 0);\n\n        _token.mint(\n                msg.sender, \n                cantAddTokenForExchange + \n                cantAddTokenToTheWinner)\n        ;\n        _cantTokenForExchange = _cantTokenForExchange + cantAddTokenForExchange;\n        _cantTokenToTheWinner = _cantTokenToTheWinner + cantAddTokenToTheWinner;\n        _token.increaseAllowance(address(this), _cantTokenForExchange);\n    }\n\n    function openCrowdFunding() external onlyOwner {\n        _stateCanFund = true;\n    }\n\n    function closeCrowdFunding() external  onlyOwner {\n        _stateCanFund = false;\n    }\n\n    function getBalanceCFT(address account) view external returns (uint256){\n        return _token.balanceOf(account);\n    }\n\n    function getBalanceCrowdFundingETH() view external returns(uint256){\n        return (address(this).balance);\n    }\n\n    function buyToken(address payable _buyer, uint cantToken) external payable {\n        uint totalPriceToken = _priceTokenCFT * cantToken;\n        require(msg.value >= totalPriceToken);\n        require(_cantTokenForExchange > 0);        \n\n        uint returnValue = msg.value - totalPriceToken;\n        if (returnValue > 0){\n            _buyer.transfer(returnValue);\n        }                    \n\n        _token.transferCFT(owner(), msg.sender, cantToken);\n        _cantTokenForExchange -= cantToken;\n    }\n\n    function buyTicketLottery() external {                \n        require(_stateCanFund == true);\n        require(this.getBalanceCFT(msg.sender) >= this.getPriceTicketLottery());\n\n        _numberTicket.increment();\n        _Address_ListNumberTicketMap[msg.sender].push(_numberTicket.current());\n        _numberTicketAssigned_AddressMap[_numberTicket.current()] = msg.sender;\n\n        _token.transferCFT(msg.sender, address(this), this.getPriceTicketLottery());\n\n    }\n\n    function getCantTicketTotalLottery() view external returns(uint256) {        \n        return _numberTicket.current();\n    }\n\n    function getCantTicketLotteryFromAccount(address account) view external returns(uint256) {\n        return _Address_ListNumberTicketMap[account].length;\n    }\n    \n    function getAddressFromNumberLotteryAssigned(\n        uint256 _number) view public returns(address) {\n        return _numberTicketAssigned_AddressMap[_number];\n    }\n\n    function getListNumberTicketAssigned(address account) view external returns(uint256 [] memory) {\n        return _Address_ListNumberTicketMap[account];\n    }\n\n    function makeLottery() external onlyOwner{\n    //verificar que est cerrado el crowdfundiong\n    //verificar que haya nmero vendidos\n    //generar el random con el nmero mximo de venta\n    //devolver tokenes a todos los participantes\n    //darle al ganador el premio\n    require(_numberTicket.current()>0);\n    uint numberWinner = uint(uint(keccak256(abi.encodePacked(block.timestamp))) % _numberTicket.current());\n\n    _winnerLotteryStruct.accountWinner = getAddressFromNumberLotteryAssigned(numberWinner);\n    _winnerLotteryStruct.numberWinner = numberWinner;\n    }\n\n    function getWinnerLottery() external view returns(WinnerLotteryStruct memory) {\n        return _winnerLotteryStruct;\n    }\n}",
  "sourcePath": "/home/ubuntu/dev/tpfunir/contracts/CrowdFunding.sol",
  "compiler": {
    "name": "solc",
    "version": "0.8.13+commit.abaa5c0e.Emscripten.clang"
  },
  "schemaVersion": "3.4.6",
  "updatedAt": "2022-04-03T16:14:52.680Z",
  "networkType": "ethereum",
  "devdoc": {
    "kind": "dev",
    "methods": {
      "owner()": {
        "details": "Returns the address of the current owner."
      },
      "renounceOwnership()": {
        "details": "Leaves the contract without owner. It will not be possible to call `onlyOwner` functions anymore. Can only be called by the current owner. NOTE: Renouncing ownership will leave the contract without an owner, thereby removing any functionality that is only available to the owner."
      },
      "transferOwnership(address)": {
        "details": "Transfers ownership of the contract to a new account (`newOwner`). Can only be called by the current owner."
      }
    },
    "version": 1
  },
  "userdoc": {
    "kind": "user",
    "methods": {},
    "version": 1
  }
}