{
  "contractName": "CrowdFunding",
  "abi": [
    {
      "inputs": [],
      "stateMutability": "nonpayable",
      "type": "constructor"
    },
    {
      "anonymous": false,
      "inputs": [
        {
          "indexed": true,
          "internalType": "address",
          "name": "previousOwner",
          "type": "address"
        },
        {
          "indexed": true,
          "internalType": "address",
          "name": "newOwner",
          "type": "address"
        }
      ],
      "name": "OwnershipTransferred",
      "type": "event"
    },
    {
      "inputs": [],
      "name": "owner",
      "outputs": [
        {
          "internalType": "address",
          "name": "",
          "type": "address"
        }
      ],
      "stateMutability": "view",
      "type": "function",
      "constant": true
    },
    {
      "inputs": [],
      "name": "renounceOwnership",
      "outputs": [],
      "stateMutability": "nonpayable",
      "type": "function"
    },
    {
      "inputs": [
        {
          "internalType": "address",
          "name": "newOwner",
          "type": "address"
        }
      ],
      "name": "transferOwnership",
      "outputs": [],
      "stateMutability": "nonpayable",
      "type": "function"
    },
    {
      "inputs": [
        {
          "internalType": "string",
          "name": "_name",
          "type": "string"
        }
      ],
      "name": "setNameCrowdFunding",
      "outputs": [],
      "stateMutability": "nonpayable",
      "type": "function"
    },
    {
      "inputs": [],
      "name": "getDataCrowdFunding",
      "outputs": [
        {
          "internalType": "string",
          "name": "",
          "type": "string"
        },
        {
          "internalType": "uint256",
          "name": "",
          "type": "uint256"
        },
        {
          "internalType": "uint256",
          "name": "",
          "type": "uint256"
        },
        {
          "internalType": "bool",
          "name": "",
          "type": "bool"
        },
        {
          "internalType": "uint256",
          "name": "",
          "type": "uint256"
        }
      ],
      "stateMutability": "view",
      "type": "function",
      "constant": true
    },
    {
      "inputs": [],
      "name": "getPriceTokenCFT",
      "outputs": [
        {
          "internalType": "uint256",
          "name": "",
          "type": "uint256"
        }
      ],
      "stateMutability": "view",
      "type": "function",
      "constant": true
    },
    {
      "inputs": [],
      "name": "getPriceTicketLottery",
      "outputs": [
        {
          "internalType": "uint256",
          "name": "",
          "type": "uint256"
        }
      ],
      "stateMutability": "view",
      "type": "function",
      "constant": true
    },
    {
      "inputs": [],
      "name": "totalToken",
      "outputs": [
        {
          "internalType": "uint256",
          "name": "",
          "type": "uint256"
        }
      ],
      "stateMutability": "view",
      "type": "function",
      "constant": true
    },
    {
      "inputs": [
        {
          "internalType": "uint256",
          "name": "_cantTokenForExchange",
          "type": "uint256"
        },
        {
          "internalType": "uint256",
          "name": "_cantTokenToTheWinner",
          "type": "uint256"
        }
      ],
      "name": "addToken",
      "outputs": [],
      "stateMutability": "nonpayable",
      "type": "function"
    },
    {
      "inputs": [],
      "name": "openCrowdFunding",
      "outputs": [],
      "stateMutability": "nonpayable",
      "type": "function"
    },
    {
      "inputs": [],
      "name": "closeCrowdFunding",
      "outputs": [],
      "stateMutability": "nonpayable",
      "type": "function"
    },
    {
      "inputs": [
        {
          "internalType": "address",
          "name": "account",
          "type": "address"
        }
      ],
      "name": "getBalanceCFT",
      "outputs": [
        {
          "internalType": "uint256",
          "name": "",
          "type": "uint256"
        }
      ],
      "stateMutability": "view",
      "type": "function",
      "constant": true
    },
    {
      "inputs": [],
      "name": "getBalanceCrowdFundingETH",
      "outputs": [
        {
          "internalType": "uint256",
          "name": "",
          "type": "uint256"
        }
      ],
      "stateMutability": "view",
      "type": "function",
      "constant": true
    },
    {
      "inputs": [
        {
          "internalType": "address payable",
          "name": "_buyer",
          "type": "address"
        },
        {
          "internalType": "uint256",
          "name": "cantToken",
          "type": "uint256"
        }
      ],
      "name": "buyToken",
      "outputs": [],
      "stateMutability": "payable",
      "type": "function",
      "payable": true
    },
    {
      "inputs": [],
      "name": "buyTicketLottery",
      "outputs": [],
      "stateMutability": "nonpayable",
      "type": "function"
    },
    {
      "inputs": [],
      "name": "getCantTicketTotalLottery",
      "outputs": [
        {
          "internalType": "uint256",
          "name": "",
          "type": "uint256"
        }
      ],
      "stateMutability": "view",
      "type": "function",
      "constant": true
    },
    {
      "inputs": [
        {
          "internalType": "address",
          "name": "account",
          "type": "address"
        }
      ],
      "name": "getAllNumberTicketLotteryPerson",
      "outputs": [
        {
          "internalType": "uint256[]",
          "name": "",
          "type": "uint256[]"
        }
      ],
      "stateMutability": "view",
      "type": "function",
      "constant": true
    },
    {
      "inputs": [
        {
          "internalType": "uint256",
          "name": "_number",
          "type": "uint256"
        }
      ],
      "name": "getAddressFromNumberLotteryAssigned",
      "outputs": [
        {
          "internalType": "address",
          "name": "",
          "type": "address"
        }
      ],
      "stateMutability": "view",
      "type": "function",
      "constant": true
    },
    {
      "inputs": [],
      "name": "closeCrowdFundingAndPickTheWinner",
      "outputs": [],
      "stateMutability": "nonpayable",
      "type": "function"
    }
  ],
  "bytecode": "0x60806040523480156200001157600080fd5b506200003262000026620001a560201b60201c565b620001ad60201b60201c565b604051620000409062000271565b604051809103906000f0801580156200005d573d6000803e3d6000fd5b50600160006101000a81548173ffffffffffffffffffffffffffffffffffffffff021916908373ffffffffffffffffffffffffffffffffffffffff1602179055506040518060200160405280600081525060029080519060200190620000c59291906200027f565b506000600560006101000a81548160ff021916908315150217905550600160009054906101000a900473ffffffffffffffffffffffffffffffffffffffff1673ffffffffffffffffffffffffffffffffffffffff1663095ea7b33060006040518363ffffffff1660e01b815260040162000141929190620003cb565b6020604051808303816000875af115801562000161573d6000803e3d6000fd5b505050506040513d601f19601f820116820180604052508101906200018791906200043a565b50670de0b6b3a76400006006819055506002600781905550620004d0565b600033905090565b60008060009054906101000a900473ffffffffffffffffffffffffffffffffffffffff169050816000806101000a81548173ffffffffffffffffffffffffffffffffffffffff021916908373ffffffffffffffffffffffffffffffffffffffff1602179055508173ffffffffffffffffffffffffffffffffffffffff168173ffffffffffffffffffffffffffffffffffffffff167f8be0079c531659141344cd1fd0a4f28419497f9722a3daafe3b4186f6b6457e060405160405180910390a35050565b611fda80620022d683390190565b8280546200028d906200049b565b90600052602060002090601f016020900481019282620002b15760008555620002fd565b82601f10620002cc57805160ff1916838001178555620002fd565b82800160010185558215620002fd579182015b82811115620002fc578251825591602001919060010190620002df565b5b5090506200030c919062000310565b5090565b5b808211156200032b57600081600090555060010162000311565b5090565b600073ffffffffffffffffffffffffffffffffffffffff82169050919050565b60006200035c826200032f565b9050919050565b6200036e816200034f565b82525050565b6000819050919050565b6000819050919050565b6000819050919050565b6000620003b3620003ad620003a78462000374565b62000388565b6200037e565b9050919050565b620003c58162000392565b82525050565b6000604082019050620003e2600083018562000363565b620003f16020830184620003ba565b9392505050565b600080fd5b60008115159050919050565b6200041481620003fd565b81146200042057600080fd5b50565b600081519050620004348162000409565b92915050565b600060208284031215620004535762000452620003f8565b5b6000620004638482850162000423565b91505092915050565b7f4e487b7100000000000000000000000000000000000000000000000000000000600052602260045260246000fd5b60006002820490506001821680620004b457607f821691505b602082108103620004ca57620004c96200046c565b5b50919050565b611df680620004e06000396000f3fe6080604052600436106101145760003560e01c806389beb665116100a0578063d00cb60011610064578063d00cb60014610320578063d488e5741461034b578063d91cd86014610376578063dac4eedb146103a5578063f2fde38b146103e257610114565b806389beb665146102735780638da5cb5b1461028a5780639292b460146102b5578063b4e6dc62146102de578063c0e1bba2146102f557610114565b8063626be567116100e7578063626be567146101c157806367b3fa11146101ec57806368f8fc1014610203578063715018a61461021f5780637274762b1461023657610114565b8063075df4cf14610119578063134c6ba91461015657806317b9ebec1461016d5780634983e9a514610196575b600080fd5b34801561012557600080fd5b50610140600480360381019061013b919061142e565b61040b565b60405161014d9190611523565b60405180910390f35b34801561016257600080fd5b5061016b6104a2565b005b34801561017957600080fd5b50610194600480360381019061018f9190611571565b61053b565b005b3480156101a257600080fd5b506101ab61073b565b6040516101b891906115c0565b60405180910390f35b3480156101cd57600080fd5b506101d6610745565b6040516101e391906115c0565b60405180910390f35b3480156101f857600080fd5b506102016107dd565b005b61021d60048036038101906102189190611619565b61090a565b005b34801561022b57600080fd5b50610234610a64565b005b34801561024257600080fd5b5061025d60048036038101906102589190611659565b610aec565b60405161026a9190611695565b60405180910390f35b34801561027f57600080fd5b50610288610b29565b005b34801561029657600080fd5b5061029f610bc2565b6040516102ac9190611695565b60405180910390f35b3480156102c157600080fd5b506102dc60048036038101906102d791906117f6565b610beb565b005b3480156102ea57600080fd5b506102f3610c8f565b005b34801561030157600080fd5b5061030a610f1c565b60405161031791906115c0565b60405180910390f35b34801561032c57600080fd5b50610335610f2d565b60405161034291906115c0565b60405180910390f35b34801561035757600080fd5b50610360610f35565b60405161036d91906115c0565b60405180910390f35b34801561038257600080fd5b5061038b610f3f565b60405161039c9594939291906118e2565b60405180910390f35b3480156103b157600080fd5b506103cc60048036038101906103c7919061142e565b61108d565b6040516103d991906115c0565b60405180910390f35b3480156103ee57600080fd5b506104096004803603810190610404919061142e565b611132565b005b6060600960008373ffffffffffffffffffffffffffffffffffffffff1673ffffffffffffffffffffffffffffffffffffffff16815260200190815260200160002080548060200260200160405190810160405280929190818152602001828054801561049657602002820191906000526020600020905b815481526020019060010190808311610482575b50505050509050919050565b6104aa611229565b73ffffffffffffffffffffffffffffffffffffffff166104c8610bc2565b73ffffffffffffffffffffffffffffffffffffffff161461051e576040517f08c379a000000000000000000000000000000000000000000000000000000000815260040161051590611988565b60405180910390fd5b6000600560006101000a81548160ff021916908315150217905550565b610543611229565b73ffffffffffffffffffffffffffffffffffffffff16610561610bc2565b73ffffffffffffffffffffffffffffffffffffffff16146105b7576040517f08c379a00000000000000000000000000000000000000000000000000000000081526004016105ae90611988565b60405180910390fd5b600082116105c457600080fd5b60008110156105d257600080fd5b600160009054906101000a900473ffffffffffffffffffffffffffffffffffffffff1673ffffffffffffffffffffffffffffffffffffffff166340c10f1933838561061d91906119d7565b6040518363ffffffff1660e01b815260040161063a929190611a2d565b600060405180830381600087803b15801561065457600080fd5b505af1158015610668573d6000803e3d6000fd5b505050508160035461067a91906119d7565b6003819055508060045461068e91906119d7565b600481905550600160009054906101000a900473ffffffffffffffffffffffffffffffffffffffff1673ffffffffffffffffffffffffffffffffffffffff166339509351306003546040518363ffffffff1660e01b81526004016106f3929190611a2d565b6020604051808303816000875af1158015610712573d6000803e3d6000fd5b505050506040513d601f19601f820116820180604052508101906107369190611a82565b505050565b6000600754905090565b6000600160009054906101000a900473ffffffffffffffffffffffffffffffffffffffff1673ffffffffffffffffffffffffffffffffffffffff166318160ddd6040518163ffffffff1660e01b8152600401602060405180830381865afa1580156107b4573d6000803e3d6000fd5b505050506040513d601f19601f820116820180604052508101906107d89190611ac4565b905090565b6107e5611229565b73ffffffffffffffffffffffffffffffffffffffff16610803610bc2565b73ffffffffffffffffffffffffffffffffffffffff1614610859576040517f08c379a000000000000000000000000000000000000000000000000000000000815260040161085090611988565b60405180910390fd5b60006108656008611231565b1161086f57600080fd5b600061087b6008611231565b4260405160200161088c9190611b12565b6040516020818303038152906040528051906020012060001c6108af9190611b5c565b90506108ba81610aec565b600b60000160006101000a81548173ffffffffffffffffffffffffffffffffffffffff021916908373ffffffffffffffffffffffffffffffffffffffff16021790555080600b6001018190555050565b60065434101561091957600080fd5b60006003541161092857600080fd5b6000816006546109389190611b8d565b9050600081346109489190611be7565b9050600081111561099b578373ffffffffffffffffffffffffffffffffffffffff166108fc829081150290604051600060405180830381858888f19350505050158015610999573d6000803e3d6000fd5b505b600160009054906101000a900473ffffffffffffffffffffffffffffffffffffffff1673ffffffffffffffffffffffffffffffffffffffff16637c524ffc6109e1610bc2565b33866040518463ffffffff1660e01b8152600401610a0193929190611c1b565b6020604051808303816000875af1158015610a20573d6000803e3d6000fd5b505050506040513d601f19601f82011682018060405250810190610a449190611a82565b508260036000828254610a579190611be7565b9250508190555050505050565b610a6c611229565b73ffffffffffffffffffffffffffffffffffffffff16610a8a610bc2565b73ffffffffffffffffffffffffffffffffffffffff1614610ae0576040517f08c379a0000000000000000000000000000000000000000000000000000000008152600401610ad790611988565b60405180910390fd5b610aea600061123f565b565b6000600a600083815260200190815260200160002060009054906101000a900473ffffffffffffffffffffffffffffffffffffffff169050919050565b610b31611229565b73ffffffffffffffffffffffffffffffffffffffff16610b4f610bc2565b73ffffffffffffffffffffffffffffffffffffffff1614610ba5576040517f08c379a0000000000000000000000000000000000000000000000000000000008152600401610b9c90611988565b60405180910390fd5b6001600560006101000a81548160ff021916908315150217905550565b60008060009054906101000a900473ffffffffffffffffffffffffffffffffffffffff16905090565b610bf3611229565b73ffffffffffffffffffffffffffffffffffffffff16610c11610bc2565b73ffffffffffffffffffffffffffffffffffffffff1614610c67576040517f08c379a0000000000000000000000000000000000000000000000000000000008152600401610c5e90611988565b60405180910390fd5b6000815111610c7557600080fd5b8060029080519060200190610c8b929190611319565b5050565b60011515600560009054906101000a900460ff16151514610caf57600080fd5b3073ffffffffffffffffffffffffffffffffffffffff16634983e9a56040518163ffffffff1660e01b8152600401602060405180830381865afa158015610cfa573d6000803e3d6000fd5b505050506040513d601f19601f82011682018060405250810190610d1e9190611ac4565b3073ffffffffffffffffffffffffffffffffffffffff1663dac4eedb336040518263ffffffff1660e01b8152600401610d579190611695565b602060405180830381865afa158015610d74573d6000803e3d6000fd5b505050506040513d601f19601f82011682018060405250810190610d989190611ac4565b11610da257600080fd5b610dac6008611303565b600960003373ffffffffffffffffffffffffffffffffffffffff1673ffffffffffffffffffffffffffffffffffffffff168152602001908152602001600020610df56008611231565b908060018154018082558091505060019003906000526020600020016000909190919091505533600a6000610e2a6008611231565b815260200190815260200160002060006101000a81548173ffffffffffffffffffffffffffffffffffffffff021916908373ffffffffffffffffffffffffffffffffffffffff160217905550600160009054906101000a900473ffffffffffffffffffffffffffffffffffffffff1673ffffffffffffffffffffffffffffffffffffffff16637c524ffc333060026040518463ffffffff1660e01b8152600401610ed693929190611c97565b6020604051808303816000875af1158015610ef5573d6000803e3d6000fd5b505050506040513d601f19601f82011682018060405250810190610f199190611a82565b50565b6000610f286008611231565b905090565b600047905090565b6000600654905090565b60606000806000806002600354600454600560009054906101000a900460ff16600160009054906101000a900473ffffffffffffffffffffffffffffffffffffffff1673ffffffffffffffffffffffffffffffffffffffff166318160ddd6040518163ffffffff1660e01b8152600401602060405180830381865afa158015610fcc573d6000803e3d6000fd5b505050506040513d601f19601f82011682018060405250810190610ff09190611ac4565b848054610ffc90611cfd565b80601f016020809104026020016040519081016040528092919081815260200182805461102890611cfd565b80156110755780601f1061104a57610100808354040283529160200191611075565b820191906000526020600020905b81548152906001019060200180831161105857829003601f168201915b50505050509450945094509450945094509091929394565b6000600160009054906101000a900473ffffffffffffffffffffffffffffffffffffffff1673ffffffffffffffffffffffffffffffffffffffff166370a08231836040518263ffffffff1660e01b81526004016110ea9190611695565b602060405180830381865afa158015611107573d6000803e3d6000fd5b505050506040513d601f19601f8201168201806040525081019061112b9190611ac4565b9050919050565b61113a611229565b73ffffffffffffffffffffffffffffffffffffffff16611158610bc2565b73ffffffffffffffffffffffffffffffffffffffff16146111ae576040517f08c379a00000000000000000000000000000000000000000000000000000000081526004016111a590611988565b60405180910390fd5b600073ffffffffffffffffffffffffffffffffffffffff168173ffffffffffffffffffffffffffffffffffffffff160361121d576040517f08c379a000000000000000000000000000000000000000000000000000000000815260040161121490611da0565b60405180910390fd5b6112268161123f565b50565b600033905090565b600081600001549050919050565b60008060009054906101000a900473ffffffffffffffffffffffffffffffffffffffff169050816000806101000a81548173ffffffffffffffffffffffffffffffffffffffff021916908373ffffffffffffffffffffffffffffffffffffffff1602179055508173ffffffffffffffffffffffffffffffffffffffff168173ffffffffffffffffffffffffffffffffffffffff167f8be0079c531659141344cd1fd0a4f28419497f9722a3daafe3b4186f6b6457e060405160405180910390a35050565b6001816000016000828254019250508190555050565b82805461132590611cfd565b90600052602060002090601f016020900481019282611347576000855561138e565b82601f1061136057805160ff191683800117855561138e565b8280016001018555821561138e579182015b8281111561138d578251825591602001919060010190611372565b5b50905061139b919061139f565b5090565b5b808211156113b85760008160009055506001016113a0565b5090565b6000604051905090565b600080fd5b600080fd5b600073ffffffffffffffffffffffffffffffffffffffff82169050919050565b60006113fb826113d0565b9050919050565b61140b816113f0565b811461141657600080fd5b50565b60008135905061142881611402565b92915050565b600060208284031215611444576114436113c6565b5b600061145284828501611419565b91505092915050565b600081519050919050565b600082825260208201905092915050565b6000819050602082019050919050565b6000819050919050565b61149a81611487565b82525050565b60006114ac8383611491565b60208301905092915050565b6000602082019050919050565b60006114d08261145b565b6114da8185611466565b93506114e583611477565b8060005b838110156115165781516114fd88826114a0565b9750611508836114b8565b9250506001810190506114e9565b5085935050505092915050565b6000602082019050818103600083015261153d81846114c5565b905092915050565b61154e81611487565b811461155957600080fd5b50565b60008135905061156b81611545565b92915050565b60008060408385031215611588576115876113c6565b5b60006115968582860161155c565b92505060206115a78582860161155c565b9150509250929050565b6115ba81611487565b82525050565b60006020820190506115d560008301846115b1565b92915050565b60006115e6826113d0565b9050919050565b6115f6816115db565b811461160157600080fd5b50565b600081359050611613816115ed565b92915050565b600080604083850312156116305761162f6113c6565b5b600061163e85828601611604565b925050602061164f8582860161155c565b9150509250929050565b60006020828403121561166f5761166e6113c6565b5b600061167d8482850161155c565b91505092915050565b61168f816113f0565b82525050565b60006020820190506116aa6000830184611686565b92915050565b600080fd5b600080fd5b6000601f19601f8301169050919050565b7f4e487b7100000000000000000000000000000000000000000000000000000000600052604160045260246000fd5b611703826116ba565b810181811067ffffffffffffffff82111715611722576117216116cb565b5b80604052505050565b60006117356113bc565b905061174182826116fa565b919050565b600067ffffffffffffffff821115611761576117606116cb565b5b61176a826116ba565b9050602081019050919050565b82818337600083830152505050565b600061179961179484611746565b61172b565b9050828152602081018484840111156117b5576117b46116b5565b5b6117c0848285611777565b509392505050565b600082601f8301126117dd576117dc6116b0565b5b81356117ed848260208601611786565b91505092915050565b60006020828403121561180c5761180b6113c6565b5b600082013567ffffffffffffffff81111561182a576118296113cb565b5b611836848285016117c8565b91505092915050565b600081519050919050565b600082825260208201905092915050565b60005b8381101561187957808201518184015260208101905061185e565b83811115611888576000848401525b50505050565b60006118998261183f565b6118a3818561184a565b93506118b381856020860161185b565b6118bc816116ba565b840191505092915050565b60008115159050919050565b6118dc816118c7565b82525050565b600060a08201905081810360008301526118fc818861188e565b905061190b60208301876115b1565b61191860408301866115b1565b61192560608301856118d3565b61193260808301846115b1565b9695505050505050565b7f4f776e61626c653a2063616c6c6572206973206e6f7420746865206f776e6572600082015250565b600061197260208361184a565b915061197d8261193c565b602082019050919050565b600060208201905081810360008301526119a181611965565b9050919050565b7f4e487b7100000000000000000000000000000000000000000000000000000000600052601160045260246000fd5b60006119e282611487565b91506119ed83611487565b9250827fffffffffffffffffffffffffffffffffffffffffffffffffffffffffffffffff03821115611a2257611a216119a8565b5b828201905092915050565b6000604082019050611a426000830185611686565b611a4f60208301846115b1565b9392505050565b611a5f816118c7565b8114611a6a57600080fd5b50565b600081519050611a7c81611a56565b92915050565b600060208284031215611a9857611a976113c6565b5b6000611aa684828501611a6d565b91505092915050565b600081519050611abe81611545565b92915050565b600060208284031215611ada57611ad96113c6565b5b6000611ae884828501611aaf565b91505092915050565b6000819050919050565b611b0c611b0782611487565b611af1565b82525050565b6000611b1e8284611afb565b60208201915081905092915050565b7f4e487b7100000000000000000000000000000000000000000000000000000000600052601260045260246000fd5b6000611b6782611487565b9150611b7283611487565b925082611b8257611b81611b2d565b5b828206905092915050565b6000611b9882611487565b9150611ba383611487565b9250817fffffffffffffffffffffffffffffffffffffffffffffffffffffffffffffffff0483118215151615611bdc57611bdb6119a8565b5b828202905092915050565b6000611bf282611487565b9150611bfd83611487565b925082821015611c1057611c0f6119a8565b5b828203905092915050565b6000606082019050611c306000830186611686565b611c3d6020830185611686565b611c4a60408301846115b1565b949350505050565b6000819050919050565b6000819050919050565b6000611c81611c7c611c7784611c52565b611c5c565b611487565b9050919050565b611c9181611c66565b82525050565b6000606082019050611cac6000830186611686565b611cb96020830185611686565b611cc66040830184611c88565b949350505050565b7f4e487b7100000000000000000000000000000000000000000000000000000000600052602260045260246000fd5b60006002820490506001821680611d1557607f821691505b602082108103611d2857611d27611cce565b5b50919050565b7f4f776e61626c653a206e6577206f776e657220697320746865207a65726f206160008201527f6464726573730000000000000000000000000000000000000000000000000000602082015250565b6000611d8a60268361184a565b9150611d9582611d2e565b604082019050919050565b60006020820190508181036000830152611db981611d7d565b905091905056fea26469706673582212209a5dc0d11fb3f0ee8b22bb9df36513f02c7fba710f3fd7ee8fcb9f45ffd5840864736f6c634300080d003360806040523480156200001157600080fd5b506040518060400160405280600c81526020017f43726f776446756e64696e6700000000000000000000000000000000000000008152506040518060400160405280600381526020017f43465400000000000000000000000000000000000000000000000000000000008152508160039080519060200190620000969291906200033b565b508060049080519060200190620000af9291906200033b565b505050620000d2620000c6620000eb60201b60201c565b620000f360201b60201c565b620000e5336000620001b960201b60201c565b62000596565b600033905090565b6000600560009054906101000a900473ffffffffffffffffffffffffffffffffffffffff16905081600560006101000a81548173ffffffffffffffffffffffffffffffffffffffff021916908373ffffffffffffffffffffffffffffffffffffffff1602179055508173ffffffffffffffffffffffffffffffffffffffff168173ffffffffffffffffffffffffffffffffffffffff167f8be0079c531659141344cd1fd0a4f28419497f9722a3daafe3b4186f6b6457e060405160405180910390a35050565b600073ffffffffffffffffffffffffffffffffffffffff168273ffffffffffffffffffffffffffffffffffffffff16036200022b576040517f08c379a000000000000000000000000000000000000000000000000000000000815260040162000222906200044c565b60405180910390fd5b6200023f600083836200033160201b60201c565b8060026000828254620002539190620004a7565b92505081905550806000808473ffffffffffffffffffffffffffffffffffffffff1673ffffffffffffffffffffffffffffffffffffffff1681526020019081526020016000206000828254620002aa9190620004a7565b925050819055508173ffffffffffffffffffffffffffffffffffffffff16600073ffffffffffffffffffffffffffffffffffffffff167fddf252ad1be2c89b69c2b068fc378daa952ba7f163c4a11628f55a4df523b3ef8360405162000311919062000515565b60405180910390a36200032d600083836200033660201b60201c565b5050565b505050565b505050565b828054620003499062000561565b90600052602060002090601f0160209004810192826200036d5760008555620003b9565b82601f106200038857805160ff1916838001178555620003b9565b82800160010185558215620003b9579182015b82811115620003b85782518255916020019190600101906200039b565b5b509050620003c89190620003cc565b5090565b5b80821115620003e7576000816000905550600101620003cd565b5090565b600082825260208201905092915050565b7f45524332303a206d696e7420746f20746865207a65726f206164647265737300600082015250565b600062000434601f83620003eb565b91506200044182620003fc565b602082019050919050565b60006020820190508181036000830152620004678162000425565b9050919050565b6000819050919050565b7f4e487b7100000000000000000000000000000000000000000000000000000000600052601160045260246000fd5b6000620004b4826200046e565b9150620004c1836200046e565b9250827fffffffffffffffffffffffffffffffffffffffffffffffffffffffffffffffff03821115620004f957620004f862000478565b5b828201905092915050565b6200050f816200046e565b82525050565b60006020820190506200052c600083018462000504565b92915050565b7f4e487b7100000000000000000000000000000000000000000000000000000000600052602260045260246000fd5b600060028204905060018216806200057a57607f821691505b60208210810362000590576200058f62000532565b5b50919050565b611a3480620005a66000396000f3fe608060405234801561001057600080fd5b50600436106101005760003560e01c8063715018a611610097578063a457c2d711610066578063a457c2d7146102b1578063a9059cbb146102e1578063dd62ed3e14610311578063f2fde38b1461034157610100565b8063715018a61461023b5780637c524ffc146102455780638da5cb5b1461027557806395d89b411461029357610100565b8063313ce567116100d3578063313ce567146101a157806339509351146101bf57806340c10f19146101ef57806370a082311461020b57610100565b806306fdde0314610105578063095ea7b31461012357806318160ddd1461015357806323b872dd14610171575b600080fd5b61010d61035d565b60405161011a919061115b565b60405180910390f35b61013d60048036038101906101389190611216565b6103ef565b60405161014a9190611271565b60405180910390f35b61015b610412565b604051610168919061129b565b60405180910390f35b61018b600480360381019061018691906112b6565b61041c565b6040516101989190611271565b60405180910390f35b6101a961044b565b6040516101b69190611325565b60405180910390f35b6101d960048036038101906101d49190611216565b610454565b6040516101e69190611271565b60405180910390f35b61020960048036038101906102049190611216565b6104fe565b005b61022560048036038101906102209190611340565b610588565b604051610232919061129b565b60405180910390f35b6102436105d0565b005b61025f600480360381019061025a91906112b6565b610658565b60405161026c9190611271565b60405180910390f35b61027d610670565b60405161028a919061137c565b60405180910390f35b61029b61069a565b6040516102a8919061115b565b60405180910390f35b6102cb60048036038101906102c69190611216565b61072c565b6040516102d89190611271565b60405180910390f35b6102fb60048036038101906102f69190611216565b610816565b6040516103089190611271565b60405180910390f35b61032b60048036038101906103269190611397565b610839565b604051610338919061129b565b60405180910390f35b61035b60048036038101906103569190611340565b6108c0565b005b60606003805461036c90611406565b80601f016020809104026020016040519081016040528092919081815260200182805461039890611406565b80156103e55780601f106103ba576101008083540402835291602001916103e5565b820191906000526020600020905b8154815290600101906020018083116103c857829003601f168201915b5050505050905090565b6000806103fa6109b7565b90506104078185856109bf565b600191505092915050565b6000600254905090565b6000806104276109b7565b9050610434858285610b88565b61043f858585610c14565b60019150509392505050565b60006012905090565b60008061045f6109b7565b90506104f3818585600160008673ffffffffffffffffffffffffffffffffffffffff1673ffffffffffffffffffffffffffffffffffffffff16815260200190815260200160002060008973ffffffffffffffffffffffffffffffffffffffff1673ffffffffffffffffffffffffffffffffffffffff168152602001908152602001600020546104ee9190611466565b6109bf565b600191505092915050565b6105066109b7565b73ffffffffffffffffffffffffffffffffffffffff16610524610670565b73ffffffffffffffffffffffffffffffffffffffff161461057a576040517f08c379a000000000000000000000000000000000000000000000000000000000815260040161057190611508565b60405180910390fd5b6105848282610e93565b5050565b60008060008373ffffffffffffffffffffffffffffffffffffffff1673ffffffffffffffffffffffffffffffffffffffff168152602001908152602001600020549050919050565b6105d86109b7565b73ffffffffffffffffffffffffffffffffffffffff166105f6610670565b73ffffffffffffffffffffffffffffffffffffffff161461064c576040517f08c379a000000000000000000000000000000000000000000000000000000000815260040161064390611508565b60405180910390fd5b6106566000610ff2565b565b6000610665848484610c14565b600190509392505050565b6000600560009054906101000a900473ffffffffffffffffffffffffffffffffffffffff16905090565b6060600480546106a990611406565b80601f01602080910402602001604051908101604052809291908181526020018280546106d590611406565b80156107225780601f106106f757610100808354040283529160200191610722565b820191906000526020600020905b81548152906001019060200180831161070557829003601f168201915b5050505050905090565b6000806107376109b7565b90506000600160008373ffffffffffffffffffffffffffffffffffffffff1673ffffffffffffffffffffffffffffffffffffffff16815260200190815260200160002060008673ffffffffffffffffffffffffffffffffffffffff1673ffffffffffffffffffffffffffffffffffffffff168152602001908152602001600020549050838110156107fd576040517f08c379a00000000000000000000000000000000000000000000000000000000081526004016107f49061159a565b60405180910390fd5b61080a82868684036109bf565b60019250505092915050565b6000806108216109b7565b905061082e818585610c14565b600191505092915050565b6000600160008473ffffffffffffffffffffffffffffffffffffffff1673ffffffffffffffffffffffffffffffffffffffff16815260200190815260200160002060008373ffffffffffffffffffffffffffffffffffffffff1673ffffffffffffffffffffffffffffffffffffffff16815260200190815260200160002054905092915050565b6108c86109b7565b73ffffffffffffffffffffffffffffffffffffffff166108e6610670565b73ffffffffffffffffffffffffffffffffffffffff161461093c576040517f08c379a000000000000000000000000000000000000000000000000000000000815260040161093390611508565b60405180910390fd5b600073ffffffffffffffffffffffffffffffffffffffff168173ffffffffffffffffffffffffffffffffffffffff16036109ab576040517f08c379a00000000000000000000000000000000000000000000000000000000081526004016109a29061162c565b60405180910390fd5b6109b481610ff2565b50565b600033905090565b600073ffffffffffffffffffffffffffffffffffffffff168373ffffffffffffffffffffffffffffffffffffffff1603610a2e576040517f08c379a0000000000000000000000000000000000000000000000000000000008152600401610a25906116be565b60405180910390fd5b600073ffffffffffffffffffffffffffffffffffffffff168273ffffffffffffffffffffffffffffffffffffffff1603610a9d576040517f08c379a0000000000000000000000000000000000000000000000000000000008152600401610a9490611750565b60405180910390fd5b80600160008573ffffffffffffffffffffffffffffffffffffffff1673ffffffffffffffffffffffffffffffffffffffff16815260200190815260200160002060008473ffffffffffffffffffffffffffffffffffffffff1673ffffffffffffffffffffffffffffffffffffffff168152602001908152602001600020819055508173ffffffffffffffffffffffffffffffffffffffff168373ffffffffffffffffffffffffffffffffffffffff167f8c5be1e5ebec7d5bd14f71427d1e84f3dd0314c0f7b2291e5b200ac8c7c3b92583604051610b7b919061129b565b60405180910390a3505050565b6000610b948484610839565b90507fffffffffffffffffffffffffffffffffffffffffffffffffffffffffffffffff8114610c0e5781811015610c00576040517f08c379a0000000000000000000000000000000000000000000000000000000008152600401610bf7906117bc565b60405180910390fd5b610c0d84848484036109bf565b5b50505050565b600073ffffffffffffffffffffffffffffffffffffffff168373ffffffffffffffffffffffffffffffffffffffff1603610c83576040517f08c379a0000000000000000000000000000000000000000000000000000000008152600401610c7a9061184e565b60405180910390fd5b600073ffffffffffffffffffffffffffffffffffffffff168273ffffffffffffffffffffffffffffffffffffffff1603610cf2576040517f08c379a0000000000000000000000000000000000000000000000000000000008152600401610ce9906118e0565b60405180910390fd5b610cfd8383836110b8565b60008060008573ffffffffffffffffffffffffffffffffffffffff1673ffffffffffffffffffffffffffffffffffffffff16815260200190815260200160002054905081811015610d83576040517f08c379a0000000000000000000000000000000000000000000000000000000008152600401610d7a90611972565b60405180910390fd5b8181036000808673ffffffffffffffffffffffffffffffffffffffff1673ffffffffffffffffffffffffffffffffffffffff16815260200190815260200160002081905550816000808573ffffffffffffffffffffffffffffffffffffffff1673ffffffffffffffffffffffffffffffffffffffff1681526020019081526020016000206000828254610e169190611466565b925050819055508273ffffffffffffffffffffffffffffffffffffffff168473ffffffffffffffffffffffffffffffffffffffff167fddf252ad1be2c89b69c2b068fc378daa952ba7f163c4a11628f55a4df523b3ef84604051610e7a919061129b565b60405180910390a3610e8d8484846110bd565b50505050565b600073ffffffffffffffffffffffffffffffffffffffff168273ffffffffffffffffffffffffffffffffffffffff1603610f02576040517f08c379a0000000000000000000000000000000000000000000000000000000008152600401610ef9906119de565b60405180910390fd5b610f0e600083836110b8565b8060026000828254610f209190611466565b92505081905550806000808473ffffffffffffffffffffffffffffffffffffffff1673ffffffffffffffffffffffffffffffffffffffff1681526020019081526020016000206000828254610f759190611466565b925050819055508173ffffffffffffffffffffffffffffffffffffffff16600073ffffffffffffffffffffffffffffffffffffffff167fddf252ad1be2c89b69c2b068fc378daa952ba7f163c4a11628f55a4df523b3ef83604051610fda919061129b565b60405180910390a3610fee600083836110bd565b5050565b6000600560009054906101000a900473ffffffffffffffffffffffffffffffffffffffff16905081600560006101000a81548173ffffffffffffffffffffffffffffffffffffffff021916908373ffffffffffffffffffffffffffffffffffffffff1602179055508173ffffffffffffffffffffffffffffffffffffffff168173ffffffffffffffffffffffffffffffffffffffff167f8be0079c531659141344cd1fd0a4f28419497f9722a3daafe3b4186f6b6457e060405160405180910390a35050565b505050565b505050565b600081519050919050565b600082825260208201905092915050565b60005b838110156110fc5780820151818401526020810190506110e1565b8381111561110b576000848401525b50505050565b6000601f19601f8301169050919050565b600061112d826110c2565b61113781856110cd565b93506111478185602086016110de565b61115081611111565b840191505092915050565b600060208201905081810360008301526111758184611122565b905092915050565b600080fd5b600073ffffffffffffffffffffffffffffffffffffffff82169050919050565b60006111ad82611182565b9050919050565b6111bd816111a2565b81146111c857600080fd5b50565b6000813590506111da816111b4565b92915050565b6000819050919050565b6111f3816111e0565b81146111fe57600080fd5b50565b600081359050611210816111ea565b92915050565b6000806040838503121561122d5761122c61117d565b5b600061123b858286016111cb565b925050602061124c85828601611201565b9150509250929050565b60008115159050919050565b61126b81611256565b82525050565b60006020820190506112866000830184611262565b92915050565b611295816111e0565b82525050565b60006020820190506112b0600083018461128c565b92915050565b6000806000606084860312156112cf576112ce61117d565b5b60006112dd868287016111cb565b93505060206112ee868287016111cb565b92505060406112ff86828701611201565b9150509250925092565b600060ff82169050919050565b61131f81611309565b82525050565b600060208201905061133a6000830184611316565b92915050565b6000602082840312156113565761135561117d565b5b6000611364848285016111cb565b91505092915050565b611376816111a2565b82525050565b6000602082019050611391600083018461136d565b92915050565b600080604083850312156113ae576113ad61117d565b5b60006113bc858286016111cb565b92505060206113cd858286016111cb565b9150509250929050565b7f4e487b7100000000000000000000000000000000000000000000000000000000600052602260045260246000fd5b6000600282049050600182168061141e57607f821691505b602082108103611431576114306113d7565b5b50919050565b7f4e487b7100000000000000000000000000000000000000000000000000000000600052601160045260246000fd5b6000611471826111e0565b915061147c836111e0565b9250827fffffffffffffffffffffffffffffffffffffffffffffffffffffffffffffffff038211156114b1576114b0611437565b5b828201905092915050565b7f4f776e61626c653a2063616c6c6572206973206e6f7420746865206f776e6572600082015250565b60006114f26020836110cd565b91506114fd826114bc565b602082019050919050565b60006020820190508181036000830152611521816114e5565b9050919050565b7f45524332303a2064656372656173656420616c6c6f77616e63652062656c6f7760008201527f207a65726f000000000000000000000000000000000000000000000000000000602082015250565b60006115846025836110cd565b915061158f82611528565b604082019050919050565b600060208201905081810360008301526115b381611577565b9050919050565b7f4f776e61626c653a206e6577206f776e657220697320746865207a65726f206160008201527f6464726573730000000000000000000000000000000000000000000000000000602082015250565b60006116166026836110cd565b9150611621826115ba565b604082019050919050565b6000602082019050818103600083015261164581611609565b9050919050565b7f45524332303a20617070726f76652066726f6d20746865207a65726f2061646460008201527f7265737300000000000000000000000000000000000000000000000000000000602082015250565b60006116a86024836110cd565b91506116b38261164c565b604082019050919050565b600060208201905081810360008301526116d78161169b565b9050919050565b7f45524332303a20617070726f766520746f20746865207a65726f20616464726560008201527f7373000000000000000000000000000000000000000000000000000000000000602082015250565b600061173a6022836110cd565b9150611745826116de565b604082019050919050565b600060208201905081810360008301526117698161172d565b9050919050565b7f45524332303a20696e73756666696369656e7420616c6c6f77616e6365000000600082015250565b60006117a6601d836110cd565b91506117b182611770565b602082019050919050565b600060208201905081810360008301526117d581611799565b9050919050565b7f45524332303a207472616e736665722066726f6d20746865207a65726f20616460008201527f6472657373000000000000000000000000000000000000000000000000000000602082015250565b60006118386025836110cd565b9150611843826117dc565b604082019050919050565b600060208201905081810360008301526118678161182b565b9050919050565b7f45524332303a207472616e7366657220746f20746865207a65726f206164647260008201527f6573730000000000000000000000000000000000000000000000000000000000602082015250565b60006118ca6023836110cd565b91506118d58261186e565b604082019050919050565b600060208201905081810360008301526118f9816118bd565b9050919050565b7f45524332303a207472616e7366657220616d6f756e742065786365656473206260008201527f616c616e63650000000000000000000000000000000000000000000000000000602082015250565b600061195c6026836110cd565b915061196782611900565b604082019050919050565b6000602082019050818103600083015261198b8161194f565b9050919050565b7f45524332303a206d696e7420746f20746865207a65726f206164647265737300600082015250565b60006119c8601f836110cd565b91506119d382611992565b602082019050919050565b600060208201905081810360008301526119f7816119bb565b905091905056fea264697066735822122033d2c7cc872f3326e32e24c0ac8a259f7504cebac96ead558615378774d5172264736f6c634300080d0033",
  "immutableReferences": {},
  "source": "// SPDX-License-Identifier: MIT\n\nimport \"./CrowdFundingTOKEN.sol\";\nimport \"@openzeppelin/contracts/access/Ownable.sol\";\nimport \"@openzeppelin/contracts/utils/Counters.sol\";\n\npragma solidity ^0.8.0;\n\ncontract CrowdFunding is Ownable {\n    CrowdFundingTOKEN private token;\n    string private name;\n    uint256 private cantTokenForExchange;\n    uint256 private cantTokenToTheWinner;\n    bool private stateCanFund;\n    uint256 private priceTokenCFT;\n    uint256 private priceTicketLottery;\n    using Counters for Counters.Counter;\n    Counters.Counter private _numberTicket;\n    mapping (address => uint256 []) personAddress_NumberTicketMap;\n    mapping (uint256 => address) numberTicketAssigned_personAddressMap;\n\n    struct WinnerLottery{\n        address accountWinner;\n        uint256 numerWinner; \n    }\n    WinnerLottery private winnerLottery;\n    \n    constructor() {\n        token = new CrowdFundingTOKEN();\n        name = \"\";\n        stateCanFund = false;\n        token.approve(address(this), 0);\n        priceTokenCFT = 1 ether;\n        priceTicketLottery = 2;\n    }\n\n    function setNameCrowdFunding(string memory _name) public onlyOwner {\n        // Verifica que el Nombre no sea nulo\n        require(bytes(_name).length > 0);        \n        name = _name;        \n    }\n\n    function getDataCrowdFunding() public view returns (string memory, uint256,uint256, bool, uint256) {        \n        return (name, cantTokenForExchange, cantTokenToTheWinner, stateCanFund, token.totalSupply());\n    }\n\n    function getPriceTokenCFT() public view returns(uint256) {\n        return priceTokenCFT;\n    }\n\n    function getPriceTicketLottery() public view returns(uint256) {\n        return priceTicketLottery;\n    }\n\n    function totalToken() public view returns (uint256) {\n        return token.totalSupply();\n    }\n\n    function addToken(uint256 _cantTokenForExchange, \n        uint256 _cantTokenToTheWinner) public onlyOwner {\n\n        // Verifica valores validos\n        require(_cantTokenForExchange > 0);\n        require(_cantTokenToTheWinner >= 0);\n\n        token.mint(\n                msg.sender, \n                _cantTokenForExchange + \n                _cantTokenToTheWinner)\n        ;\n        cantTokenForExchange = cantTokenForExchange + _cantTokenForExchange;\n        cantTokenToTheWinner = cantTokenToTheWinner + _cantTokenToTheWinner;\n        token.increaseAllowance(address(this), cantTokenForExchange);\n    }\n\n    function openCrowdFunding() public onlyOwner {\n        stateCanFund = true;\n    }\n\n    function closeCrowdFunding() public  onlyOwner {\n        stateCanFund = false;\n    }\n\n    function getBalanceCFT(address account) view public returns (uint256){\n        return token.balanceOf(account);\n    }\n\n    function getBalanceCrowdFundingETH() view public returns(uint256){\n        return (address(this).balance);\n    }\n\n    function buyToken(address payable _buyer, uint cantToken) public payable {\n        require(msg.value >= priceTokenCFT);\n        require(cantTokenForExchange > 0);\n        uint totalPriceToken = priceTokenCFT * cantToken;\n\n        uint returnValue = msg.value - totalPriceToken;\n        if (returnValue > 0){\n            _buyer.transfer(returnValue);\n        }                    \n\n        token.transferCFT(owner(), msg.sender, cantToken);\n        cantTokenForExchange -= cantToken;\n    }\n\n    function buyTicketLottery() public {\n        // controlar que tenga token para comprar un ticket\n        // actualizar token juntado por venta        \n        require(stateCanFund == true);\n        require(this.getBalanceCFT(msg.sender) > this.getPriceTicketLottery());\n\n        _numberTicket.increment();\n        personAddress_NumberTicketMap[msg.sender].push(_numberTicket.current());\n        numberTicketAssigned_personAddressMap[_numberTicket.current()] = msg.sender;\n\n        token.transferCFT(msg.sender, address(this), 2);\n\n    }\n\n    function getCantTicketTotalLottery() view public returns(uint256) {        \n        return _numberTicket.current();\n    }\n\n    function getAllNumberTicketLotteryPerson(address account) view public returns(uint256 [] memory) {\n        return personAddress_NumberTicketMap[account];\n    }\n    \n    function getAddressFromNumberLotteryAssigned(\n        uint256 _number) view public returns(address) {\n        return numberTicketAssigned_personAddressMap[_number];\n    }\n\n    function closeCrowdFundingAndPickTheWinner() public onlyOwner{\n    //verificar que est abierto el crowdfundiong\n    //verificar que haya nmero vendidos\n    //generar el random con el nmero mximo de venta\n    //devolver tokenes a todos los participantes\n    //darle al ganador el premio\n    require(_numberTicket.current()>0);\n    uint numberWinner = uint(uint(keccak256(abi.encodePacked(block.timestamp))) % _numberTicket.current());\n\n    winnerLottery.accountWinner = getAddressFromNumberLotteryAssigned(numberWinner);\n    winnerLottery.numerWinner = numberWinner;\n\n    }\n}",
  "sourcePath": "/home/ubuntu/dev/tpfunir/contracts/CrowdFunding.sol",
  "compiler": {
    "name": "solc",
    "version": "0.8.13+commit.abaa5c0e.Emscripten.clang"
  },
  "schemaVersion": "3.4.6",
  "updatedAt": "2022-04-02T03:50:09.955Z",
  "networkType": "ethereum",
  "devdoc": {
    "kind": "dev",
    "methods": {
      "owner()": {
        "details": "Returns the address of the current owner."
      },
      "renounceOwnership()": {
        "details": "Leaves the contract without owner. It will not be possible to call `onlyOwner` functions anymore. Can only be called by the current owner. NOTE: Renouncing ownership will leave the contract without an owner, thereby removing any functionality that is only available to the owner."
      },
      "transferOwnership(address)": {
        "details": "Transfers ownership of the contract to a new account (`newOwner`). Can only be called by the current owner."
      }
    },
    "version": 1
  },
  "userdoc": {
    "kind": "user",
    "methods": {},
    "version": 1
  }
}