{
  "contractName": "CrowdFunding",
  "abi": [
    {
      "inputs": [],
      "stateMutability": "nonpayable",
      "type": "constructor"
    },
    {
      "anonymous": false,
      "inputs": [
        {
          "indexed": true,
          "internalType": "address",
          "name": "previousOwner",
          "type": "address"
        },
        {
          "indexed": true,
          "internalType": "address",
          "name": "newOwner",
          "type": "address"
        }
      ],
      "name": "OwnershipTransferred",
      "type": "event"
    },
    {
      "inputs": [],
      "name": "owner",
      "outputs": [
        {
          "internalType": "address",
          "name": "",
          "type": "address"
        }
      ],
      "stateMutability": "view",
      "type": "function",
      "constant": true
    },
    {
      "inputs": [],
      "name": "renounceOwnership",
      "outputs": [],
      "stateMutability": "nonpayable",
      "type": "function"
    },
    {
      "inputs": [
        {
          "internalType": "address",
          "name": "newOwner",
          "type": "address"
        }
      ],
      "name": "transferOwnership",
      "outputs": [],
      "stateMutability": "nonpayable",
      "type": "function"
    },
    {
      "inputs": [
        {
          "internalType": "string",
          "name": "_name",
          "type": "string"
        }
      ],
      "name": "setDataCrowdFunding",
      "outputs": [],
      "stateMutability": "nonpayable",
      "type": "function"
    },
    {
      "inputs": [],
      "name": "getDataCrowdFunding",
      "outputs": [
        {
          "internalType": "string",
          "name": "",
          "type": "string"
        },
        {
          "internalType": "uint256",
          "name": "",
          "type": "uint256"
        },
        {
          "internalType": "uint256",
          "name": "",
          "type": "uint256"
        }
      ],
      "stateMutability": "view",
      "type": "function",
      "constant": true
    },
    {
      "inputs": [],
      "name": "totalToken",
      "outputs": [
        {
          "internalType": "uint256",
          "name": "",
          "type": "uint256"
        }
      ],
      "stateMutability": "view",
      "type": "function",
      "constant": true
    },
    {
      "inputs": [
        {
          "internalType": "uint256",
          "name": "_cantTokenForExchange",
          "type": "uint256"
        },
        {
          "internalType": "uint256",
          "name": "_cantTokenToTheWinner",
          "type": "uint256"
        }
      ],
      "name": "addToken",
      "outputs": [],
      "stateMutability": "nonpayable",
      "type": "function"
    }
  ],
  "bytecode": "0x608060405234801561001057600080fd5b5061002d61002261009b60201b60201c565b6100a360201b60201c565b60405161003990610167565b604051809103906000f080158015610055573d6000803e3d6000fd5b50600160006101000a81548173ffffffffffffffffffffffffffffffffffffffff021916908373ffffffffffffffffffffffffffffffffffffffff160217905550610174565b600033905090565b60008060009054906101000a900473ffffffffffffffffffffffffffffffffffffffff169050816000806101000a81548173ffffffffffffffffffffffffffffffffffffffff021916908373ffffffffffffffffffffffffffffffffffffffff1602179055508173ffffffffffffffffffffffffffffffffffffffff168173ffffffffffffffffffffffffffffffffffffffff167f8be0079c531659141344cd1fd0a4f28419497f9722a3daafe3b4186f6b6457e060405160405180910390a35050565b611f8780610e8883390190565b610d05806101836000396000f3fe608060405234801561001057600080fd5b506004361061007d5760003560e01c8063715018a61161005b578063715018a6146100d85780638da5cb5b146100e2578063d91cd86014610100578063f2fde38b146101205761007d565b806317b9ebec14610082578063626be5671461009e5780636e19d646146100bc575b600080fd5b61009c6004803603810190610097919061070d565b61013c565b005b6100a6610256565b6040516100b3919061075c565b60405180910390f35b6100d660048036038101906100d191906108bd565b6102ee565b005b6100e0610308565b005b6100ea610390565b6040516100f79190610947565b60405180910390f35b6101086103b9565b604051610117939291906109ea565b60405180910390f35b61013a60048036038101906101359190610a54565b61045d565b005b610144610554565b73ffffffffffffffffffffffffffffffffffffffff16610162610390565b73ffffffffffffffffffffffffffffffffffffffff16146101b8576040517f08c379a00000000000000000000000000000000000000000000000000000000081526004016101af90610acd565b60405180910390fd5b600160009054906101000a900473ffffffffffffffffffffffffffffffffffffffff1673ffffffffffffffffffffffffffffffffffffffff166340c10f193383856102039190610b1c565b6040518363ffffffff1660e01b8152600401610220929190610b72565b600060405180830381600087803b15801561023a57600080fd5b505af115801561024e573d6000803e3d6000fd5b505050505050565b6000600160009054906101000a900473ffffffffffffffffffffffffffffffffffffffff1673ffffffffffffffffffffffffffffffffffffffff166318160ddd6040518163ffffffff1660e01b8152600401602060405180830381865afa1580156102c5573d6000803e3d6000fd5b505050506040513d601f19601f820116820180604052508101906102e99190610bb0565b905090565b8060029080519060200190610304929190610620565b5050565b610310610554565b73ffffffffffffffffffffffffffffffffffffffff1661032e610390565b73ffffffffffffffffffffffffffffffffffffffff1614610384576040517f08c379a000000000000000000000000000000000000000000000000000000000815260040161037b90610acd565b60405180910390fd5b61038e600061055c565b565b60008060009054906101000a900473ffffffffffffffffffffffffffffffffffffffff16905090565b606060008060026003546004548280546103d290610c0c565b80601f01602080910402602001604051908101604052809291908181526020018280546103fe90610c0c565b801561044b5780601f106104205761010080835404028352916020019161044b565b820191906000526020600020905b81548152906001019060200180831161042e57829003601f168201915b50505050509250925092509250909192565b610465610554565b73ffffffffffffffffffffffffffffffffffffffff16610483610390565b73ffffffffffffffffffffffffffffffffffffffff16146104d9576040517f08c379a00000000000000000000000000000000000000000000000000000000081526004016104d090610acd565b60405180910390fd5b600073ffffffffffffffffffffffffffffffffffffffff168173ffffffffffffffffffffffffffffffffffffffff1603610548576040517f08c379a000000000000000000000000000000000000000000000000000000000815260040161053f90610caf565b60405180910390fd5b6105518161055c565b50565b600033905090565b60008060009054906101000a900473ffffffffffffffffffffffffffffffffffffffff169050816000806101000a81548173ffffffffffffffffffffffffffffffffffffffff021916908373ffffffffffffffffffffffffffffffffffffffff1602179055508173ffffffffffffffffffffffffffffffffffffffff168173ffffffffffffffffffffffffffffffffffffffff167f8be0079c531659141344cd1fd0a4f28419497f9722a3daafe3b4186f6b6457e060405160405180910390a35050565b82805461062c90610c0c565b90600052602060002090601f01602090048101928261064e5760008555610695565b82601f1061066757805160ff1916838001178555610695565b82800160010185558215610695579182015b82811115610694578251825591602001919060010190610679565b5b5090506106a291906106a6565b5090565b5b808211156106bf5760008160009055506001016106a7565b5090565b6000604051905090565b600080fd5b600080fd5b6000819050919050565b6106ea816106d7565b81146106f557600080fd5b50565b600081359050610707816106e1565b92915050565b60008060408385031215610724576107236106cd565b5b6000610732858286016106f8565b9250506020610743858286016106f8565b9150509250929050565b610756816106d7565b82525050565b6000602082019050610771600083018461074d565b92915050565b600080fd5b600080fd5b6000601f19601f8301169050919050565b7f4e487b7100000000000000000000000000000000000000000000000000000000600052604160045260246000fd5b6107ca82610781565b810181811067ffffffffffffffff821117156107e9576107e8610792565b5b80604052505050565b60006107fc6106c3565b905061080882826107c1565b919050565b600067ffffffffffffffff82111561082857610827610792565b5b61083182610781565b9050602081019050919050565b82818337600083830152505050565b600061086061085b8461080d565b6107f2565b90508281526020810184848401111561087c5761087b61077c565b5b61088784828561083e565b509392505050565b600082601f8301126108a4576108a3610777565b5b81356108b484826020860161084d565b91505092915050565b6000602082840312156108d3576108d26106cd565b5b600082013567ffffffffffffffff8111156108f1576108f06106d2565b5b6108fd8482850161088f565b91505092915050565b600073ffffffffffffffffffffffffffffffffffffffff82169050919050565b600061093182610906565b9050919050565b61094181610926565b82525050565b600060208201905061095c6000830184610938565b92915050565b600081519050919050565b600082825260208201905092915050565b60005b8381101561099c578082015181840152602081019050610981565b838111156109ab576000848401525b50505050565b60006109bc82610962565b6109c6818561096d565b93506109d681856020860161097e565b6109df81610781565b840191505092915050565b60006060820190508181036000830152610a0481866109b1565b9050610a13602083018561074d565b610a20604083018461074d565b949350505050565b610a3181610926565b8114610a3c57600080fd5b50565b600081359050610a4e81610a28565b92915050565b600060208284031215610a6a57610a696106cd565b5b6000610a7884828501610a3f565b91505092915050565b7f4f776e61626c653a2063616c6c6572206973206e6f7420746865206f776e6572600082015250565b6000610ab760208361096d565b9150610ac282610a81565b602082019050919050565b60006020820190508181036000830152610ae681610aaa565b9050919050565b7f4e487b7100000000000000000000000000000000000000000000000000000000600052601160045260246000fd5b6000610b27826106d7565b9150610b32836106d7565b9250827fffffffffffffffffffffffffffffffffffffffffffffffffffffffffffffffff03821115610b6757610b66610aed565b5b828201905092915050565b6000604082019050610b876000830185610938565b610b94602083018461074d565b9392505050565b600081519050610baa816106e1565b92915050565b600060208284031215610bc657610bc56106cd565b5b6000610bd484828501610b9b565b91505092915050565b7f4e487b7100000000000000000000000000000000000000000000000000000000600052602260045260246000fd5b60006002820490506001821680610c2457607f821691505b602082108103610c3757610c36610bdd565b5b50919050565b7f4f776e61626c653a206e6577206f776e657220697320746865207a65726f206160008201527f6464726573730000000000000000000000000000000000000000000000000000602082015250565b6000610c9960268361096d565b9150610ca482610c3d565b604082019050919050565b60006020820190508181036000830152610cc881610c8c565b905091905056fea26469706673582212207473a529068b7af1eb6c9f93f173818c7372719d791bd6a7b26de3f76120b83564736f6c634300080d003360806040523480156200001157600080fd5b506040518060400160405280600c81526020017f43726f776446756e64696e6700000000000000000000000000000000000000008152506040518060400160405280600381526020017f43465400000000000000000000000000000000000000000000000000000000008152508160039080519060200190620000969291906200033b565b508060049080519060200190620000af9291906200033b565b505050620000d2620000c6620000eb60201b60201c565b620000f360201b60201c565b620000e5336000620001b960201b60201c565b62000596565b600033905090565b6000600560009054906101000a900473ffffffffffffffffffffffffffffffffffffffff16905081600560006101000a81548173ffffffffffffffffffffffffffffffffffffffff021916908373ffffffffffffffffffffffffffffffffffffffff1602179055508173ffffffffffffffffffffffffffffffffffffffff168173ffffffffffffffffffffffffffffffffffffffff167f8be0079c531659141344cd1fd0a4f28419497f9722a3daafe3b4186f6b6457e060405160405180910390a35050565b600073ffffffffffffffffffffffffffffffffffffffff168273ffffffffffffffffffffffffffffffffffffffff16036200022b576040517f08c379a000000000000000000000000000000000000000000000000000000000815260040162000222906200044c565b60405180910390fd5b6200023f600083836200033160201b60201c565b8060026000828254620002539190620004a7565b92505081905550806000808473ffffffffffffffffffffffffffffffffffffffff1673ffffffffffffffffffffffffffffffffffffffff1681526020019081526020016000206000828254620002aa9190620004a7565b925050819055508173ffffffffffffffffffffffffffffffffffffffff16600073ffffffffffffffffffffffffffffffffffffffff167fddf252ad1be2c89b69c2b068fc378daa952ba7f163c4a11628f55a4df523b3ef8360405162000311919062000515565b60405180910390a36200032d600083836200033660201b60201c565b5050565b505050565b505050565b828054620003499062000561565b90600052602060002090601f0160209004810192826200036d5760008555620003b9565b82601f106200038857805160ff1916838001178555620003b9565b82800160010185558215620003b9579182015b82811115620003b85782518255916020019190600101906200039b565b5b509050620003c89190620003cc565b5090565b5b80821115620003e7576000816000905550600101620003cd565b5090565b600082825260208201905092915050565b7f45524332303a206d696e7420746f20746865207a65726f206164647265737300600082015250565b600062000434601f83620003eb565b91506200044182620003fc565b602082019050919050565b60006020820190508181036000830152620004678162000425565b9050919050565b6000819050919050565b7f4e487b7100000000000000000000000000000000000000000000000000000000600052601160045260246000fd5b6000620004b4826200046e565b9150620004c1836200046e565b9250827fffffffffffffffffffffffffffffffffffffffffffffffffffffffffffffffff03821115620004f957620004f862000478565b5b828201905092915050565b6200050f816200046e565b82525050565b60006020820190506200052c600083018462000504565b92915050565b7f4e487b7100000000000000000000000000000000000000000000000000000000600052602260045260246000fd5b600060028204905060018216806200057a57607f821691505b60208210810362000590576200058f62000532565b5b50919050565b6119e180620005a66000396000f3fe608060405234801561001057600080fd5b50600436106100f55760003560e01c806370a0823111610097578063a457c2d711610066578063a457c2d714610276578063a9059cbb146102a6578063dd62ed3e146102d6578063f2fde38b14610306576100f5565b806370a0823114610200578063715018a6146102305780638da5cb5b1461023a57806395d89b4114610258576100f5565b806323b872dd116100d357806323b872dd14610166578063313ce5671461019657806339509351146101b457806340c10f19146101e4576100f5565b806306fdde03146100fa578063095ea7b31461011857806318160ddd14610148575b600080fd5b610102610322565b60405161010f9190611108565b60405180910390f35b610132600480360381019061012d91906111c3565b6103b4565b60405161013f919061121e565b60405180910390f35b6101506103d7565b60405161015d9190611248565b60405180910390f35b610180600480360381019061017b9190611263565b6103e1565b60405161018d919061121e565b60405180910390f35b61019e610410565b6040516101ab91906112d2565b60405180910390f35b6101ce60048036038101906101c991906111c3565b610419565b6040516101db919061121e565b60405180910390f35b6101fe60048036038101906101f991906111c3565b6104c3565b005b61021a600480360381019061021591906112ed565b61054d565b6040516102279190611248565b60405180910390f35b610238610595565b005b61024261061d565b60405161024f9190611329565b60405180910390f35b610260610647565b60405161026d9190611108565b60405180910390f35b610290600480360381019061028b91906111c3565b6106d9565b60405161029d919061121e565b60405180910390f35b6102c060048036038101906102bb91906111c3565b6107c3565b6040516102cd919061121e565b60405180910390f35b6102f060048036038101906102eb9190611344565b6107e6565b6040516102fd9190611248565b60405180910390f35b610320600480360381019061031b91906112ed565b61086d565b005b606060038054610331906113b3565b80601f016020809104026020016040519081016040528092919081815260200182805461035d906113b3565b80156103aa5780601f1061037f576101008083540402835291602001916103aa565b820191906000526020600020905b81548152906001019060200180831161038d57829003601f168201915b5050505050905090565b6000806103bf610964565b90506103cc81858561096c565b600191505092915050565b6000600254905090565b6000806103ec610964565b90506103f9858285610b35565b610404858585610bc1565b60019150509392505050565b60006012905090565b600080610424610964565b90506104b8818585600160008673ffffffffffffffffffffffffffffffffffffffff1673ffffffffffffffffffffffffffffffffffffffff16815260200190815260200160002060008973ffffffffffffffffffffffffffffffffffffffff1673ffffffffffffffffffffffffffffffffffffffff168152602001908152602001600020546104b39190611413565b61096c565b600191505092915050565b6104cb610964565b73ffffffffffffffffffffffffffffffffffffffff166104e961061d565b73ffffffffffffffffffffffffffffffffffffffff161461053f576040517f08c379a0000000000000000000000000000000000000000000000000000000008152600401610536906114b5565b60405180910390fd5b6105498282610e40565b5050565b60008060008373ffffffffffffffffffffffffffffffffffffffff1673ffffffffffffffffffffffffffffffffffffffff168152602001908152602001600020549050919050565b61059d610964565b73ffffffffffffffffffffffffffffffffffffffff166105bb61061d565b73ffffffffffffffffffffffffffffffffffffffff1614610611576040517f08c379a0000000000000000000000000000000000000000000000000000000008152600401610608906114b5565b60405180910390fd5b61061b6000610f9f565b565b6000600560009054906101000a900473ffffffffffffffffffffffffffffffffffffffff16905090565b606060048054610656906113b3565b80601f0160208091040260200160405190810160405280929190818152602001828054610682906113b3565b80156106cf5780601f106106a4576101008083540402835291602001916106cf565b820191906000526020600020905b8154815290600101906020018083116106b257829003601f168201915b5050505050905090565b6000806106e4610964565b90506000600160008373ffffffffffffffffffffffffffffffffffffffff1673ffffffffffffffffffffffffffffffffffffffff16815260200190815260200160002060008673ffffffffffffffffffffffffffffffffffffffff1673ffffffffffffffffffffffffffffffffffffffff168152602001908152602001600020549050838110156107aa576040517f08c379a00000000000000000000000000000000000000000000000000000000081526004016107a190611547565b60405180910390fd5b6107b7828686840361096c565b60019250505092915050565b6000806107ce610964565b90506107db818585610bc1565b600191505092915050565b6000600160008473ffffffffffffffffffffffffffffffffffffffff1673ffffffffffffffffffffffffffffffffffffffff16815260200190815260200160002060008373ffffffffffffffffffffffffffffffffffffffff1673ffffffffffffffffffffffffffffffffffffffff16815260200190815260200160002054905092915050565b610875610964565b73ffffffffffffffffffffffffffffffffffffffff1661089361061d565b73ffffffffffffffffffffffffffffffffffffffff16146108e9576040517f08c379a00000000000000000000000000000000000000000000000000000000081526004016108e0906114b5565b60405180910390fd5b600073ffffffffffffffffffffffffffffffffffffffff168173ffffffffffffffffffffffffffffffffffffffff1603610958576040517f08c379a000000000000000000000000000000000000000000000000000000000815260040161094f906115d9565b60405180910390fd5b61096181610f9f565b50565b600033905090565b600073ffffffffffffffffffffffffffffffffffffffff168373ffffffffffffffffffffffffffffffffffffffff16036109db576040517f08c379a00000000000000000000000000000000000000000000000000000000081526004016109d29061166b565b60405180910390fd5b600073ffffffffffffffffffffffffffffffffffffffff168273ffffffffffffffffffffffffffffffffffffffff1603610a4a576040517f08c379a0000000000000000000000000000000000000000000000000000000008152600401610a41906116fd565b60405180910390fd5b80600160008573ffffffffffffffffffffffffffffffffffffffff1673ffffffffffffffffffffffffffffffffffffffff16815260200190815260200160002060008473ffffffffffffffffffffffffffffffffffffffff1673ffffffffffffffffffffffffffffffffffffffff168152602001908152602001600020819055508173ffffffffffffffffffffffffffffffffffffffff168373ffffffffffffffffffffffffffffffffffffffff167f8c5be1e5ebec7d5bd14f71427d1e84f3dd0314c0f7b2291e5b200ac8c7c3b92583604051610b289190611248565b60405180910390a3505050565b6000610b4184846107e6565b90507fffffffffffffffffffffffffffffffffffffffffffffffffffffffffffffffff8114610bbb5781811015610bad576040517f08c379a0000000000000000000000000000000000000000000000000000000008152600401610ba490611769565b60405180910390fd5b610bba848484840361096c565b5b50505050565b600073ffffffffffffffffffffffffffffffffffffffff168373ffffffffffffffffffffffffffffffffffffffff1603610c30576040517f08c379a0000000000000000000000000000000000000000000000000000000008152600401610c27906117fb565b60405180910390fd5b600073ffffffffffffffffffffffffffffffffffffffff168273ffffffffffffffffffffffffffffffffffffffff1603610c9f576040517f08c379a0000000000000000000000000000000000000000000000000000000008152600401610c969061188d565b60405180910390fd5b610caa838383611065565b60008060008573ffffffffffffffffffffffffffffffffffffffff1673ffffffffffffffffffffffffffffffffffffffff16815260200190815260200160002054905081811015610d30576040517f08c379a0000000000000000000000000000000000000000000000000000000008152600401610d279061191f565b60405180910390fd5b8181036000808673ffffffffffffffffffffffffffffffffffffffff1673ffffffffffffffffffffffffffffffffffffffff16815260200190815260200160002081905550816000808573ffffffffffffffffffffffffffffffffffffffff1673ffffffffffffffffffffffffffffffffffffffff1681526020019081526020016000206000828254610dc39190611413565b925050819055508273ffffffffffffffffffffffffffffffffffffffff168473ffffffffffffffffffffffffffffffffffffffff167fddf252ad1be2c89b69c2b068fc378daa952ba7f163c4a11628f55a4df523b3ef84604051610e279190611248565b60405180910390a3610e3a84848461106a565b50505050565b600073ffffffffffffffffffffffffffffffffffffffff168273ffffffffffffffffffffffffffffffffffffffff1603610eaf576040517f08c379a0000000000000000000000000000000000000000000000000000000008152600401610ea69061198b565b60405180910390fd5b610ebb60008383611065565b8060026000828254610ecd9190611413565b92505081905550806000808473ffffffffffffffffffffffffffffffffffffffff1673ffffffffffffffffffffffffffffffffffffffff1681526020019081526020016000206000828254610f229190611413565b925050819055508173ffffffffffffffffffffffffffffffffffffffff16600073ffffffffffffffffffffffffffffffffffffffff167fddf252ad1be2c89b69c2b068fc378daa952ba7f163c4a11628f55a4df523b3ef83604051610f879190611248565b60405180910390a3610f9b6000838361106a565b5050565b6000600560009054906101000a900473ffffffffffffffffffffffffffffffffffffffff16905081600560006101000a81548173ffffffffffffffffffffffffffffffffffffffff021916908373ffffffffffffffffffffffffffffffffffffffff1602179055508173ffffffffffffffffffffffffffffffffffffffff168173ffffffffffffffffffffffffffffffffffffffff167f8be0079c531659141344cd1fd0a4f28419497f9722a3daafe3b4186f6b6457e060405160405180910390a35050565b505050565b505050565b600081519050919050565b600082825260208201905092915050565b60005b838110156110a957808201518184015260208101905061108e565b838111156110b8576000848401525b50505050565b6000601f19601f8301169050919050565b60006110da8261106f565b6110e4818561107a565b93506110f481856020860161108b565b6110fd816110be565b840191505092915050565b6000602082019050818103600083015261112281846110cf565b905092915050565b600080fd5b600073ffffffffffffffffffffffffffffffffffffffff82169050919050565b600061115a8261112f565b9050919050565b61116a8161114f565b811461117557600080fd5b50565b60008135905061118781611161565b92915050565b6000819050919050565b6111a08161118d565b81146111ab57600080fd5b50565b6000813590506111bd81611197565b92915050565b600080604083850312156111da576111d961112a565b5b60006111e885828601611178565b92505060206111f9858286016111ae565b9150509250929050565b60008115159050919050565b61121881611203565b82525050565b6000602082019050611233600083018461120f565b92915050565b6112428161118d565b82525050565b600060208201905061125d6000830184611239565b92915050565b60008060006060848603121561127c5761127b61112a565b5b600061128a86828701611178565b935050602061129b86828701611178565b92505060406112ac868287016111ae565b9150509250925092565b600060ff82169050919050565b6112cc816112b6565b82525050565b60006020820190506112e760008301846112c3565b92915050565b6000602082840312156113035761130261112a565b5b600061131184828501611178565b91505092915050565b6113238161114f565b82525050565b600060208201905061133e600083018461131a565b92915050565b6000806040838503121561135b5761135a61112a565b5b600061136985828601611178565b925050602061137a85828601611178565b9150509250929050565b7f4e487b7100000000000000000000000000000000000000000000000000000000600052602260045260246000fd5b600060028204905060018216806113cb57607f821691505b6020821081036113de576113dd611384565b5b50919050565b7f4e487b7100000000000000000000000000000000000000000000000000000000600052601160045260246000fd5b600061141e8261118d565b91506114298361118d565b9250827fffffffffffffffffffffffffffffffffffffffffffffffffffffffffffffffff0382111561145e5761145d6113e4565b5b828201905092915050565b7f4f776e61626c653a2063616c6c6572206973206e6f7420746865206f776e6572600082015250565b600061149f60208361107a565b91506114aa82611469565b602082019050919050565b600060208201905081810360008301526114ce81611492565b9050919050565b7f45524332303a2064656372656173656420616c6c6f77616e63652062656c6f7760008201527f207a65726f000000000000000000000000000000000000000000000000000000602082015250565b600061153160258361107a565b915061153c826114d5565b604082019050919050565b6000602082019050818103600083015261156081611524565b9050919050565b7f4f776e61626c653a206e6577206f776e657220697320746865207a65726f206160008201527f6464726573730000000000000000000000000000000000000000000000000000602082015250565b60006115c360268361107a565b91506115ce82611567565b604082019050919050565b600060208201905081810360008301526115f2816115b6565b9050919050565b7f45524332303a20617070726f76652066726f6d20746865207a65726f2061646460008201527f7265737300000000000000000000000000000000000000000000000000000000602082015250565b600061165560248361107a565b9150611660826115f9565b604082019050919050565b6000602082019050818103600083015261168481611648565b9050919050565b7f45524332303a20617070726f766520746f20746865207a65726f20616464726560008201527f7373000000000000000000000000000000000000000000000000000000000000602082015250565b60006116e760228361107a565b91506116f28261168b565b604082019050919050565b60006020820190508181036000830152611716816116da565b9050919050565b7f45524332303a20696e73756666696369656e7420616c6c6f77616e6365000000600082015250565b6000611753601d8361107a565b915061175e8261171d565b602082019050919050565b6000602082019050818103600083015261178281611746565b9050919050565b7f45524332303a207472616e736665722066726f6d20746865207a65726f20616460008201527f6472657373000000000000000000000000000000000000000000000000000000602082015250565b60006117e560258361107a565b91506117f082611789565b604082019050919050565b60006020820190508181036000830152611814816117d8565b9050919050565b7f45524332303a207472616e7366657220746f20746865207a65726f206164647260008201527f6573730000000000000000000000000000000000000000000000000000000000602082015250565b600061187760238361107a565b91506118828261181b565b604082019050919050565b600060208201905081810360008301526118a68161186a565b9050919050565b7f45524332303a207472616e7366657220616d6f756e742065786365656473206260008201527f616c616e63650000000000000000000000000000000000000000000000000000602082015250565b600061190960268361107a565b9150611914826118ad565b604082019050919050565b60006020820190508181036000830152611938816118fc565b9050919050565b7f45524332303a206d696e7420746f20746865207a65726f206164647265737300600082015250565b6000611975601f8361107a565b91506119808261193f565b602082019050919050565b600060208201905081810360008301526119a481611968565b905091905056fea2646970667358221220185608dd470f27818e53c0523257e0ce579274ee192194aa398c4af6fb9d26f564736f6c634300080d0033",
  "immutableReferences": {},
  "source": "// SPDX-License-Identifier: MIT\n\nimport \"./CrowdFundingTOKEN.sol\";\nimport \"@openzeppelin/contracts/access/Ownable.sol\";\n\npragma solidity ^0.8.0;\n\ncontract CrowdFunding is Ownable {\n    CrowdFundingTOKEN token;\n    string name;\n    uint256 cantTokenForExchange;\n    uint256 cantTokenToTheWinner;\n    \n    constructor() {\n        token = new CrowdFundingTOKEN();\n    }\n\n    function setDataCrowdFunding(string memory _name) public {\n        name = _name;\n    }\n\n    function getDataCrowdFunding() public view returns (string memory, uint256,uint256) {        \n        return (name, cantTokenForExchange, cantTokenToTheWinner);\n    }\n\n    function totalToken() public view returns (uint256) {\n        return token.totalSupply();\n    }\n\n    function addToken(uint256 _cantTokenForExchange, \n        uint256 _cantTokenToTheWinner) public onlyOwner {\n        token.mint(\n                msg.sender, \n                _cantTokenForExchange + \n                _cantTokenToTheWinner);\n    }\n}",
  "sourcePath": "/home/ubuntu/dev/tpfunir/contracts/CrowdFunding.sol",
  "compiler": {
    "name": "solc",
    "version": "0.8.13+commit.abaa5c0e.Emscripten.clang"
  },
  "schemaVersion": "3.4.6",
  "updatedAt": "2022-03-16T17:35:20.319Z",
  "networkType": "ethereum",
  "devdoc": {
    "kind": "dev",
    "methods": {
      "owner()": {
        "details": "Returns the address of the current owner."
      },
      "renounceOwnership()": {
        "details": "Leaves the contract without owner. It will not be possible to call `onlyOwner` functions anymore. Can only be called by the current owner. NOTE: Renouncing ownership will leave the contract without an owner, thereby removing any functionality that is only available to the owner."
      },
      "transferOwnership(address)": {
        "details": "Transfers ownership of the contract to a new account (`newOwner`). Can only be called by the current owner."
      }
    },
    "version": 1
  },
  "userdoc": {
    "kind": "user",
    "methods": {},
    "version": 1
  }
}