{
  "contractName": "CrowdFunding",
  "abi": [
    {
      "inputs": [],
      "stateMutability": "nonpayable",
      "type": "constructor"
    },
    {
      "anonymous": false,
      "inputs": [
        {
          "indexed": true,
          "internalType": "address",
          "name": "previousOwner",
          "type": "address"
        },
        {
          "indexed": true,
          "internalType": "address",
          "name": "newOwner",
          "type": "address"
        }
      ],
      "name": "OwnershipTransferred",
      "type": "event"
    },
    {
      "inputs": [],
      "name": "owner",
      "outputs": [
        {
          "internalType": "address",
          "name": "",
          "type": "address"
        }
      ],
      "stateMutability": "view",
      "type": "function",
      "constant": true
    },
    {
      "inputs": [],
      "name": "renounceOwnership",
      "outputs": [],
      "stateMutability": "nonpayable",
      "type": "function"
    },
    {
      "inputs": [
        {
          "internalType": "address",
          "name": "newOwner",
          "type": "address"
        }
      ],
      "name": "transferOwnership",
      "outputs": [],
      "stateMutability": "nonpayable",
      "type": "function"
    },
    {
      "inputs": [
        {
          "internalType": "string",
          "name": "_name",
          "type": "string"
        }
      ],
      "name": "setNameCrowdFunding",
      "outputs": [],
      "stateMutability": "nonpayable",
      "type": "function"
    },
    {
      "inputs": [],
      "name": "getDataCrowdFunding",
      "outputs": [
        {
          "internalType": "string",
          "name": "",
          "type": "string"
        },
        {
          "internalType": "uint256",
          "name": "",
          "type": "uint256"
        },
        {
          "internalType": "uint256",
          "name": "",
          "type": "uint256"
        },
        {
          "internalType": "bool",
          "name": "",
          "type": "bool"
        },
        {
          "internalType": "uint256",
          "name": "",
          "type": "uint256"
        }
      ],
      "stateMutability": "view",
      "type": "function",
      "constant": true
    },
    {
      "inputs": [],
      "name": "totalToken",
      "outputs": [
        {
          "internalType": "uint256",
          "name": "",
          "type": "uint256"
        }
      ],
      "stateMutability": "view",
      "type": "function",
      "constant": true
    },
    {
      "inputs": [
        {
          "internalType": "uint256",
          "name": "_cantTokenForExchange",
          "type": "uint256"
        },
        {
          "internalType": "uint256",
          "name": "_cantTokenToTheWinner",
          "type": "uint256"
        }
      ],
      "name": "addToken",
      "outputs": [],
      "stateMutability": "nonpayable",
      "type": "function"
    },
    {
      "inputs": [],
      "name": "openCrowdFunding",
      "outputs": [],
      "stateMutability": "nonpayable",
      "type": "function"
    },
    {
      "inputs": [],
      "name": "closeCrowdFunding",
      "outputs": [],
      "stateMutability": "nonpayable",
      "type": "function"
    }
  ],
  "bytecode": "0x60806040523480156200001157600080fd5b506200003262000026620000e760201b60201c565b620000ef60201b60201c565b6040516200004090620001b3565b604051809103906000f0801580156200005d573d6000803e3d6000fd5b50600160006101000a81548173ffffffffffffffffffffffffffffffffffffffff021916908373ffffffffffffffffffffffffffffffffffffffff1602179055506040518060200160405280600081525060029080519060200190620000c5929190620001c1565b506000600560006101000a81548160ff021916908315150217905550620002d5565b600033905090565b60008060009054906101000a900473ffffffffffffffffffffffffffffffffffffffff169050816000806101000a81548173ffffffffffffffffffffffffffffffffffffffff021916908373ffffffffffffffffffffffffffffffffffffffff1602179055508173ffffffffffffffffffffffffffffffffffffffff168173ffffffffffffffffffffffffffffffffffffffff167f8be0079c531659141344cd1fd0a4f28419497f9722a3daafe3b4186f6b6457e060405160405180910390a35050565b611f87806200127a83390190565b828054620001cf90620002a0565b90600052602060002090601f016020900481019282620001f357600085556200023f565b82601f106200020e57805160ff19168380011785556200023f565b828001600101855582156200023f579182015b828111156200023e57825182559160200191906001019062000221565b5b5090506200024e919062000252565b5090565b5b808211156200026d57600081600090555060010162000253565b5090565b7f4e487b7100000000000000000000000000000000000000000000000000000000600052602260045260246000fd5b60006002820490506001821680620002b957607f821691505b602082108103620002cf57620002ce62000271565b5b50919050565b610f9580620002e56000396000f3fe608060405234801561001057600080fd5b50600436106100935760003560e01c806389beb6651161006657806389beb665146100e65780638da5cb5b146100f05780639292b4601461010e578063d91cd8601461012a578063f2fde38b1461014c57610093565b8063134c6ba91461009857806317b9ebec146100a2578063626be567146100be578063715018a6146100dc575b600080fd5b6100a0610168565b005b6100bc60048036038101906100b79190610966565b610201565b005b6100c661035e565b6040516100d391906109b5565b60405180910390f35b6100e46103f6565b005b6100ee61047e565b005b6100f861049b565b6040516101059190610a11565b60405180910390f35b61012860048036038101906101239190610b72565b6104c4565b005b610132610568565b604051610143959493929190610c5e565b60405180910390f35b61016660048036038101906101619190610ce4565b6106b6565b005b6101706107ad565b73ffffffffffffffffffffffffffffffffffffffff1661018e61049b565b73ffffffffffffffffffffffffffffffffffffffff16146101e4576040517f08c379a00000000000000000000000000000000000000000000000000000000081526004016101db90610d5d565b60405180910390fd5b6000600560006101000a81548160ff021916908315150217905550565b6102096107ad565b73ffffffffffffffffffffffffffffffffffffffff1661022761049b565b73ffffffffffffffffffffffffffffffffffffffff161461027d576040517f08c379a000000000000000000000000000000000000000000000000000000000815260040161027490610d5d565b60405180910390fd5b6000821161028a57600080fd5b600081101561029857600080fd5b600160009054906101000a900473ffffffffffffffffffffffffffffffffffffffff1673ffffffffffffffffffffffffffffffffffffffff166340c10f193383856102e39190610dac565b6040518363ffffffff1660e01b8152600401610300929190610e02565b600060405180830381600087803b15801561031a57600080fd5b505af115801561032e573d6000803e3d6000fd5b50505050816003546103409190610dac565b600381905550806004546103549190610dac565b6004819055505050565b6000600160009054906101000a900473ffffffffffffffffffffffffffffffffffffffff1673ffffffffffffffffffffffffffffffffffffffff166318160ddd6040518163ffffffff1660e01b8152600401602060405180830381865afa1580156103cd573d6000803e3d6000fd5b505050506040513d601f19601f820116820180604052508101906103f19190610e40565b905090565b6103fe6107ad565b73ffffffffffffffffffffffffffffffffffffffff1661041c61049b565b73ffffffffffffffffffffffffffffffffffffffff1614610472576040517f08c379a000000000000000000000000000000000000000000000000000000000815260040161046990610d5d565b60405180910390fd5b61047c60006107b5565b565b6001600560006101000a81548160ff021916908315150217905550565b60008060009054906101000a900473ffffffffffffffffffffffffffffffffffffffff16905090565b6104cc6107ad565b73ffffffffffffffffffffffffffffffffffffffff166104ea61049b565b73ffffffffffffffffffffffffffffffffffffffff1614610540576040517f08c379a000000000000000000000000000000000000000000000000000000000815260040161053790610d5d565b60405180910390fd5b600081511161054e57600080fd5b8060029080519060200190610564929190610879565b5050565b60606000806000806002600354600454600560009054906101000a900460ff16600160009054906101000a900473ffffffffffffffffffffffffffffffffffffffff1673ffffffffffffffffffffffffffffffffffffffff166318160ddd6040518163ffffffff1660e01b8152600401602060405180830381865afa1580156105f5573d6000803e3d6000fd5b505050506040513d601f19601f820116820180604052508101906106199190610e40565b84805461062590610e9c565b80601f016020809104026020016040519081016040528092919081815260200182805461065190610e9c565b801561069e5780601f106106735761010080835404028352916020019161069e565b820191906000526020600020905b81548152906001019060200180831161068157829003601f168201915b50505050509450945094509450945094509091929394565b6106be6107ad565b73ffffffffffffffffffffffffffffffffffffffff166106dc61049b565b73ffffffffffffffffffffffffffffffffffffffff1614610732576040517f08c379a000000000000000000000000000000000000000000000000000000000815260040161072990610d5d565b60405180910390fd5b600073ffffffffffffffffffffffffffffffffffffffff168173ffffffffffffffffffffffffffffffffffffffff16036107a1576040517f08c379a000000000000000000000000000000000000000000000000000000000815260040161079890610f3f565b60405180910390fd5b6107aa816107b5565b50565b600033905090565b60008060009054906101000a900473ffffffffffffffffffffffffffffffffffffffff169050816000806101000a81548173ffffffffffffffffffffffffffffffffffffffff021916908373ffffffffffffffffffffffffffffffffffffffff1602179055508173ffffffffffffffffffffffffffffffffffffffff168173ffffffffffffffffffffffffffffffffffffffff167f8be0079c531659141344cd1fd0a4f28419497f9722a3daafe3b4186f6b6457e060405160405180910390a35050565b82805461088590610e9c565b90600052602060002090601f0160209004810192826108a757600085556108ee565b82601f106108c057805160ff19168380011785556108ee565b828001600101855582156108ee579182015b828111156108ed5782518255916020019190600101906108d2565b5b5090506108fb91906108ff565b5090565b5b80821115610918576000816000905550600101610900565b5090565b6000604051905090565b600080fd5b600080fd5b6000819050919050565b61094381610930565b811461094e57600080fd5b50565b6000813590506109608161093a565b92915050565b6000806040838503121561097d5761097c610926565b5b600061098b85828601610951565b925050602061099c85828601610951565b9150509250929050565b6109af81610930565b82525050565b60006020820190506109ca60008301846109a6565b92915050565b600073ffffffffffffffffffffffffffffffffffffffff82169050919050565b60006109fb826109d0565b9050919050565b610a0b816109f0565b82525050565b6000602082019050610a266000830184610a02565b92915050565b600080fd5b600080fd5b6000601f19601f8301169050919050565b7f4e487b7100000000000000000000000000000000000000000000000000000000600052604160045260246000fd5b610a7f82610a36565b810181811067ffffffffffffffff82111715610a9e57610a9d610a47565b5b80604052505050565b6000610ab161091c565b9050610abd8282610a76565b919050565b600067ffffffffffffffff821115610add57610adc610a47565b5b610ae682610a36565b9050602081019050919050565b82818337600083830152505050565b6000610b15610b1084610ac2565b610aa7565b905082815260208101848484011115610b3157610b30610a31565b5b610b3c848285610af3565b509392505050565b600082601f830112610b5957610b58610a2c565b5b8135610b69848260208601610b02565b91505092915050565b600060208284031215610b8857610b87610926565b5b600082013567ffffffffffffffff811115610ba657610ba561092b565b5b610bb284828501610b44565b91505092915050565b600081519050919050565b600082825260208201905092915050565b60005b83811015610bf5578082015181840152602081019050610bda565b83811115610c04576000848401525b50505050565b6000610c1582610bbb565b610c1f8185610bc6565b9350610c2f818560208601610bd7565b610c3881610a36565b840191505092915050565b60008115159050919050565b610c5881610c43565b82525050565b600060a0820190508181036000830152610c788188610c0a565b9050610c8760208301876109a6565b610c9460408301866109a6565b610ca16060830185610c4f565b610cae60808301846109a6565b9695505050505050565b610cc1816109f0565b8114610ccc57600080fd5b50565b600081359050610cde81610cb8565b92915050565b600060208284031215610cfa57610cf9610926565b5b6000610d0884828501610ccf565b91505092915050565b7f4f776e61626c653a2063616c6c6572206973206e6f7420746865206f776e6572600082015250565b6000610d47602083610bc6565b9150610d5282610d11565b602082019050919050565b60006020820190508181036000830152610d7681610d3a565b9050919050565b7f4e487b7100000000000000000000000000000000000000000000000000000000600052601160045260246000fd5b6000610db782610930565b9150610dc283610930565b9250827fffffffffffffffffffffffffffffffffffffffffffffffffffffffffffffffff03821115610df757610df6610d7d565b5b828201905092915050565b6000604082019050610e176000830185610a02565b610e2460208301846109a6565b9392505050565b600081519050610e3a8161093a565b92915050565b600060208284031215610e5657610e55610926565b5b6000610e6484828501610e2b565b91505092915050565b7f4e487b7100000000000000000000000000000000000000000000000000000000600052602260045260246000fd5b60006002820490506001821680610eb457607f821691505b602082108103610ec757610ec6610e6d565b5b50919050565b7f4f776e61626c653a206e6577206f776e657220697320746865207a65726f206160008201527f6464726573730000000000000000000000000000000000000000000000000000602082015250565b6000610f29602683610bc6565b9150610f3482610ecd565b604082019050919050565b60006020820190508181036000830152610f5881610f1c565b905091905056fea264697066735822122062296bf8975c9706eab300822da2f8de8e86ae90c2545954f5a54cf35f83add664736f6c634300080d003360806040523480156200001157600080fd5b506040518060400160405280600c81526020017f43726f776446756e64696e6700000000000000000000000000000000000000008152506040518060400160405280600381526020017f43465400000000000000000000000000000000000000000000000000000000008152508160039080519060200190620000969291906200033b565b508060049080519060200190620000af9291906200033b565b505050620000d2620000c6620000eb60201b60201c565b620000f360201b60201c565b620000e5336000620001b960201b60201c565b62000596565b600033905090565b6000600560009054906101000a900473ffffffffffffffffffffffffffffffffffffffff16905081600560006101000a81548173ffffffffffffffffffffffffffffffffffffffff021916908373ffffffffffffffffffffffffffffffffffffffff1602179055508173ffffffffffffffffffffffffffffffffffffffff168173ffffffffffffffffffffffffffffffffffffffff167f8be0079c531659141344cd1fd0a4f28419497f9722a3daafe3b4186f6b6457e060405160405180910390a35050565b600073ffffffffffffffffffffffffffffffffffffffff168273ffffffffffffffffffffffffffffffffffffffff16036200022b576040517f08c379a000000000000000000000000000000000000000000000000000000000815260040162000222906200044c565b60405180910390fd5b6200023f600083836200033160201b60201c565b8060026000828254620002539190620004a7565b92505081905550806000808473ffffffffffffffffffffffffffffffffffffffff1673ffffffffffffffffffffffffffffffffffffffff1681526020019081526020016000206000828254620002aa9190620004a7565b925050819055508173ffffffffffffffffffffffffffffffffffffffff16600073ffffffffffffffffffffffffffffffffffffffff167fddf252ad1be2c89b69c2b068fc378daa952ba7f163c4a11628f55a4df523b3ef8360405162000311919062000515565b60405180910390a36200032d600083836200033660201b60201c565b5050565b505050565b505050565b828054620003499062000561565b90600052602060002090601f0160209004810192826200036d5760008555620003b9565b82601f106200038857805160ff1916838001178555620003b9565b82800160010185558215620003b9579182015b82811115620003b85782518255916020019190600101906200039b565b5b509050620003c89190620003cc565b5090565b5b80821115620003e7576000816000905550600101620003cd565b5090565b600082825260208201905092915050565b7f45524332303a206d696e7420746f20746865207a65726f206164647265737300600082015250565b600062000434601f83620003eb565b91506200044182620003fc565b602082019050919050565b60006020820190508181036000830152620004678162000425565b9050919050565b6000819050919050565b7f4e487b7100000000000000000000000000000000000000000000000000000000600052601160045260246000fd5b6000620004b4826200046e565b9150620004c1836200046e565b9250827fffffffffffffffffffffffffffffffffffffffffffffffffffffffffffffffff03821115620004f957620004f862000478565b5b828201905092915050565b6200050f816200046e565b82525050565b60006020820190506200052c600083018462000504565b92915050565b7f4e487b7100000000000000000000000000000000000000000000000000000000600052602260045260246000fd5b600060028204905060018216806200057a57607f821691505b60208210810362000590576200058f62000532565b5b50919050565b6119e180620005a66000396000f3fe608060405234801561001057600080fd5b50600436106100f55760003560e01c806370a0823111610097578063a457c2d711610066578063a457c2d714610276578063a9059cbb146102a6578063dd62ed3e146102d6578063f2fde38b14610306576100f5565b806370a0823114610200578063715018a6146102305780638da5cb5b1461023a57806395d89b4114610258576100f5565b806323b872dd116100d357806323b872dd14610166578063313ce5671461019657806339509351146101b457806340c10f19146101e4576100f5565b806306fdde03146100fa578063095ea7b31461011857806318160ddd14610148575b600080fd5b610102610322565b60405161010f9190611108565b60405180910390f35b610132600480360381019061012d91906111c3565b6103b4565b60405161013f919061121e565b60405180910390f35b6101506103d7565b60405161015d9190611248565b60405180910390f35b610180600480360381019061017b9190611263565b6103e1565b60405161018d919061121e565b60405180910390f35b61019e610410565b6040516101ab91906112d2565b60405180910390f35b6101ce60048036038101906101c991906111c3565b610419565b6040516101db919061121e565b60405180910390f35b6101fe60048036038101906101f991906111c3565b6104c3565b005b61021a600480360381019061021591906112ed565b61054d565b6040516102279190611248565b60405180910390f35b610238610595565b005b61024261061d565b60405161024f9190611329565b60405180910390f35b610260610647565b60405161026d9190611108565b60405180910390f35b610290600480360381019061028b91906111c3565b6106d9565b60405161029d919061121e565b60405180910390f35b6102c060048036038101906102bb91906111c3565b6107c3565b6040516102cd919061121e565b60405180910390f35b6102f060048036038101906102eb9190611344565b6107e6565b6040516102fd9190611248565b60405180910390f35b610320600480360381019061031b91906112ed565b61086d565b005b606060038054610331906113b3565b80601f016020809104026020016040519081016040528092919081815260200182805461035d906113b3565b80156103aa5780601f1061037f576101008083540402835291602001916103aa565b820191906000526020600020905b81548152906001019060200180831161038d57829003601f168201915b5050505050905090565b6000806103bf610964565b90506103cc81858561096c565b600191505092915050565b6000600254905090565b6000806103ec610964565b90506103f9858285610b35565b610404858585610bc1565b60019150509392505050565b60006012905090565b600080610424610964565b90506104b8818585600160008673ffffffffffffffffffffffffffffffffffffffff1673ffffffffffffffffffffffffffffffffffffffff16815260200190815260200160002060008973ffffffffffffffffffffffffffffffffffffffff1673ffffffffffffffffffffffffffffffffffffffff168152602001908152602001600020546104b39190611413565b61096c565b600191505092915050565b6104cb610964565b73ffffffffffffffffffffffffffffffffffffffff166104e961061d565b73ffffffffffffffffffffffffffffffffffffffff161461053f576040517f08c379a0000000000000000000000000000000000000000000000000000000008152600401610536906114b5565b60405180910390fd5b6105498282610e40565b5050565b60008060008373ffffffffffffffffffffffffffffffffffffffff1673ffffffffffffffffffffffffffffffffffffffff168152602001908152602001600020549050919050565b61059d610964565b73ffffffffffffffffffffffffffffffffffffffff166105bb61061d565b73ffffffffffffffffffffffffffffffffffffffff1614610611576040517f08c379a0000000000000000000000000000000000000000000000000000000008152600401610608906114b5565b60405180910390fd5b61061b6000610f9f565b565b6000600560009054906101000a900473ffffffffffffffffffffffffffffffffffffffff16905090565b606060048054610656906113b3565b80601f0160208091040260200160405190810160405280929190818152602001828054610682906113b3565b80156106cf5780601f106106a4576101008083540402835291602001916106cf565b820191906000526020600020905b8154815290600101906020018083116106b257829003601f168201915b5050505050905090565b6000806106e4610964565b90506000600160008373ffffffffffffffffffffffffffffffffffffffff1673ffffffffffffffffffffffffffffffffffffffff16815260200190815260200160002060008673ffffffffffffffffffffffffffffffffffffffff1673ffffffffffffffffffffffffffffffffffffffff168152602001908152602001600020549050838110156107aa576040517f08c379a00000000000000000000000000000000000000000000000000000000081526004016107a190611547565b60405180910390fd5b6107b7828686840361096c565b60019250505092915050565b6000806107ce610964565b90506107db818585610bc1565b600191505092915050565b6000600160008473ffffffffffffffffffffffffffffffffffffffff1673ffffffffffffffffffffffffffffffffffffffff16815260200190815260200160002060008373ffffffffffffffffffffffffffffffffffffffff1673ffffffffffffffffffffffffffffffffffffffff16815260200190815260200160002054905092915050565b610875610964565b73ffffffffffffffffffffffffffffffffffffffff1661089361061d565b73ffffffffffffffffffffffffffffffffffffffff16146108e9576040517f08c379a00000000000000000000000000000000000000000000000000000000081526004016108e0906114b5565b60405180910390fd5b600073ffffffffffffffffffffffffffffffffffffffff168173ffffffffffffffffffffffffffffffffffffffff1603610958576040517f08c379a000000000000000000000000000000000000000000000000000000000815260040161094f906115d9565b60405180910390fd5b61096181610f9f565b50565b600033905090565b600073ffffffffffffffffffffffffffffffffffffffff168373ffffffffffffffffffffffffffffffffffffffff16036109db576040517f08c379a00000000000000000000000000000000000000000000000000000000081526004016109d29061166b565b60405180910390fd5b600073ffffffffffffffffffffffffffffffffffffffff168273ffffffffffffffffffffffffffffffffffffffff1603610a4a576040517f08c379a0000000000000000000000000000000000000000000000000000000008152600401610a41906116fd565b60405180910390fd5b80600160008573ffffffffffffffffffffffffffffffffffffffff1673ffffffffffffffffffffffffffffffffffffffff16815260200190815260200160002060008473ffffffffffffffffffffffffffffffffffffffff1673ffffffffffffffffffffffffffffffffffffffff168152602001908152602001600020819055508173ffffffffffffffffffffffffffffffffffffffff168373ffffffffffffffffffffffffffffffffffffffff167f8c5be1e5ebec7d5bd14f71427d1e84f3dd0314c0f7b2291e5b200ac8c7c3b92583604051610b289190611248565b60405180910390a3505050565b6000610b4184846107e6565b90507fffffffffffffffffffffffffffffffffffffffffffffffffffffffffffffffff8114610bbb5781811015610bad576040517f08c379a0000000000000000000000000000000000000000000000000000000008152600401610ba490611769565b60405180910390fd5b610bba848484840361096c565b5b50505050565b600073ffffffffffffffffffffffffffffffffffffffff168373ffffffffffffffffffffffffffffffffffffffff1603610c30576040517f08c379a0000000000000000000000000000000000000000000000000000000008152600401610c27906117fb565b60405180910390fd5b600073ffffffffffffffffffffffffffffffffffffffff168273ffffffffffffffffffffffffffffffffffffffff1603610c9f576040517f08c379a0000000000000000000000000000000000000000000000000000000008152600401610c969061188d565b60405180910390fd5b610caa838383611065565b60008060008573ffffffffffffffffffffffffffffffffffffffff1673ffffffffffffffffffffffffffffffffffffffff16815260200190815260200160002054905081811015610d30576040517f08c379a0000000000000000000000000000000000000000000000000000000008152600401610d279061191f565b60405180910390fd5b8181036000808673ffffffffffffffffffffffffffffffffffffffff1673ffffffffffffffffffffffffffffffffffffffff16815260200190815260200160002081905550816000808573ffffffffffffffffffffffffffffffffffffffff1673ffffffffffffffffffffffffffffffffffffffff1681526020019081526020016000206000828254610dc39190611413565b925050819055508273ffffffffffffffffffffffffffffffffffffffff168473ffffffffffffffffffffffffffffffffffffffff167fddf252ad1be2c89b69c2b068fc378daa952ba7f163c4a11628f55a4df523b3ef84604051610e279190611248565b60405180910390a3610e3a84848461106a565b50505050565b600073ffffffffffffffffffffffffffffffffffffffff168273ffffffffffffffffffffffffffffffffffffffff1603610eaf576040517f08c379a0000000000000000000000000000000000000000000000000000000008152600401610ea69061198b565b60405180910390fd5b610ebb60008383611065565b8060026000828254610ecd9190611413565b92505081905550806000808473ffffffffffffffffffffffffffffffffffffffff1673ffffffffffffffffffffffffffffffffffffffff1681526020019081526020016000206000828254610f229190611413565b925050819055508173ffffffffffffffffffffffffffffffffffffffff16600073ffffffffffffffffffffffffffffffffffffffff167fddf252ad1be2c89b69c2b068fc378daa952ba7f163c4a11628f55a4df523b3ef83604051610f879190611248565b60405180910390a3610f9b6000838361106a565b5050565b6000600560009054906101000a900473ffffffffffffffffffffffffffffffffffffffff16905081600560006101000a81548173ffffffffffffffffffffffffffffffffffffffff021916908373ffffffffffffffffffffffffffffffffffffffff1602179055508173ffffffffffffffffffffffffffffffffffffffff168173ffffffffffffffffffffffffffffffffffffffff167f8be0079c531659141344cd1fd0a4f28419497f9722a3daafe3b4186f6b6457e060405160405180910390a35050565b505050565b505050565b600081519050919050565b600082825260208201905092915050565b60005b838110156110a957808201518184015260208101905061108e565b838111156110b8576000848401525b50505050565b6000601f19601f8301169050919050565b60006110da8261106f565b6110e4818561107a565b93506110f481856020860161108b565b6110fd816110be565b840191505092915050565b6000602082019050818103600083015261112281846110cf565b905092915050565b600080fd5b600073ffffffffffffffffffffffffffffffffffffffff82169050919050565b600061115a8261112f565b9050919050565b61116a8161114f565b811461117557600080fd5b50565b60008135905061118781611161565b92915050565b6000819050919050565b6111a08161118d565b81146111ab57600080fd5b50565b6000813590506111bd81611197565b92915050565b600080604083850312156111da576111d961112a565b5b60006111e885828601611178565b92505060206111f9858286016111ae565b9150509250929050565b60008115159050919050565b61121881611203565b82525050565b6000602082019050611233600083018461120f565b92915050565b6112428161118d565b82525050565b600060208201905061125d6000830184611239565b92915050565b60008060006060848603121561127c5761127b61112a565b5b600061128a86828701611178565b935050602061129b86828701611178565b92505060406112ac868287016111ae565b9150509250925092565b600060ff82169050919050565b6112cc816112b6565b82525050565b60006020820190506112e760008301846112c3565b92915050565b6000602082840312156113035761130261112a565b5b600061131184828501611178565b91505092915050565b6113238161114f565b82525050565b600060208201905061133e600083018461131a565b92915050565b6000806040838503121561135b5761135a61112a565b5b600061136985828601611178565b925050602061137a85828601611178565b9150509250929050565b7f4e487b7100000000000000000000000000000000000000000000000000000000600052602260045260246000fd5b600060028204905060018216806113cb57607f821691505b6020821081036113de576113dd611384565b5b50919050565b7f4e487b7100000000000000000000000000000000000000000000000000000000600052601160045260246000fd5b600061141e8261118d565b91506114298361118d565b9250827fffffffffffffffffffffffffffffffffffffffffffffffffffffffffffffffff0382111561145e5761145d6113e4565b5b828201905092915050565b7f4f776e61626c653a2063616c6c6572206973206e6f7420746865206f776e6572600082015250565b600061149f60208361107a565b91506114aa82611469565b602082019050919050565b600060208201905081810360008301526114ce81611492565b9050919050565b7f45524332303a2064656372656173656420616c6c6f77616e63652062656c6f7760008201527f207a65726f000000000000000000000000000000000000000000000000000000602082015250565b600061153160258361107a565b915061153c826114d5565b604082019050919050565b6000602082019050818103600083015261156081611524565b9050919050565b7f4f776e61626c653a206e6577206f776e657220697320746865207a65726f206160008201527f6464726573730000000000000000000000000000000000000000000000000000602082015250565b60006115c360268361107a565b91506115ce82611567565b604082019050919050565b600060208201905081810360008301526115f2816115b6565b9050919050565b7f45524332303a20617070726f76652066726f6d20746865207a65726f2061646460008201527f7265737300000000000000000000000000000000000000000000000000000000602082015250565b600061165560248361107a565b9150611660826115f9565b604082019050919050565b6000602082019050818103600083015261168481611648565b9050919050565b7f45524332303a20617070726f766520746f20746865207a65726f20616464726560008201527f7373000000000000000000000000000000000000000000000000000000000000602082015250565b60006116e760228361107a565b91506116f28261168b565b604082019050919050565b60006020820190508181036000830152611716816116da565b9050919050565b7f45524332303a20696e73756666696369656e7420616c6c6f77616e6365000000600082015250565b6000611753601d8361107a565b915061175e8261171d565b602082019050919050565b6000602082019050818103600083015261178281611746565b9050919050565b7f45524332303a207472616e736665722066726f6d20746865207a65726f20616460008201527f6472657373000000000000000000000000000000000000000000000000000000602082015250565b60006117e560258361107a565b91506117f082611789565b604082019050919050565b60006020820190508181036000830152611814816117d8565b9050919050565b7f45524332303a207472616e7366657220746f20746865207a65726f206164647260008201527f6573730000000000000000000000000000000000000000000000000000000000602082015250565b600061187760238361107a565b91506118828261181b565b604082019050919050565b600060208201905081810360008301526118a68161186a565b9050919050565b7f45524332303a207472616e7366657220616d6f756e742065786365656473206260008201527f616c616e63650000000000000000000000000000000000000000000000000000602082015250565b600061190960268361107a565b9150611914826118ad565b604082019050919050565b60006020820190508181036000830152611938816118fc565b9050919050565b7f45524332303a206d696e7420746f20746865207a65726f206164647265737300600082015250565b6000611975601f8361107a565b91506119808261193f565b602082019050919050565b600060208201905081810360008301526119a481611968565b905091905056fea2646970667358221220185608dd470f27818e53c0523257e0ce579274ee192194aa398c4af6fb9d26f564736f6c634300080d0033",
  "immutableReferences": {},
  "source": "// SPDX-License-Identifier: MIT\n\nimport \"./CrowdFundingTOKEN.sol\";\nimport \"@openzeppelin/contracts/access/Ownable.sol\";\n\npragma solidity ^0.8.0;\n\ncontract CrowdFunding is Ownable {\n    CrowdFundingTOKEN token;\n    string name;\n    uint256 cantTokenForExchange;\n    uint256 cantTokenToTheWinner;\n    bool stateCanFund;\n    \n    constructor() {\n        token = new CrowdFundingTOKEN();\n        name = \"\";\n        stateCanFund = false;\n    }\n\n    function setNameCrowdFunding(string memory _name) public onlyOwner {\n        // Verifica que el Nombre no sea nulo\n        require(bytes(_name).length > 0);        \n        name = _name;        \n    }\n\n    function getDataCrowdFunding() public view returns (string memory, uint256,uint256, bool, uint256) {        \n        return (name, cantTokenForExchange, cantTokenToTheWinner, stateCanFund, token.totalSupply());\n    }\n\n    function totalToken() public view returns (uint256) {\n        return token.totalSupply();\n    }\n\n    function addToken(uint256 _cantTokenForExchange, \n        uint256 _cantTokenToTheWinner) public onlyOwner {\n\n        // Verifica valores validos\n        require(_cantTokenForExchange > 0);\n        require(_cantTokenToTheWinner >= 0);\n\n        token.mint(\n                msg.sender, \n                _cantTokenForExchange + \n                _cantTokenToTheWinner)\n        ;\n        cantTokenForExchange = cantTokenForExchange + _cantTokenForExchange;\n        cantTokenToTheWinner = cantTokenToTheWinner + _cantTokenToTheWinner;\n    }\n\n    function openCrowdFunding() public{\n        stateCanFund = true;\n    }\n\n    function closeCrowdFunding() public  onlyOwner {\n        stateCanFund = false;\n    }\n}",
  "sourcePath": "/home/ubuntu/dev/tpfunir/contracts/CrowdFunding.sol",
  "compiler": {
    "name": "solc",
    "version": "0.8.13+commit.abaa5c0e.Emscripten.clang"
  },
  "schemaVersion": "3.4.6",
  "updatedAt": "2022-03-18T01:00:42.279Z",
  "networkType": "ethereum",
  "devdoc": {
    "kind": "dev",
    "methods": {
      "owner()": {
        "details": "Returns the address of the current owner."
      },
      "renounceOwnership()": {
        "details": "Leaves the contract without owner. It will not be possible to call `onlyOwner` functions anymore. Can only be called by the current owner. NOTE: Renouncing ownership will leave the contract without an owner, thereby removing any functionality that is only available to the owner."
      },
      "transferOwnership(address)": {
        "details": "Transfers ownership of the contract to a new account (`newOwner`). Can only be called by the current owner."
      }
    },
    "version": 1
  },
  "userdoc": {
    "kind": "user",
    "methods": {},
    "version": 1
  }
}