{
  "contractName": "CrowdFunding",
  "abi": [
    {
      "inputs": [],
      "stateMutability": "nonpayable",
      "type": "constructor"
    },
    {
      "anonymous": false,
      "inputs": [
        {
          "indexed": true,
          "internalType": "uint256",
          "name": "date",
          "type": "uint256"
        },
        {
          "indexed": false,
          "internalType": "uint256",
          "name": "cantAddTokenForExchange",
          "type": "uint256"
        },
        {
          "indexed": false,
          "internalType": "uint256",
          "name": "cantAddTokenToTheWinner",
          "type": "uint256"
        }
      ],
      "name": "LogAddToken",
      "type": "event"
    },
    {
      "anonymous": false,
      "inputs": [
        {
          "indexed": true,
          "internalType": "uint256",
          "name": "date",
          "type": "uint256"
        },
        {
          "indexed": true,
          "internalType": "address",
          "name": "from",
          "type": "address"
        },
        {
          "indexed": false,
          "internalType": "uint256",
          "name": "priceTicket",
          "type": "uint256"
        }
      ],
      "name": "LogBuyTicket",
      "type": "event"
    },
    {
      "anonymous": false,
      "inputs": [
        {
          "indexed": true,
          "internalType": "uint256",
          "name": "date",
          "type": "uint256"
        },
        {
          "indexed": true,
          "internalType": "address",
          "name": "_buyer",
          "type": "address"
        },
        {
          "indexed": false,
          "internalType": "uint256",
          "name": "cantToken",
          "type": "uint256"
        }
      ],
      "name": "LogBuyToken",
      "type": "event"
    },
    {
      "anonymous": false,
      "inputs": [
        {
          "indexed": true,
          "internalType": "uint256",
          "name": "date",
          "type": "uint256"
        },
        {
          "indexed": true,
          "internalType": "address",
          "name": "accountWinner",
          "type": "address"
        },
        {
          "indexed": false,
          "internalType": "uint256",
          "name": "numberWinner",
          "type": "uint256"
        }
      ],
      "name": "LogMakeLottery",
      "type": "event"
    },
    {
      "anonymous": false,
      "inputs": [
        {
          "indexed": true,
          "internalType": "address",
          "name": "previousOwner",
          "type": "address"
        },
        {
          "indexed": true,
          "internalType": "address",
          "name": "newOwner",
          "type": "address"
        }
      ],
      "name": "OwnershipTransferred",
      "type": "event"
    },
    {
      "inputs": [],
      "name": "owner",
      "outputs": [
        {
          "internalType": "address",
          "name": "",
          "type": "address"
        }
      ],
      "stateMutability": "view",
      "type": "function"
    },
    {
      "inputs": [],
      "name": "renounceOwnership",
      "outputs": [],
      "stateMutability": "nonpayable",
      "type": "function"
    },
    {
      "inputs": [
        {
          "internalType": "address",
          "name": "newOwner",
          "type": "address"
        }
      ],
      "name": "transferOwnership",
      "outputs": [],
      "stateMutability": "nonpayable",
      "type": "function"
    },
    {
      "inputs": [
        {
          "internalType": "string",
          "name": "name",
          "type": "string"
        }
      ],
      "name": "setNameCrowdFunding",
      "outputs": [],
      "stateMutability": "nonpayable",
      "type": "function"
    },
    {
      "inputs": [],
      "name": "getDataCrowdFunding",
      "outputs": [
        {
          "internalType": "string",
          "name": "",
          "type": "string"
        },
        {
          "internalType": "uint256",
          "name": "",
          "type": "uint256"
        },
        {
          "internalType": "uint256",
          "name": "",
          "type": "uint256"
        },
        {
          "internalType": "bool",
          "name": "",
          "type": "bool"
        },
        {
          "internalType": "uint256",
          "name": "",
          "type": "uint256"
        }
      ],
      "stateMutability": "view",
      "type": "function"
    },
    {
      "inputs": [],
      "name": "getPriceTokenCFT",
      "outputs": [
        {
          "internalType": "uint256",
          "name": "",
          "type": "uint256"
        }
      ],
      "stateMutability": "view",
      "type": "function"
    },
    {
      "inputs": [],
      "name": "getPriceTicketLottery",
      "outputs": [
        {
          "internalType": "uint256",
          "name": "",
          "type": "uint256"
        }
      ],
      "stateMutability": "view",
      "type": "function"
    },
    {
      "inputs": [],
      "name": "getTotalGeneratedToken",
      "outputs": [
        {
          "internalType": "uint256",
          "name": "",
          "type": "uint256"
        }
      ],
      "stateMutability": "view",
      "type": "function"
    },
    {
      "inputs": [
        {
          "internalType": "uint256",
          "name": "cantAddTokenForExchange",
          "type": "uint256"
        },
        {
          "internalType": "uint256",
          "name": "cantAddTokenToTheWinner",
          "type": "uint256"
        }
      ],
      "name": "addToken",
      "outputs": [],
      "stateMutability": "nonpayable",
      "type": "function"
    },
    {
      "inputs": [],
      "name": "openCrowdFunding",
      "outputs": [],
      "stateMutability": "nonpayable",
      "type": "function"
    },
    {
      "inputs": [],
      "name": "closeCrowdFunding",
      "outputs": [],
      "stateMutability": "nonpayable",
      "type": "function"
    },
    {
      "inputs": [
        {
          "internalType": "address",
          "name": "account",
          "type": "address"
        }
      ],
      "name": "getBalanceCFT",
      "outputs": [
        {
          "internalType": "uint256",
          "name": "",
          "type": "uint256"
        }
      ],
      "stateMutability": "view",
      "type": "function"
    },
    {
      "inputs": [],
      "name": "getBalanceCrowdFundingETH",
      "outputs": [
        {
          "internalType": "uint256",
          "name": "",
          "type": "uint256"
        }
      ],
      "stateMutability": "view",
      "type": "function"
    },
    {
      "inputs": [
        {
          "internalType": "address payable",
          "name": "_buyer",
          "type": "address"
        },
        {
          "internalType": "uint256",
          "name": "cantToken",
          "type": "uint256"
        }
      ],
      "name": "buyToken",
      "outputs": [],
      "stateMutability": "payable",
      "type": "function"
    },
    {
      "inputs": [],
      "name": "buyTicketLottery",
      "outputs": [],
      "stateMutability": "nonpayable",
      "type": "function"
    },
    {
      "inputs": [],
      "name": "getCantTicketTotalLottery",
      "outputs": [
        {
          "internalType": "uint256",
          "name": "",
          "type": "uint256"
        }
      ],
      "stateMutability": "view",
      "type": "function"
    },
    {
      "inputs": [
        {
          "internalType": "address",
          "name": "account",
          "type": "address"
        }
      ],
      "name": "getCantTicketLotteryFromAccount",
      "outputs": [
        {
          "internalType": "uint256",
          "name": "",
          "type": "uint256"
        }
      ],
      "stateMutability": "view",
      "type": "function"
    },
    {
      "inputs": [
        {
          "internalType": "uint256",
          "name": "_number",
          "type": "uint256"
        }
      ],
      "name": "getAddressFromNumberLotteryAssigned",
      "outputs": [
        {
          "internalType": "address",
          "name": "",
          "type": "address"
        }
      ],
      "stateMutability": "view",
      "type": "function"
    },
    {
      "inputs": [
        {
          "internalType": "address",
          "name": "account",
          "type": "address"
        }
      ],
      "name": "getListNumberTicketAssigned",
      "outputs": [
        {
          "internalType": "uint256[]",
          "name": "",
          "type": "uint256[]"
        }
      ],
      "stateMutability": "view",
      "type": "function"
    },
    {
      "inputs": [],
      "name": "makeLottery",
      "outputs": [],
      "stateMutability": "nonpayable",
      "type": "function"
    },
    {
      "inputs": [],
      "name": "getWinnerLottery",
      "outputs": [
        {
          "components": [
            {
              "internalType": "address",
              "name": "accountWinner",
              "type": "address"
            },
            {
              "internalType": "uint256",
              "name": "numberWinner",
              "type": "uint256"
            }
          ],
          "internalType": "struct CrowdFunding.WinnerLotteryStruct",
          "name": "",
          "type": "tuple"
        }
      ],
      "stateMutability": "view",
      "type": "function"
    }
  ],
  "bytecode": "0x60806040523480156200001157600080fd5b506200003262000026620001a560201b60201c565b620001ad60201b60201c565b604051620000409062000271565b604051809103906000f0801580156200005d573d6000803e3d6000fd5b50600160006101000a81548173ffffffffffffffffffffffffffffffffffffffff021916908373ffffffffffffffffffffffffffffffffffffffff1602179055506040518060200160405280600081525060029080519060200190620000c59291906200027f565b506000600560006101000a81548160ff021916908315150217905550600160009054906101000a900473ffffffffffffffffffffffffffffffffffffffff1673ffffffffffffffffffffffffffffffffffffffff1663095ea7b33060006040518363ffffffff1660e01b815260040162000141929190620003cb565b6020604051808303816000875af115801562000161573d6000803e3d6000fd5b505050506040513d601f19601f820116820180604052508101906200018791906200043a565b50670de0b6b3a76400006006819055506002600781905550620004d0565b600033905090565b60008060009054906101000a900473ffffffffffffffffffffffffffffffffffffffff169050816000806101000a81548173ffffffffffffffffffffffffffffffffffffffff021916908373ffffffffffffffffffffffffffffffffffffffff1602179055508173ffffffffffffffffffffffffffffffffffffffff168173ffffffffffffffffffffffffffffffffffffffff167f8be0079c531659141344cd1fd0a4f28419497f9722a3daafe3b4186f6b6457e060405160405180910390a35050565b611fda806200298683390190565b8280546200028d906200049b565b90600052602060002090601f016020900481019282620002b15760008555620002fd565b82601f10620002cc57805160ff1916838001178555620002fd565b82800160010185558215620002fd579182015b82811115620002fc578251825591602001919060010190620002df565b5b5090506200030c919062000310565b5090565b5b808211156200032b57600081600090555060010162000311565b5090565b600073ffffffffffffffffffffffffffffffffffffffff82169050919050565b60006200035c826200032f565b9050919050565b6200036e816200034f565b82525050565b6000819050919050565b6000819050919050565b6000819050919050565b6000620003b3620003ad620003a78462000374565b62000388565b6200037e565b9050919050565b620003c58162000392565b82525050565b6000604082019050620003e2600083018562000363565b620003f16020830184620003ba565b9392505050565b600080fd5b60008115159050919050565b6200041481620003fd565b81146200042057600080fd5b50565b600081519050620004348162000409565b92915050565b600060208284031215620004535762000452620003f8565b5b6000620004638482850162000423565b91505092915050565b7f4e487b7100000000000000000000000000000000000000000000000000000000600052602260045260246000fd5b60006002820490506001821680620004b457607f821691505b602082108103620004ca57620004c96200046c565b5b50919050565b6124a680620004e06000396000f3fe60806040526004361061012a5760003560e01c80639292b460116100ab578063d00cb6001161006f578063d00cb60014610373578063d488e5741461039e578063d5de072c146103c9578063d91cd860146103f4578063dac4eedb14610423578063f2fde38b146104605761012a565b80639292b460146102a05780639a532a61146102c9578063b4e6dc62146102f4578063c0e1bba21461030b578063c1c7f7d9146103365761012a565b806368f8fc10116100f257806368f8fc10146101ee578063715018a61461020a5780637274762b1461022157806389beb6651461025e5780638da5cb5b146102755761012a565b8063134c6ba91461012f57806317b9ebec146101465780632b47acb41461016f57806346997ca3146101865780634983e9a5146101c3575b600080fd5b34801561013b57600080fd5b50610144610489565b005b34801561015257600080fd5b5061016d60048036038101906101689190611a26565b610522565b005b34801561017b57600080fd5b5061018461075c565b005b34801561019257600080fd5b506101ad60048036038101906101a89190611ac4565b610b83565b6040516101ba9190611baf565b60405180910390f35b3480156101cf57600080fd5b506101d8610c1a565b6040516101e59190611be0565b60405180910390f35b61020860048036038101906102039190611c39565b610c24565b005b34801561021657600080fd5b5061021f610dcb565b005b34801561022d57600080fd5b5061024860048036038101906102439190611c79565b610e53565b6040516102559190611cb5565b60405180910390f35b34801561026a57600080fd5b50610273610e90565b005b34801561028157600080fd5b5061028a610f29565b6040516102979190611cb5565b60405180910390f35b3480156102ac57600080fd5b506102c760048036038101906102c29190611e16565b610f52565b005b3480156102d557600080fd5b506102de610ff6565b6040516102eb9190611e9d565b60405180910390f35b34801561030057600080fd5b50610309611070565b005b34801561031757600080fd5b50610320611428565b60405161032d9190611be0565b60405180910390f35b34801561034257600080fd5b5061035d60048036038101906103589190611ac4565b611439565b60405161036a9190611be0565b60405180910390f35b34801561037f57600080fd5b50610388611485565b6040516103959190611be0565b60405180910390f35b3480156103aa57600080fd5b506103b361148d565b6040516103c09190611be0565b60405180910390f35b3480156103d557600080fd5b506103de611497565b6040516103eb9190611be0565b60405180910390f35b34801561040057600080fd5b5061040961152f565b60405161041a959493929190611f5b565b60405180910390f35b34801561042f57600080fd5b5061044a60048036038101906104459190611ac4565b61167d565b6040516104579190611be0565b60405180910390f35b34801561046c57600080fd5b5061048760048036038101906104829190611ac4565b611722565b005b610491611819565b73ffffffffffffffffffffffffffffffffffffffff166104af610f29565b73ffffffffffffffffffffffffffffffffffffffff1614610505576040517f08c379a00000000000000000000000000000000000000000000000000000000081526004016104fc90612001565b60405180910390fd5b6000600560006101000a81548160ff021916908315150217905550565b61052a611819565b73ffffffffffffffffffffffffffffffffffffffff16610548610f29565b73ffffffffffffffffffffffffffffffffffffffff161461059e576040517f08c379a000000000000000000000000000000000000000000000000000000000815260040161059590612001565b60405180910390fd5b600082116105ab57600080fd5b60008110156105b957600080fd5b600160009054906101000a900473ffffffffffffffffffffffffffffffffffffffff1673ffffffffffffffffffffffffffffffffffffffff166340c10f193383856106049190612050565b6040518363ffffffff1660e01b81526004016106219291906120a6565b600060405180830381600087803b15801561063b57600080fd5b505af115801561064f573d6000803e3d6000fd5b50505050816003546106619190612050565b600381905550806004546106759190612050565b600481905550600160009054906101000a900473ffffffffffffffffffffffffffffffffffffffff1673ffffffffffffffffffffffffffffffffffffffff166339509351306003546040518363ffffffff1660e01b81526004016106da9291906120a6565b6020604051808303816000875af11580156106f9573d6000803e3d6000fd5b505050506040513d601f19601f8201168201806040525081019061071d91906120fb565b50427fb0c6eb7550649cee02eea6497e33434879458eff5b74399d9f15c22a405811118383604051610750929190612128565b60405180910390a25050565b610764611819565b73ffffffffffffffffffffffffffffffffffffffff16610782610f29565b73ffffffffffffffffffffffffffffffffffffffff16146107d8576040517f08c379a00000000000000000000000000000000000000000000000000000000081526004016107cf90612001565b60405180910390fd5b60006107e46008611821565b116107ee57600080fd5b60001515600560009054906101000a900460ff1615151461080e57600080fd5b600061081a6008611821565b4260405160200161082b9190612172565b6040516020818303038152906040528051906020012060001c61084e91906121bc565b9050808061085b906121ed565b9150503073ffffffffffffffffffffffffffffffffffffffff16637274762b826040518263ffffffff1660e01b81526004016108979190611be0565b602060405180830381865afa1580156108b4573d6000803e3d6000fd5b505050506040513d601f19601f820116820180604052508101906108d8919061224a565b600b60000160006101000a81548173ffffffffffffffffffffffffffffffffffffffff021916908373ffffffffffffffffffffffffffffffffffffffff16021790555080600b600101819055506000600190505b6109366008611821565b8111610a2757600160009054906101000a900473ffffffffffffffffffffffffffffffffffffffff1673ffffffffffffffffffffffffffffffffffffffff16637c524ffc30600a600085815260200190815260200160002060009054906101000a900473ffffffffffffffffffffffffffffffffffffffff166007546040518463ffffffff1660e01b81526004016109d093929190612277565b6020604051808303816000875af11580156109ef573d6000803e3d6000fd5b505050506040513d601f19601f82011682018060405250810190610a1391906120fb565b508080610a1f906121ed565b91505061092c565b50600160009054906101000a900473ffffffffffffffffffffffffffffffffffffffff1673ffffffffffffffffffffffffffffffffffffffff16637c524ffc610a6e610f29565b600a600085815260200190815260200160002060009054906101000a900473ffffffffffffffffffffffffffffffffffffffff166004546040518463ffffffff1660e01b8152600401610ac393929190612277565b6020604051808303816000875af1158015610ae2573d6000803e3d6000fd5b505050506040513d601f19601f82011682018060405250810190610b0691906120fb565b50600b60000160009054906101000a900473ffffffffffffffffffffffffffffffffffffffff1673ffffffffffffffffffffffffffffffffffffffff16427fc6d75636c7af17899ce3ca8460957976bb69f806b6fa54d500662f301af8555c600b60010154604051610b789190611be0565b60405180910390a350565b6060600960008373ffffffffffffffffffffffffffffffffffffffff1673ffffffffffffffffffffffffffffffffffffffff168152602001908152602001600020805480602002602001604051908101604052809291908181526020018280548015610c0e57602002820191906000526020600020905b815481526020019060010190808311610bfa575b50505050509050919050565b6000600754905090565b600081600654610c3491906122ae565b905080341015610c4357600080fd5b600060035411610c5257600080fd5b60008134610c609190612308565b90506000811115610cb3578373ffffffffffffffffffffffffffffffffffffffff166108fc829081150290604051600060405180830381858888f19350505050158015610cb1573d6000803e3d6000fd5b505b600160009054906101000a900473ffffffffffffffffffffffffffffffffffffffff1673ffffffffffffffffffffffffffffffffffffffff16637c524ffc610cf9610f29565b33866040518463ffffffff1660e01b8152600401610d1993929190612277565b6020604051808303816000875af1158015610d38573d6000803e3d6000fd5b505050506040513d601f19601f82011682018060405250810190610d5c91906120fb565b508260036000828254610d6f9190612308565b925050819055508373ffffffffffffffffffffffffffffffffffffffff16427f5bf8bcb1ae35c37055f3cf820d173c8230c16ed0a296337ebe70951999b3c76f85604051610dbd9190611be0565b60405180910390a350505050565b610dd3611819565b73ffffffffffffffffffffffffffffffffffffffff16610df1610f29565b73ffffffffffffffffffffffffffffffffffffffff1614610e47576040517f08c379a0000000000000000000000000000000000000000000000000000000008152600401610e3e90612001565b60405180910390fd5b610e51600061182f565b565b6000600a600083815260200190815260200160002060009054906101000a900473ffffffffffffffffffffffffffffffffffffffff169050919050565b610e98611819565b73ffffffffffffffffffffffffffffffffffffffff16610eb6610f29565b73ffffffffffffffffffffffffffffffffffffffff1614610f0c576040517f08c379a0000000000000000000000000000000000000000000000000000000008152600401610f0390612001565b60405180910390fd5b6001600560006101000a81548160ff021916908315150217905550565b60008060009054906101000a900473ffffffffffffffffffffffffffffffffffffffff16905090565b610f5a611819565b73ffffffffffffffffffffffffffffffffffffffff16610f78610f29565b73ffffffffffffffffffffffffffffffffffffffff1614610fce576040517f08c379a0000000000000000000000000000000000000000000000000000000008152600401610fc590612001565b60405180910390fd5b6000815111610fdc57600080fd5b8060029080519060200190610ff2929190611909565b5050565b610ffe61198f565b600b6040518060400160405290816000820160009054906101000a900473ffffffffffffffffffffffffffffffffffffffff1673ffffffffffffffffffffffffffffffffffffffff1673ffffffffffffffffffffffffffffffffffffffff168152602001600182015481525050905090565b60011515600560009054906101000a900460ff1615151461109057600080fd5b3073ffffffffffffffffffffffffffffffffffffffff16634983e9a56040518163ffffffff1660e01b8152600401602060405180830381865afa1580156110db573d6000803e3d6000fd5b505050506040513d601f19601f820116820180604052508101906110ff9190612351565b3073ffffffffffffffffffffffffffffffffffffffff1663dac4eedb336040518263ffffffff1660e01b81526004016111389190611cb5565b602060405180830381865afa158015611155573d6000803e3d6000fd5b505050506040513d601f19601f820116820180604052508101906111799190612351565b101561118457600080fd5b61118e60086118f3565b600960003373ffffffffffffffffffffffffffffffffffffffff1673ffffffffffffffffffffffffffffffffffffffff1681526020019081526020016000206111d76008611821565b908060018154018082558091505060019003906000526020600020016000909190919091505533600a600061120c6008611821565b815260200190815260200160002060006101000a81548173ffffffffffffffffffffffffffffffffffffffff021916908373ffffffffffffffffffffffffffffffffffffffff160217905550600160009054906101000a900473ffffffffffffffffffffffffffffffffffffffff1673ffffffffffffffffffffffffffffffffffffffff16637c524ffc33303073ffffffffffffffffffffffffffffffffffffffff16634983e9a56040518163ffffffff1660e01b8152600401602060405180830381865afa1580156112e3573d6000803e3d6000fd5b505050506040513d601f19601f820116820180604052508101906113079190612351565b6040518463ffffffff1660e01b815260040161132593929190612277565b6020604051808303816000875af1158015611344573d6000803e3d6000fd5b505050506040513d601f19601f8201168201806040525081019061136891906120fb565b503373ffffffffffffffffffffffffffffffffffffffff16427fe061b3e4b92f284c3405c7244a3eee1d6bc4633b29c572c50f019790b58597e23073ffffffffffffffffffffffffffffffffffffffff16634983e9a56040518163ffffffff1660e01b8152600401602060405180830381865afa1580156113ed573d6000803e3d6000fd5b505050506040513d601f19601f820116820180604052508101906114119190612351565b60405161141e9190611be0565b60405180910390a3565b60006114346008611821565b905090565b6000600960008373ffffffffffffffffffffffffffffffffffffffff1673ffffffffffffffffffffffffffffffffffffffff168152602001908152602001600020805490509050919050565b600047905090565b6000600654905090565b6000600160009054906101000a900473ffffffffffffffffffffffffffffffffffffffff1673ffffffffffffffffffffffffffffffffffffffff166318160ddd6040518163ffffffff1660e01b8152600401602060405180830381865afa158015611506573d6000803e3d6000fd5b505050506040513d601f19601f8201168201806040525081019061152a9190612351565b905090565b60606000806000806002600354600454600560009054906101000a900460ff16600160009054906101000a900473ffffffffffffffffffffffffffffffffffffffff1673ffffffffffffffffffffffffffffffffffffffff166318160ddd6040518163ffffffff1660e01b8152600401602060405180830381865afa1580156115bc573d6000803e3d6000fd5b505050506040513d601f19601f820116820180604052508101906115e09190612351565b8480546115ec906123ad565b80601f0160208091040260200160405190810160405280929190818152602001828054611618906123ad565b80156116655780601f1061163a57610100808354040283529160200191611665565b820191906000526020600020905b81548152906001019060200180831161164857829003601f168201915b50505050509450945094509450945094509091929394565b6000600160009054906101000a900473ffffffffffffffffffffffffffffffffffffffff1673ffffffffffffffffffffffffffffffffffffffff166370a08231836040518263ffffffff1660e01b81526004016116da9190611cb5565b602060405180830381865afa1580156116f7573d6000803e3d6000fd5b505050506040513d601f19601f8201168201806040525081019061171b9190612351565b9050919050565b61172a611819565b73ffffffffffffffffffffffffffffffffffffffff16611748610f29565b73ffffffffffffffffffffffffffffffffffffffff161461179e576040517f08c379a000000000000000000000000000000000000000000000000000000000815260040161179590612001565b60405180910390fd5b600073ffffffffffffffffffffffffffffffffffffffff168173ffffffffffffffffffffffffffffffffffffffff160361180d576040517f08c379a000000000000000000000000000000000000000000000000000000000815260040161180490612450565b60405180910390fd5b6118168161182f565b50565b600033905090565b600081600001549050919050565b60008060009054906101000a900473ffffffffffffffffffffffffffffffffffffffff169050816000806101000a81548173ffffffffffffffffffffffffffffffffffffffff021916908373ffffffffffffffffffffffffffffffffffffffff1602179055508173ffffffffffffffffffffffffffffffffffffffff168173ffffffffffffffffffffffffffffffffffffffff167f8be0079c531659141344cd1fd0a4f28419497f9722a3daafe3b4186f6b6457e060405160405180910390a35050565b6001816000016000828254019250508190555050565b828054611915906123ad565b90600052602060002090601f016020900481019282611937576000855561197e565b82601f1061195057805160ff191683800117855561197e565b8280016001018555821561197e579182015b8281111561197d578251825591602001919060010190611962565b5b50905061198b91906119bf565b5090565b6040518060400160405280600073ffffffffffffffffffffffffffffffffffffffff168152602001600081525090565b5b808211156119d85760008160009055506001016119c0565b5090565b6000604051905090565b600080fd5b600080fd5b6000819050919050565b611a03816119f0565b8114611a0e57600080fd5b50565b600081359050611a20816119fa565b92915050565b60008060408385031215611a3d57611a3c6119e6565b5b6000611a4b85828601611a11565b9250506020611a5c85828601611a11565b9150509250929050565b600073ffffffffffffffffffffffffffffffffffffffff82169050919050565b6000611a9182611a66565b9050919050565b611aa181611a86565b8114611aac57600080fd5b50565b600081359050611abe81611a98565b92915050565b600060208284031215611ada57611ad96119e6565b5b6000611ae884828501611aaf565b91505092915050565b600081519050919050565b600082825260208201905092915050565b6000819050602082019050919050565b611b26816119f0565b82525050565b6000611b388383611b1d565b60208301905092915050565b6000602082019050919050565b6000611b5c82611af1565b611b668185611afc565b9350611b7183611b0d565b8060005b83811015611ba2578151611b898882611b2c565b9750611b9483611b44565b925050600181019050611b75565b5085935050505092915050565b60006020820190508181036000830152611bc98184611b51565b905092915050565b611bda816119f0565b82525050565b6000602082019050611bf56000830184611bd1565b92915050565b6000611c0682611a66565b9050919050565b611c1681611bfb565b8114611c2157600080fd5b50565b600081359050611c3381611c0d565b92915050565b60008060408385031215611c5057611c4f6119e6565b5b6000611c5e85828601611c24565b9250506020611c6f85828601611a11565b9150509250929050565b600060208284031215611c8f57611c8e6119e6565b5b6000611c9d84828501611a11565b91505092915050565b611caf81611a86565b82525050565b6000602082019050611cca6000830184611ca6565b92915050565b600080fd5b600080fd5b6000601f19601f8301169050919050565b7f4e487b7100000000000000000000000000000000000000000000000000000000600052604160045260246000fd5b611d2382611cda565b810181811067ffffffffffffffff82111715611d4257611d41611ceb565b5b80604052505050565b6000611d556119dc565b9050611d618282611d1a565b919050565b600067ffffffffffffffff821115611d8157611d80611ceb565b5b611d8a82611cda565b9050602081019050919050565b82818337600083830152505050565b6000611db9611db484611d66565b611d4b565b905082815260208101848484011115611dd557611dd4611cd5565b5b611de0848285611d97565b509392505050565b600082601f830112611dfd57611dfc611cd0565b5b8135611e0d848260208601611da6565b91505092915050565b600060208284031215611e2c57611e2b6119e6565b5b600082013567ffffffffffffffff811115611e4a57611e496119eb565b5b611e5684828501611de8565b91505092915050565b611e6881611a86565b82525050565b604082016000820151611e846000850182611e5f565b506020820151611e976020850182611b1d565b50505050565b6000604082019050611eb26000830184611e6e565b92915050565b600081519050919050565b600082825260208201905092915050565b60005b83811015611ef2578082015181840152602081019050611ed7565b83811115611f01576000848401525b50505050565b6000611f1282611eb8565b611f1c8185611ec3565b9350611f2c818560208601611ed4565b611f3581611cda565b840191505092915050565b60008115159050919050565b611f5581611f40565b82525050565b600060a0820190508181036000830152611f758188611f07565b9050611f846020830187611bd1565b611f916040830186611bd1565b611f9e6060830185611f4c565b611fab6080830184611bd1565b9695505050505050565b7f4f776e61626c653a2063616c6c6572206973206e6f7420746865206f776e6572600082015250565b6000611feb602083611ec3565b9150611ff682611fb5565b602082019050919050565b6000602082019050818103600083015261201a81611fde565b9050919050565b7f4e487b7100000000000000000000000000000000000000000000000000000000600052601160045260246000fd5b600061205b826119f0565b9150612066836119f0565b9250827fffffffffffffffffffffffffffffffffffffffffffffffffffffffffffffffff0382111561209b5761209a612021565b5b828201905092915050565b60006040820190506120bb6000830185611ca6565b6120c86020830184611bd1565b9392505050565b6120d881611f40565b81146120e357600080fd5b50565b6000815190506120f5816120cf565b92915050565b600060208284031215612111576121106119e6565b5b600061211f848285016120e6565b91505092915050565b600060408201905061213d6000830185611bd1565b61214a6020830184611bd1565b9392505050565b6000819050919050565b61216c612167826119f0565b612151565b82525050565b600061217e828461215b565b60208201915081905092915050565b7f4e487b7100000000000000000000000000000000000000000000000000000000600052601260045260246000fd5b60006121c7826119f0565b91506121d2836119f0565b9250826121e2576121e161218d565b5b828206905092915050565b60006121f8826119f0565b91507fffffffffffffffffffffffffffffffffffffffffffffffffffffffffffffffff820361222a57612229612021565b5b600182019050919050565b60008151905061224481611a98565b92915050565b6000602082840312156122605761225f6119e6565b5b600061226e84828501612235565b91505092915050565b600060608201905061228c6000830186611ca6565b6122996020830185611ca6565b6122a66040830184611bd1565b949350505050565b60006122b9826119f0565b91506122c4836119f0565b9250817fffffffffffffffffffffffffffffffffffffffffffffffffffffffffffffffff04831182151516156122fd576122fc612021565b5b828202905092915050565b6000612313826119f0565b915061231e836119f0565b92508282101561233157612330612021565b5b828203905092915050565b60008151905061234b816119fa565b92915050565b600060208284031215612367576123666119e6565b5b60006123758482850161233c565b91505092915050565b7f4e487b7100000000000000000000000000000000000000000000000000000000600052602260045260246000fd5b600060028204905060018216806123c557607f821691505b6020821081036123d8576123d761237e565b5b50919050565b7f4f776e61626c653a206e6577206f776e657220697320746865207a65726f206160008201527f6464726573730000000000000000000000000000000000000000000000000000602082015250565b600061243a602683611ec3565b9150612445826123de565b604082019050919050565b600060208201905081810360008301526124698161242d565b905091905056fea2646970667358221220cef0e8b429bdf49f5d547dc053d86f48735e26e252f4fd6a118fe85b3822d21c64736f6c634300080d003360806040523480156200001157600080fd5b506040518060400160405280600c81526020017f43726f776446756e64696e6700000000000000000000000000000000000000008152506040518060400160405280600381526020017f43465400000000000000000000000000000000000000000000000000000000008152508160039080519060200190620000969291906200033b565b508060049080519060200190620000af9291906200033b565b505050620000d2620000c6620000eb60201b60201c565b620000f360201b60201c565b620000e5336000620001b960201b60201c565b62000596565b600033905090565b6000600560009054906101000a900473ffffffffffffffffffffffffffffffffffffffff16905081600560006101000a81548173ffffffffffffffffffffffffffffffffffffffff021916908373ffffffffffffffffffffffffffffffffffffffff1602179055508173ffffffffffffffffffffffffffffffffffffffff168173ffffffffffffffffffffffffffffffffffffffff167f8be0079c531659141344cd1fd0a4f28419497f9722a3daafe3b4186f6b6457e060405160405180910390a35050565b600073ffffffffffffffffffffffffffffffffffffffff168273ffffffffffffffffffffffffffffffffffffffff16036200022b576040517f08c379a000000000000000000000000000000000000000000000000000000000815260040162000222906200044c565b60405180910390fd5b6200023f600083836200033160201b60201c565b8060026000828254620002539190620004a7565b92505081905550806000808473ffffffffffffffffffffffffffffffffffffffff1673ffffffffffffffffffffffffffffffffffffffff1681526020019081526020016000206000828254620002aa9190620004a7565b925050819055508173ffffffffffffffffffffffffffffffffffffffff16600073ffffffffffffffffffffffffffffffffffffffff167fddf252ad1be2c89b69c2b068fc378daa952ba7f163c4a11628f55a4df523b3ef8360405162000311919062000515565b60405180910390a36200032d600083836200033660201b60201c565b5050565b505050565b505050565b828054620003499062000561565b90600052602060002090601f0160209004810192826200036d5760008555620003b9565b82601f106200038857805160ff1916838001178555620003b9565b82800160010185558215620003b9579182015b82811115620003b85782518255916020019190600101906200039b565b5b509050620003c89190620003cc565b5090565b5b80821115620003e7576000816000905550600101620003cd565b5090565b600082825260208201905092915050565b7f45524332303a206d696e7420746f20746865207a65726f206164647265737300600082015250565b600062000434601f83620003eb565b91506200044182620003fc565b602082019050919050565b60006020820190508181036000830152620004678162000425565b9050919050565b6000819050919050565b7f4e487b7100000000000000000000000000000000000000000000000000000000600052601160045260246000fd5b6000620004b4826200046e565b9150620004c1836200046e565b9250827fffffffffffffffffffffffffffffffffffffffffffffffffffffffffffffffff03821115620004f957620004f862000478565b5b828201905092915050565b6200050f816200046e565b82525050565b60006020820190506200052c600083018462000504565b92915050565b7f4e487b7100000000000000000000000000000000000000000000000000000000600052602260045260246000fd5b600060028204905060018216806200057a57607f821691505b60208210810362000590576200058f62000532565b5b50919050565b611a3480620005a66000396000f3fe608060405234801561001057600080fd5b50600436106101005760003560e01c8063715018a611610097578063a457c2d711610066578063a457c2d7146102b1578063a9059cbb146102e1578063dd62ed3e14610311578063f2fde38b1461034157610100565b8063715018a61461023b5780637c524ffc146102455780638da5cb5b1461027557806395d89b411461029357610100565b8063313ce567116100d3578063313ce567146101a157806339509351146101bf57806340c10f19146101ef57806370a082311461020b57610100565b806306fdde0314610105578063095ea7b31461012357806318160ddd1461015357806323b872dd14610171575b600080fd5b61010d61035d565b60405161011a919061115b565b60405180910390f35b61013d60048036038101906101389190611216565b6103ef565b60405161014a9190611271565b60405180910390f35b61015b610412565b604051610168919061129b565b60405180910390f35b61018b600480360381019061018691906112b6565b61041c565b6040516101989190611271565b60405180910390f35b6101a961044b565b6040516101b69190611325565b60405180910390f35b6101d960048036038101906101d49190611216565b610454565b6040516101e69190611271565b60405180910390f35b61020960048036038101906102049190611216565b6104fe565b005b61022560048036038101906102209190611340565b610588565b604051610232919061129b565b60405180910390f35b6102436105d0565b005b61025f600480360381019061025a91906112b6565b610658565b60405161026c9190611271565b60405180910390f35b61027d610670565b60405161028a919061137c565b60405180910390f35b61029b61069a565b6040516102a8919061115b565b60405180910390f35b6102cb60048036038101906102c69190611216565b61072c565b6040516102d89190611271565b60405180910390f35b6102fb60048036038101906102f69190611216565b610816565b6040516103089190611271565b60405180910390f35b61032b60048036038101906103269190611397565b610839565b604051610338919061129b565b60405180910390f35b61035b60048036038101906103569190611340565b6108c0565b005b60606003805461036c90611406565b80601f016020809104026020016040519081016040528092919081815260200182805461039890611406565b80156103e55780601f106103ba576101008083540402835291602001916103e5565b820191906000526020600020905b8154815290600101906020018083116103c857829003601f168201915b5050505050905090565b6000806103fa6109b7565b90506104078185856109bf565b600191505092915050565b6000600254905090565b6000806104276109b7565b9050610434858285610b88565b61043f858585610c14565b60019150509392505050565b60006012905090565b60008061045f6109b7565b90506104f3818585600160008673ffffffffffffffffffffffffffffffffffffffff1673ffffffffffffffffffffffffffffffffffffffff16815260200190815260200160002060008973ffffffffffffffffffffffffffffffffffffffff1673ffffffffffffffffffffffffffffffffffffffff168152602001908152602001600020546104ee9190611466565b6109bf565b600191505092915050565b6105066109b7565b73ffffffffffffffffffffffffffffffffffffffff16610524610670565b73ffffffffffffffffffffffffffffffffffffffff161461057a576040517f08c379a000000000000000000000000000000000000000000000000000000000815260040161057190611508565b60405180910390fd5b6105848282610e93565b5050565b60008060008373ffffffffffffffffffffffffffffffffffffffff1673ffffffffffffffffffffffffffffffffffffffff168152602001908152602001600020549050919050565b6105d86109b7565b73ffffffffffffffffffffffffffffffffffffffff166105f6610670565b73ffffffffffffffffffffffffffffffffffffffff161461064c576040517f08c379a000000000000000000000000000000000000000000000000000000000815260040161064390611508565b60405180910390fd5b6106566000610ff2565b565b6000610665848484610c14565b600190509392505050565b6000600560009054906101000a900473ffffffffffffffffffffffffffffffffffffffff16905090565b6060600480546106a990611406565b80601f01602080910402602001604051908101604052809291908181526020018280546106d590611406565b80156107225780601f106106f757610100808354040283529160200191610722565b820191906000526020600020905b81548152906001019060200180831161070557829003601f168201915b5050505050905090565b6000806107376109b7565b90506000600160008373ffffffffffffffffffffffffffffffffffffffff1673ffffffffffffffffffffffffffffffffffffffff16815260200190815260200160002060008673ffffffffffffffffffffffffffffffffffffffff1673ffffffffffffffffffffffffffffffffffffffff168152602001908152602001600020549050838110156107fd576040517f08c379a00000000000000000000000000000000000000000000000000000000081526004016107f49061159a565b60405180910390fd5b61080a82868684036109bf565b60019250505092915050565b6000806108216109b7565b905061082e818585610c14565b600191505092915050565b6000600160008473ffffffffffffffffffffffffffffffffffffffff1673ffffffffffffffffffffffffffffffffffffffff16815260200190815260200160002060008373ffffffffffffffffffffffffffffffffffffffff1673ffffffffffffffffffffffffffffffffffffffff16815260200190815260200160002054905092915050565b6108c86109b7565b73ffffffffffffffffffffffffffffffffffffffff166108e6610670565b73ffffffffffffffffffffffffffffffffffffffff161461093c576040517f08c379a000000000000000000000000000000000000000000000000000000000815260040161093390611508565b60405180910390fd5b600073ffffffffffffffffffffffffffffffffffffffff168173ffffffffffffffffffffffffffffffffffffffff16036109ab576040517f08c379a00000000000000000000000000000000000000000000000000000000081526004016109a29061162c565b60405180910390fd5b6109b481610ff2565b50565b600033905090565b600073ffffffffffffffffffffffffffffffffffffffff168373ffffffffffffffffffffffffffffffffffffffff1603610a2e576040517f08c379a0000000000000000000000000000000000000000000000000000000008152600401610a25906116be565b60405180910390fd5b600073ffffffffffffffffffffffffffffffffffffffff168273ffffffffffffffffffffffffffffffffffffffff1603610a9d576040517f08c379a0000000000000000000000000000000000000000000000000000000008152600401610a9490611750565b60405180910390fd5b80600160008573ffffffffffffffffffffffffffffffffffffffff1673ffffffffffffffffffffffffffffffffffffffff16815260200190815260200160002060008473ffffffffffffffffffffffffffffffffffffffff1673ffffffffffffffffffffffffffffffffffffffff168152602001908152602001600020819055508173ffffffffffffffffffffffffffffffffffffffff168373ffffffffffffffffffffffffffffffffffffffff167f8c5be1e5ebec7d5bd14f71427d1e84f3dd0314c0f7b2291e5b200ac8c7c3b92583604051610b7b919061129b565b60405180910390a3505050565b6000610b948484610839565b90507fffffffffffffffffffffffffffffffffffffffffffffffffffffffffffffffff8114610c0e5781811015610c00576040517f08c379a0000000000000000000000000000000000000000000000000000000008152600401610bf7906117bc565b60405180910390fd5b610c0d84848484036109bf565b5b50505050565b600073ffffffffffffffffffffffffffffffffffffffff168373ffffffffffffffffffffffffffffffffffffffff1603610c83576040517f08c379a0000000000000000000000000000000000000000000000000000000008152600401610c7a9061184e565b60405180910390fd5b600073ffffffffffffffffffffffffffffffffffffffff168273ffffffffffffffffffffffffffffffffffffffff1603610cf2576040517f08c379a0000000000000000000000000000000000000000000000000000000008152600401610ce9906118e0565b60405180910390fd5b610cfd8383836110b8565b60008060008573ffffffffffffffffffffffffffffffffffffffff1673ffffffffffffffffffffffffffffffffffffffff16815260200190815260200160002054905081811015610d83576040517f08c379a0000000000000000000000000000000000000000000000000000000008152600401610d7a90611972565b60405180910390fd5b8181036000808673ffffffffffffffffffffffffffffffffffffffff1673ffffffffffffffffffffffffffffffffffffffff16815260200190815260200160002081905550816000808573ffffffffffffffffffffffffffffffffffffffff1673ffffffffffffffffffffffffffffffffffffffff1681526020019081526020016000206000828254610e169190611466565b925050819055508273ffffffffffffffffffffffffffffffffffffffff168473ffffffffffffffffffffffffffffffffffffffff167fddf252ad1be2c89b69c2b068fc378daa952ba7f163c4a11628f55a4df523b3ef84604051610e7a919061129b565b60405180910390a3610e8d8484846110bd565b50505050565b600073ffffffffffffffffffffffffffffffffffffffff168273ffffffffffffffffffffffffffffffffffffffff1603610f02576040517f08c379a0000000000000000000000000000000000000000000000000000000008152600401610ef9906119de565b60405180910390fd5b610f0e600083836110b8565b8060026000828254610f209190611466565b92505081905550806000808473ffffffffffffffffffffffffffffffffffffffff1673ffffffffffffffffffffffffffffffffffffffff1681526020019081526020016000206000828254610f759190611466565b925050819055508173ffffffffffffffffffffffffffffffffffffffff16600073ffffffffffffffffffffffffffffffffffffffff167fddf252ad1be2c89b69c2b068fc378daa952ba7f163c4a11628f55a4df523b3ef83604051610fda919061129b565b60405180910390a3610fee600083836110bd565b5050565b6000600560009054906101000a900473ffffffffffffffffffffffffffffffffffffffff16905081600560006101000a81548173ffffffffffffffffffffffffffffffffffffffff021916908373ffffffffffffffffffffffffffffffffffffffff1602179055508173ffffffffffffffffffffffffffffffffffffffff168173ffffffffffffffffffffffffffffffffffffffff167f8be0079c531659141344cd1fd0a4f28419497f9722a3daafe3b4186f6b6457e060405160405180910390a35050565b505050565b505050565b600081519050919050565b600082825260208201905092915050565b60005b838110156110fc5780820151818401526020810190506110e1565b8381111561110b576000848401525b50505050565b6000601f19601f8301169050919050565b600061112d826110c2565b61113781856110cd565b93506111478185602086016110de565b61115081611111565b840191505092915050565b600060208201905081810360008301526111758184611122565b905092915050565b600080fd5b600073ffffffffffffffffffffffffffffffffffffffff82169050919050565b60006111ad82611182565b9050919050565b6111bd816111a2565b81146111c857600080fd5b50565b6000813590506111da816111b4565b92915050565b6000819050919050565b6111f3816111e0565b81146111fe57600080fd5b50565b600081359050611210816111ea565b92915050565b6000806040838503121561122d5761122c61117d565b5b600061123b858286016111cb565b925050602061124c85828601611201565b9150509250929050565b60008115159050919050565b61126b81611256565b82525050565b60006020820190506112866000830184611262565b92915050565b611295816111e0565b82525050565b60006020820190506112b0600083018461128c565b92915050565b6000806000606084860312156112cf576112ce61117d565b5b60006112dd868287016111cb565b93505060206112ee868287016111cb565b92505060406112ff86828701611201565b9150509250925092565b600060ff82169050919050565b61131f81611309565b82525050565b600060208201905061133a6000830184611316565b92915050565b6000602082840312156113565761135561117d565b5b6000611364848285016111cb565b91505092915050565b611376816111a2565b82525050565b6000602082019050611391600083018461136d565b92915050565b600080604083850312156113ae576113ad61117d565b5b60006113bc858286016111cb565b92505060206113cd858286016111cb565b9150509250929050565b7f4e487b7100000000000000000000000000000000000000000000000000000000600052602260045260246000fd5b6000600282049050600182168061141e57607f821691505b602082108103611431576114306113d7565b5b50919050565b7f4e487b7100000000000000000000000000000000000000000000000000000000600052601160045260246000fd5b6000611471826111e0565b915061147c836111e0565b9250827fffffffffffffffffffffffffffffffffffffffffffffffffffffffffffffffff038211156114b1576114b0611437565b5b828201905092915050565b7f4f776e61626c653a2063616c6c6572206973206e6f7420746865206f776e6572600082015250565b60006114f26020836110cd565b91506114fd826114bc565b602082019050919050565b60006020820190508181036000830152611521816114e5565b9050919050565b7f45524332303a2064656372656173656420616c6c6f77616e63652062656c6f7760008201527f207a65726f000000000000000000000000000000000000000000000000000000602082015250565b60006115846025836110cd565b915061158f82611528565b604082019050919050565b600060208201905081810360008301526115b381611577565b9050919050565b7f4f776e61626c653a206e6577206f776e657220697320746865207a65726f206160008201527f6464726573730000000000000000000000000000000000000000000000000000602082015250565b60006116166026836110cd565b9150611621826115ba565b604082019050919050565b6000602082019050818103600083015261164581611609565b9050919050565b7f45524332303a20617070726f76652066726f6d20746865207a65726f2061646460008201527f7265737300000000000000000000000000000000000000000000000000000000602082015250565b60006116a86024836110cd565b91506116b38261164c565b604082019050919050565b600060208201905081810360008301526116d78161169b565b9050919050565b7f45524332303a20617070726f766520746f20746865207a65726f20616464726560008201527f7373000000000000000000000000000000000000000000000000000000000000602082015250565b600061173a6022836110cd565b9150611745826116de565b604082019050919050565b600060208201905081810360008301526117698161172d565b9050919050565b7f45524332303a20696e73756666696369656e7420616c6c6f77616e6365000000600082015250565b60006117a6601d836110cd565b91506117b182611770565b602082019050919050565b600060208201905081810360008301526117d581611799565b9050919050565b7f45524332303a207472616e736665722066726f6d20746865207a65726f20616460008201527f6472657373000000000000000000000000000000000000000000000000000000602082015250565b60006118386025836110cd565b9150611843826117dc565b604082019050919050565b600060208201905081810360008301526118678161182b565b9050919050565b7f45524332303a207472616e7366657220746f20746865207a65726f206164647260008201527f6573730000000000000000000000000000000000000000000000000000000000602082015250565b60006118ca6023836110cd565b91506118d58261186e565b604082019050919050565b600060208201905081810360008301526118f9816118bd565b9050919050565b7f45524332303a207472616e7366657220616d6f756e742065786365656473206260008201527f616c616e63650000000000000000000000000000000000000000000000000000602082015250565b600061195c6026836110cd565b915061196782611900565b604082019050919050565b6000602082019050818103600083015261198b8161194f565b9050919050565b7f45524332303a206d696e7420746f20746865207a65726f206164647265737300600082015250565b60006119c8601f836110cd565b91506119d382611992565b602082019050919050565b600060208201905081810360008301526119f7816119bb565b905091905056fea264697066735822122033d2c7cc872f3326e32e24c0ac8a259f7504cebac96ead558615378774d5172264736f6c634300080d0033",
  "immutableReferences": {},
  "source": "// SPDX-License-Identifier: MIT\n\nimport \"./CrowdFundingTOKEN.sol\";\nimport \"@openzeppelin/contracts/access/Ownable.sol\";\nimport \"@openzeppelin/contracts/utils/Counters.sol\";\n\npragma solidity ^0.8.0;\n\ncontract CrowdFunding is Ownable {\n    CrowdFundingTOKEN private _token;\n    string private _name;\n    uint256 private _cantTokenForExchange;\n    uint256 private _cantTokenToTheWinner;\n    bool private _stateCanFund;\n    uint256 private _priceTokenCFT;\n    uint256 private _priceTicketLottery;\n    using Counters for Counters.Counter;\n    Counters.Counter private _numberTicket;\n    mapping (address => uint256 []) _Address_ListNumberTicketMap;\n    mapping (uint256 => address) _numberTicketAssigned_AddressMap;\n\n    struct WinnerLotteryStruct{\n        address accountWinner;\n        uint256 numberWinner; \n    }\n    WinnerLotteryStruct private _winnerLotteryStruct;\n\n    event LogBuyToken(uint indexed date, address indexed _buyer, uint cantToken);\n    event LogBuyTicket(uint indexed date,address indexed from, uint256 priceTicket);    \n    event LogMakeLottery(uint indexed date, address indexed accountWinner, uint numberWinner);\n    event LogAddToken(uint indexed date, uint256 cantAddTokenForExchange, \n        uint256 cantAddTokenToTheWinner);\n    \n    constructor() {\n        _token = new CrowdFundingTOKEN();\n        _name = \"\";\n        _stateCanFund = false;\n        _token.approve(address(this), 0);\n        _priceTokenCFT = 1 ether;\n        _priceTicketLottery = 2;\n    }\n\n    function setNameCrowdFunding(string memory name) public onlyOwner {\n        // Verifica que el Nombre no sea nulo\n        require(bytes(name).length > 0);        \n        _name = name;        \n    }\n\n    function getDataCrowdFunding() external view returns (string memory, uint256,uint256, bool, uint256) {        \n        return (_name, _cantTokenForExchange, _cantTokenToTheWinner, _stateCanFund, _token.totalSupply());\n    }\n\n    function getPriceTokenCFT() external view returns(uint256) {\n        return _priceTokenCFT;\n    }\n\n    function getPriceTicketLottery() external view returns(uint256) {\n        return _priceTicketLottery;\n    }\n\n    function getTotalGeneratedToken() external view returns (uint256) {\n        return _token.totalSupply();\n    }\n\n    function addToken(uint256 cantAddTokenForExchange, \n        uint256 cantAddTokenToTheWinner) external onlyOwner {\n\n        require(cantAddTokenForExchange > 0);\n        require(cantAddTokenToTheWinner >= 0);\n\n        _token.mint(\n                msg.sender, \n                cantAddTokenForExchange + \n                cantAddTokenToTheWinner)\n        ;\n        _cantTokenForExchange = _cantTokenForExchange + cantAddTokenForExchange;\n        _cantTokenToTheWinner = _cantTokenToTheWinner + cantAddTokenToTheWinner;\n        _token.increaseAllowance(address(this), _cantTokenForExchange);\n        \n        emit LogAddToken(block.timestamp, cantAddTokenForExchange, cantAddTokenToTheWinner);\n\n    }\n\n    function openCrowdFunding() external onlyOwner {\n        _stateCanFund = true;\n    }\n\n    function closeCrowdFunding() external  onlyOwner {\n        _stateCanFund = false;\n    }\n\n    function getBalanceCFT(address account) view external returns (uint256){\n        return _token.balanceOf(account);\n    }\n\n    function getBalanceCrowdFundingETH() view external returns(uint256){\n        return (address(this).balance);\n    }\n\n    function buyToken(address payable _buyer, uint cantToken) external payable {\n        uint totalPriceToken = _priceTokenCFT * cantToken;\n        require(msg.value >= totalPriceToken);\n        require(_cantTokenForExchange > 0);        \n\n        uint returnValue = msg.value - totalPriceToken;\n        if (returnValue > 0){\n            _buyer.transfer(returnValue);\n        }                    \n\n        _token.transferCFT(owner(), msg.sender, cantToken);\n        _cantTokenForExchange -= cantToken;\n\n        emit LogBuyToken(block.timestamp, _buyer, cantToken);\n    }\n\n    function buyTicketLottery() external {                \n        require(_stateCanFund == true);\n        require(this.getBalanceCFT(msg.sender) >= this.getPriceTicketLottery());\n\n        _numberTicket.increment();\n        _Address_ListNumberTicketMap[msg.sender].push(_numberTicket.current());\n        _numberTicketAssigned_AddressMap[_numberTicket.current()] = msg.sender;\n\n        _token.transferCFT(msg.sender, address(this), this.getPriceTicketLottery());\n\n        emit LogBuyTicket(block.timestamp, msg.sender, this.getPriceTicketLottery());\n\n    }\n\n    function getCantTicketTotalLottery() view external returns(uint256) {        \n        return _numberTicket.current();\n    }\n\n    function getCantTicketLotteryFromAccount(address account) view external returns(uint256) {\n        return _Address_ListNumberTicketMap[account].length;\n    }\n    \n    function getAddressFromNumberLotteryAssigned(\n        uint256 _number) view external returns(address) {\n        return _numberTicketAssigned_AddressMap[_number];\n    }\n\n    function getListNumberTicketAssigned(address account) view external returns(uint256 [] memory) {\n        return _Address_ListNumberTicketMap[account];\n    }\n\n    function makeLottery() external onlyOwner{\n    //verificar que est cerrado el crowdfundiong\n    //verificar que haya nmero vendidos\n    //generar el random con el nmero mximo de venta\n    //devolver tokenes a todos los participantes\n    //darle al ganador el premio\n    require(_numberTicket.current()>0);\n    require(_stateCanFund == false);\n    // genera nmero entere 0 y current() - 1\n    uint numberWinner = uint(uint(keccak256(abi.encodePacked(block.timestamp))) % _numberTicket.current());\n    numberWinner++;\n\n    _winnerLotteryStruct.accountWinner = this.getAddressFromNumberLotteryAssigned(numberWinner);\n    _winnerLotteryStruct.numberWinner = numberWinner;\n\n    for (uint256 index = 1; index <= _numberTicket.current(); index++){\n        _token.transferCFT(address(this), _numberTicketAssigned_AddressMap[index], \n        _priceTicketLottery);\n    }\n    \n    _token.transferCFT(owner(), _numberTicketAssigned_AddressMap[numberWinner], \n        _cantTokenToTheWinner);\n\n    emit LogMakeLottery(block.timestamp, _winnerLotteryStruct.accountWinner,\n        _winnerLotteryStruct.numberWinner);\n    }\n\n    function getWinnerLottery() external view returns(WinnerLotteryStruct memory) {\n        return _winnerLotteryStruct;\n    }\n}",
  "sourcePath": "/home/ubuntu/dev/tpfunir/contracts/CrowdFunding.sol",
  "compiler": {
    "name": "solc",
    "version": "0.8.13+commit.abaa5c0e.Emscripten.clang"
  },
  "schemaVersion": "3.4.6",
  "updatedAt": "2022-04-03T20:34:33.416Z",
  "devdoc": {
    "kind": "dev",
    "methods": {
      "owner()": {
        "details": "Returns the address of the current owner."
      },
      "renounceOwnership()": {
        "details": "Leaves the contract without owner. It will not be possible to call `onlyOwner` functions anymore. Can only be called by the current owner. NOTE: Renouncing ownership will leave the contract without an owner, thereby removing any functionality that is only available to the owner."
      },
      "transferOwnership(address)": {
        "details": "Transfers ownership of the contract to a new account (`newOwner`). Can only be called by the current owner."
      }
    },
    "version": 1
  },
  "userdoc": {
    "kind": "user",
    "methods": {},
    "version": 1
  }
}