{
  "contractName": "CrowdFunding",
  "abi": [
    {
      "inputs": [],
      "stateMutability": "nonpayable",
      "type": "constructor"
    },
    {
      "anonymous": false,
      "inputs": [
        {
          "indexed": true,
          "internalType": "address",
          "name": "previousOwner",
          "type": "address"
        },
        {
          "indexed": true,
          "internalType": "address",
          "name": "newOwner",
          "type": "address"
        }
      ],
      "name": "OwnershipTransferred",
      "type": "event"
    },
    {
      "inputs": [],
      "name": "owner",
      "outputs": [
        {
          "internalType": "address",
          "name": "",
          "type": "address"
        }
      ],
      "stateMutability": "view",
      "type": "function"
    },
    {
      "inputs": [],
      "name": "renounceOwnership",
      "outputs": [],
      "stateMutability": "nonpayable",
      "type": "function"
    },
    {
      "inputs": [
        {
          "internalType": "address",
          "name": "newOwner",
          "type": "address"
        }
      ],
      "name": "transferOwnership",
      "outputs": [],
      "stateMutability": "nonpayable",
      "type": "function"
    },
    {
      "inputs": [],
      "name": "totalToken",
      "outputs": [
        {
          "internalType": "uint256",
          "name": "",
          "type": "uint256"
        }
      ],
      "stateMutability": "view",
      "type": "function"
    },
    {
      "inputs": [
        {
          "internalType": "uint256",
          "name": "_addToken",
          "type": "uint256"
        }
      ],
      "name": "addToken",
      "outputs": [],
      "stateMutability": "nonpayable",
      "type": "function"
    }
  ],
  "bytecode": "0x608060405234801561001057600080fd5b5061002d61002261009b60201b60201c565b6100a360201b60201c565b60405161003990610167565b604051809103906000f080158015610055573d6000803e3d6000fd5b50600160006101000a81548173ffffffffffffffffffffffffffffffffffffffff021916908373ffffffffffffffffffffffffffffffffffffffff160217905550610174565b600033905090565b60008060009054906101000a900473ffffffffffffffffffffffffffffffffffffffff169050816000806101000a81548173ffffffffffffffffffffffffffffffffffffffff021916908373ffffffffffffffffffffffffffffffffffffffff1602179055508173ffffffffffffffffffffffffffffffffffffffff168173ffffffffffffffffffffffffffffffffffffffff167f8be0079c531659141344cd1fd0a4f28419497f9722a3daafe3b4186f6b6457e060405160405180910390a35050565b611f908061096f83390190565b6107ec806101836000396000f3fe608060405234801561001057600080fd5b50600436106100575760003560e01c8063179d375c1461005c578063626be56714610078578063715018a6146100965780638da5cb5b146100a0578063f2fde38b146100be575b600080fd5b61007660048036038101906100719190610530565b6100da565b005b6100806101e8565b60405161008d919061056c565b60405180910390f35b61009e610280565b005b6100a8610308565b6040516100b591906105c8565b60405180910390f35b6100d860048036038101906100d3919061060f565b610331565b005b6100e2610429565b73ffffffffffffffffffffffffffffffffffffffff16610100610308565b73ffffffffffffffffffffffffffffffffffffffff1614610156576040517f08c379a000000000000000000000000000000000000000000000000000000000815260040161014d90610699565b60405180910390fd5b600160009054906101000a900473ffffffffffffffffffffffffffffffffffffffff1673ffffffffffffffffffffffffffffffffffffffff166340c10f1933836040518363ffffffff1660e01b81526004016101b39291906106b9565b600060405180830381600087803b1580156101cd57600080fd5b505af11580156101e1573d6000803e3d6000fd5b5050505050565b6000600160009054906101000a900473ffffffffffffffffffffffffffffffffffffffff1673ffffffffffffffffffffffffffffffffffffffff166318160ddd6040518163ffffffff1660e01b8152600401602060405180830381865afa158015610257573d6000803e3d6000fd5b505050506040513d601f19601f8201168201806040525081019061027b91906106f7565b905090565b610288610429565b73ffffffffffffffffffffffffffffffffffffffff166102a6610308565b73ffffffffffffffffffffffffffffffffffffffff16146102fc576040517f08c379a00000000000000000000000000000000000000000000000000000000081526004016102f390610699565b60405180910390fd5b6103066000610431565b565b60008060009054906101000a900473ffffffffffffffffffffffffffffffffffffffff16905090565b610339610429565b73ffffffffffffffffffffffffffffffffffffffff16610357610308565b73ffffffffffffffffffffffffffffffffffffffff16146103ad576040517f08c379a00000000000000000000000000000000000000000000000000000000081526004016103a490610699565b60405180910390fd5b600073ffffffffffffffffffffffffffffffffffffffff168173ffffffffffffffffffffffffffffffffffffffff16141561041d576040517f08c379a000000000000000000000000000000000000000000000000000000000815260040161041490610796565b60405180910390fd5b61042681610431565b50565b600033905090565b60008060009054906101000a900473ffffffffffffffffffffffffffffffffffffffff169050816000806101000a81548173ffffffffffffffffffffffffffffffffffffffff021916908373ffffffffffffffffffffffffffffffffffffffff1602179055508173ffffffffffffffffffffffffffffffffffffffff168173ffffffffffffffffffffffffffffffffffffffff167f8be0079c531659141344cd1fd0a4f28419497f9722a3daafe3b4186f6b6457e060405160405180910390a35050565b600080fd5b6000819050919050565b61050d816104fa565b811461051857600080fd5b50565b60008135905061052a81610504565b92915050565b600060208284031215610546576105456104f5565b5b60006105548482850161051b565b91505092915050565b610566816104fa565b82525050565b6000602082019050610581600083018461055d565b92915050565b600073ffffffffffffffffffffffffffffffffffffffff82169050919050565b60006105b282610587565b9050919050565b6105c2816105a7565b82525050565b60006020820190506105dd60008301846105b9565b92915050565b6105ec816105a7565b81146105f757600080fd5b50565b600081359050610609816105e3565b92915050565b600060208284031215610625576106246104f5565b5b6000610633848285016105fa565b91505092915050565b600082825260208201905092915050565b7f4f776e61626c653a2063616c6c6572206973206e6f7420746865206f776e6572600082015250565b600061068360208361063c565b915061068e8261064d565b602082019050919050565b600060208201905081810360008301526106b281610676565b9050919050565b60006040820190506106ce60008301856105b9565b6106db602083018461055d565b9392505050565b6000815190506106f181610504565b92915050565b60006020828403121561070d5761070c6104f5565b5b600061071b848285016106e2565b91505092915050565b7f4f776e61626c653a206e6577206f776e657220697320746865207a65726f206160008201527f6464726573730000000000000000000000000000000000000000000000000000602082015250565b600061078060268361063c565b915061078b82610724565b604082019050919050565b600060208201905081810360008301526107af81610773565b905091905056fea26469706673582212205f08686e6c3736c3a2929df98515eb3c22d6c54abc1115b5c5d25678dec1160264736f6c634300080c003360806040523480156200001157600080fd5b506040518060400160405280600c81526020017f43726f776446756e64696e6700000000000000000000000000000000000000008152506040518060400160405280600381526020017f43465400000000000000000000000000000000000000000000000000000000008152508160039080519060200190620000969291906200033c565b508060049080519060200190620000af9291906200033c565b505050620000d2620000c6620000eb60201b60201c565b620000f360201b60201c565b620000e5336000620001b960201b60201c565b62000598565b600033905090565b6000600560009054906101000a900473ffffffffffffffffffffffffffffffffffffffff16905081600560006101000a81548173ffffffffffffffffffffffffffffffffffffffff021916908373ffffffffffffffffffffffffffffffffffffffff1602179055508173ffffffffffffffffffffffffffffffffffffffff168173ffffffffffffffffffffffffffffffffffffffff167f8be0079c531659141344cd1fd0a4f28419497f9722a3daafe3b4186f6b6457e060405160405180910390a35050565b600073ffffffffffffffffffffffffffffffffffffffff168273ffffffffffffffffffffffffffffffffffffffff1614156200022c576040517f08c379a000000000000000000000000000000000000000000000000000000000815260040162000223906200044d565b60405180910390fd5b62000240600083836200033260201b60201c565b8060026000828254620002549190620004a8565b92505081905550806000808473ffffffffffffffffffffffffffffffffffffffff1673ffffffffffffffffffffffffffffffffffffffff1681526020019081526020016000206000828254620002ab9190620004a8565b925050819055508173ffffffffffffffffffffffffffffffffffffffff16600073ffffffffffffffffffffffffffffffffffffffff167fddf252ad1be2c89b69c2b068fc378daa952ba7f163c4a11628f55a4df523b3ef8360405162000312919062000516565b60405180910390a36200032e600083836200033760201b60201c565b5050565b505050565b505050565b8280546200034a9062000562565b90600052602060002090601f0160209004810192826200036e5760008555620003ba565b82601f106200038957805160ff1916838001178555620003ba565b82800160010185558215620003ba579182015b82811115620003b95782518255916020019190600101906200039c565b5b509050620003c99190620003cd565b5090565b5b80821115620003e8576000816000905550600101620003ce565b5090565b600082825260208201905092915050565b7f45524332303a206d696e7420746f20746865207a65726f206164647265737300600082015250565b600062000435601f83620003ec565b91506200044282620003fd565b602082019050919050565b60006020820190508181036000830152620004688162000426565b9050919050565b6000819050919050565b7f4e487b7100000000000000000000000000000000000000000000000000000000600052601160045260246000fd5b6000620004b5826200046f565b9150620004c2836200046f565b9250827fffffffffffffffffffffffffffffffffffffffffffffffffffffffffffffffff03821115620004fa57620004f962000479565b5b828201905092915050565b62000510816200046f565b82525050565b60006020820190506200052d600083018462000505565b92915050565b7f4e487b7100000000000000000000000000000000000000000000000000000000600052602260045260246000fd5b600060028204905060018216806200057b57607f821691505b6020821081141562000592576200059162000533565b5b50919050565b6119e880620005a86000396000f3fe608060405234801561001057600080fd5b50600436106100f55760003560e01c806370a0823111610097578063a457c2d711610066578063a457c2d714610276578063a9059cbb146102a6578063dd62ed3e146102d6578063f2fde38b14610306576100f5565b806370a0823114610200578063715018a6146102305780638da5cb5b1461023a57806395d89b4114610258576100f5565b806323b872dd116100d357806323b872dd14610166578063313ce5671461019657806339509351146101b457806340c10f19146101e4576100f5565b806306fdde03146100fa578063095ea7b31461011857806318160ddd14610148575b600080fd5b610102610322565b60405161010f919061110e565b60405180910390f35b610132600480360381019061012d91906111c9565b6103b4565b60405161013f9190611224565b60405180910390f35b6101506103d7565b60405161015d919061124e565b60405180910390f35b610180600480360381019061017b9190611269565b6103e1565b60405161018d9190611224565b60405180910390f35b61019e610410565b6040516101ab91906112d8565b60405180910390f35b6101ce60048036038101906101c991906111c9565b610419565b6040516101db9190611224565b60405180910390f35b6101fe60048036038101906101f991906111c9565b6104c3565b005b61021a600480360381019061021591906112f3565b61054d565b604051610227919061124e565b60405180910390f35b610238610595565b005b61024261061d565b60405161024f919061132f565b60405180910390f35b610260610647565b60405161026d919061110e565b60405180910390f35b610290600480360381019061028b91906111c9565b6106d9565b60405161029d9190611224565b60405180910390f35b6102c060048036038101906102bb91906111c9565b6107c3565b6040516102cd9190611224565b60405180910390f35b6102f060048036038101906102eb919061134a565b6107e6565b6040516102fd919061124e565b60405180910390f35b610320600480360381019061031b91906112f3565b61086d565b005b606060038054610331906113b9565b80601f016020809104026020016040519081016040528092919081815260200182805461035d906113b9565b80156103aa5780601f1061037f576101008083540402835291602001916103aa565b820191906000526020600020905b81548152906001019060200180831161038d57829003601f168201915b5050505050905090565b6000806103bf610965565b90506103cc81858561096d565b600191505092915050565b6000600254905090565b6000806103ec610965565b90506103f9858285610b38565b610404858585610bc4565b60019150509392505050565b60006012905090565b600080610424610965565b90506104b8818585600160008673ffffffffffffffffffffffffffffffffffffffff1673ffffffffffffffffffffffffffffffffffffffff16815260200190815260200160002060008973ffffffffffffffffffffffffffffffffffffffff1673ffffffffffffffffffffffffffffffffffffffff168152602001908152602001600020546104b3919061141a565b61096d565b600191505092915050565b6104cb610965565b73ffffffffffffffffffffffffffffffffffffffff166104e961061d565b73ffffffffffffffffffffffffffffffffffffffff161461053f576040517f08c379a0000000000000000000000000000000000000000000000000000000008152600401610536906114bc565b60405180910390fd5b6105498282610e45565b5050565b60008060008373ffffffffffffffffffffffffffffffffffffffff1673ffffffffffffffffffffffffffffffffffffffff168152602001908152602001600020549050919050565b61059d610965565b73ffffffffffffffffffffffffffffffffffffffff166105bb61061d565b73ffffffffffffffffffffffffffffffffffffffff1614610611576040517f08c379a0000000000000000000000000000000000000000000000000000000008152600401610608906114bc565b60405180910390fd5b61061b6000610fa5565b565b6000600560009054906101000a900473ffffffffffffffffffffffffffffffffffffffff16905090565b606060048054610656906113b9565b80601f0160208091040260200160405190810160405280929190818152602001828054610682906113b9565b80156106cf5780601f106106a4576101008083540402835291602001916106cf565b820191906000526020600020905b8154815290600101906020018083116106b257829003601f168201915b5050505050905090565b6000806106e4610965565b90506000600160008373ffffffffffffffffffffffffffffffffffffffff1673ffffffffffffffffffffffffffffffffffffffff16815260200190815260200160002060008673ffffffffffffffffffffffffffffffffffffffff1673ffffffffffffffffffffffffffffffffffffffff168152602001908152602001600020549050838110156107aa576040517f08c379a00000000000000000000000000000000000000000000000000000000081526004016107a19061154e565b60405180910390fd5b6107b7828686840361096d565b60019250505092915050565b6000806107ce610965565b90506107db818585610bc4565b600191505092915050565b6000600160008473ffffffffffffffffffffffffffffffffffffffff1673ffffffffffffffffffffffffffffffffffffffff16815260200190815260200160002060008373ffffffffffffffffffffffffffffffffffffffff1673ffffffffffffffffffffffffffffffffffffffff16815260200190815260200160002054905092915050565b610875610965565b73ffffffffffffffffffffffffffffffffffffffff1661089361061d565b73ffffffffffffffffffffffffffffffffffffffff16146108e9576040517f08c379a00000000000000000000000000000000000000000000000000000000081526004016108e0906114bc565b60405180910390fd5b600073ffffffffffffffffffffffffffffffffffffffff168173ffffffffffffffffffffffffffffffffffffffff161415610959576040517f08c379a0000000000000000000000000000000000000000000000000000000008152600401610950906115e0565b60405180910390fd5b61096281610fa5565b50565b600033905090565b600073ffffffffffffffffffffffffffffffffffffffff168373ffffffffffffffffffffffffffffffffffffffff1614156109dd576040517f08c379a00000000000000000000000000000000000000000000000000000000081526004016109d490611672565b60405180910390fd5b600073ffffffffffffffffffffffffffffffffffffffff168273ffffffffffffffffffffffffffffffffffffffff161415610a4d576040517f08c379a0000000000000000000000000000000000000000000000000000000008152600401610a4490611704565b60405180910390fd5b80600160008573ffffffffffffffffffffffffffffffffffffffff1673ffffffffffffffffffffffffffffffffffffffff16815260200190815260200160002060008473ffffffffffffffffffffffffffffffffffffffff1673ffffffffffffffffffffffffffffffffffffffff168152602001908152602001600020819055508173ffffffffffffffffffffffffffffffffffffffff168373ffffffffffffffffffffffffffffffffffffffff167f8c5be1e5ebec7d5bd14f71427d1e84f3dd0314c0f7b2291e5b200ac8c7c3b92583604051610b2b919061124e565b60405180910390a3505050565b6000610b4484846107e6565b90507fffffffffffffffffffffffffffffffffffffffffffffffffffffffffffffffff8114610bbe5781811015610bb0576040517f08c379a0000000000000000000000000000000000000000000000000000000008152600401610ba790611770565b60405180910390fd5b610bbd848484840361096d565b5b50505050565b600073ffffffffffffffffffffffffffffffffffffffff168373ffffffffffffffffffffffffffffffffffffffff161415610c34576040517f08c379a0000000000000000000000000000000000000000000000000000000008152600401610c2b90611802565b60405180910390fd5b600073ffffffffffffffffffffffffffffffffffffffff168273ffffffffffffffffffffffffffffffffffffffff161415610ca4576040517f08c379a0000000000000000000000000000000000000000000000000000000008152600401610c9b90611894565b60405180910390fd5b610caf83838361106b565b60008060008573ffffffffffffffffffffffffffffffffffffffff1673ffffffffffffffffffffffffffffffffffffffff16815260200190815260200160002054905081811015610d35576040517f08c379a0000000000000000000000000000000000000000000000000000000008152600401610d2c90611926565b60405180910390fd5b8181036000808673ffffffffffffffffffffffffffffffffffffffff1673ffffffffffffffffffffffffffffffffffffffff16815260200190815260200160002081905550816000808573ffffffffffffffffffffffffffffffffffffffff1673ffffffffffffffffffffffffffffffffffffffff1681526020019081526020016000206000828254610dc8919061141a565b925050819055508273ffffffffffffffffffffffffffffffffffffffff168473ffffffffffffffffffffffffffffffffffffffff167fddf252ad1be2c89b69c2b068fc378daa952ba7f163c4a11628f55a4df523b3ef84604051610e2c919061124e565b60405180910390a3610e3f848484611070565b50505050565b600073ffffffffffffffffffffffffffffffffffffffff168273ffffffffffffffffffffffffffffffffffffffff161415610eb5576040517f08c379a0000000000000000000000000000000000000000000000000000000008152600401610eac90611992565b60405180910390fd5b610ec16000838361106b565b8060026000828254610ed3919061141a565b92505081905550806000808473ffffffffffffffffffffffffffffffffffffffff1673ffffffffffffffffffffffffffffffffffffffff1681526020019081526020016000206000828254610f28919061141a565b925050819055508173ffffffffffffffffffffffffffffffffffffffff16600073ffffffffffffffffffffffffffffffffffffffff167fddf252ad1be2c89b69c2b068fc378daa952ba7f163c4a11628f55a4df523b3ef83604051610f8d919061124e565b60405180910390a3610fa160008383611070565b5050565b6000600560009054906101000a900473ffffffffffffffffffffffffffffffffffffffff16905081600560006101000a81548173ffffffffffffffffffffffffffffffffffffffff021916908373ffffffffffffffffffffffffffffffffffffffff1602179055508173ffffffffffffffffffffffffffffffffffffffff168173ffffffffffffffffffffffffffffffffffffffff167f8be0079c531659141344cd1fd0a4f28419497f9722a3daafe3b4186f6b6457e060405160405180910390a35050565b505050565b505050565b600081519050919050565b600082825260208201905092915050565b60005b838110156110af578082015181840152602081019050611094565b838111156110be576000848401525b50505050565b6000601f19601f8301169050919050565b60006110e082611075565b6110ea8185611080565b93506110fa818560208601611091565b611103816110c4565b840191505092915050565b6000602082019050818103600083015261112881846110d5565b905092915050565b600080fd5b600073ffffffffffffffffffffffffffffffffffffffff82169050919050565b600061116082611135565b9050919050565b61117081611155565b811461117b57600080fd5b50565b60008135905061118d81611167565b92915050565b6000819050919050565b6111a681611193565b81146111b157600080fd5b50565b6000813590506111c38161119d565b92915050565b600080604083850312156111e0576111df611130565b5b60006111ee8582860161117e565b92505060206111ff858286016111b4565b9150509250929050565b60008115159050919050565b61121e81611209565b82525050565b60006020820190506112396000830184611215565b92915050565b61124881611193565b82525050565b6000602082019050611263600083018461123f565b92915050565b60008060006060848603121561128257611281611130565b5b60006112908682870161117e565b93505060206112a18682870161117e565b92505060406112b2868287016111b4565b9150509250925092565b600060ff82169050919050565b6112d2816112bc565b82525050565b60006020820190506112ed60008301846112c9565b92915050565b60006020828403121561130957611308611130565b5b60006113178482850161117e565b91505092915050565b61132981611155565b82525050565b60006020820190506113446000830184611320565b92915050565b6000806040838503121561136157611360611130565b5b600061136f8582860161117e565b92505060206113808582860161117e565b9150509250929050565b7f4e487b7100000000000000000000000000000000000000000000000000000000600052602260045260246000fd5b600060028204905060018216806113d157607f821691505b602082108114156113e5576113e461138a565b5b50919050565b7f4e487b7100000000000000000000000000000000000000000000000000000000600052601160045260246000fd5b600061142582611193565b915061143083611193565b9250827fffffffffffffffffffffffffffffffffffffffffffffffffffffffffffffffff03821115611465576114646113eb565b5b828201905092915050565b7f4f776e61626c653a2063616c6c6572206973206e6f7420746865206f776e6572600082015250565b60006114a6602083611080565b91506114b182611470565b602082019050919050565b600060208201905081810360008301526114d581611499565b9050919050565b7f45524332303a2064656372656173656420616c6c6f77616e63652062656c6f7760008201527f207a65726f000000000000000000000000000000000000000000000000000000602082015250565b6000611538602583611080565b9150611543826114dc565b604082019050919050565b600060208201905081810360008301526115678161152b565b9050919050565b7f4f776e61626c653a206e6577206f776e657220697320746865207a65726f206160008201527f6464726573730000000000000000000000000000000000000000000000000000602082015250565b60006115ca602683611080565b91506115d58261156e565b604082019050919050565b600060208201905081810360008301526115f9816115bd565b9050919050565b7f45524332303a20617070726f76652066726f6d20746865207a65726f2061646460008201527f7265737300000000000000000000000000000000000000000000000000000000602082015250565b600061165c602483611080565b915061166782611600565b604082019050919050565b6000602082019050818103600083015261168b8161164f565b9050919050565b7f45524332303a20617070726f766520746f20746865207a65726f20616464726560008201527f7373000000000000000000000000000000000000000000000000000000000000602082015250565b60006116ee602283611080565b91506116f982611692565b604082019050919050565b6000602082019050818103600083015261171d816116e1565b9050919050565b7f45524332303a20696e73756666696369656e7420616c6c6f77616e6365000000600082015250565b600061175a601d83611080565b915061176582611724565b602082019050919050565b600060208201905081810360008301526117898161174d565b9050919050565b7f45524332303a207472616e736665722066726f6d20746865207a65726f20616460008201527f6472657373000000000000000000000000000000000000000000000000000000602082015250565b60006117ec602583611080565b91506117f782611790565b604082019050919050565b6000602082019050818103600083015261181b816117df565b9050919050565b7f45524332303a207472616e7366657220746f20746865207a65726f206164647260008201527f6573730000000000000000000000000000000000000000000000000000000000602082015250565b600061187e602383611080565b915061188982611822565b604082019050919050565b600060208201905081810360008301526118ad81611871565b9050919050565b7f45524332303a207472616e7366657220616d6f756e742065786365656473206260008201527f616c616e63650000000000000000000000000000000000000000000000000000602082015250565b6000611910602683611080565b915061191b826118b4565b604082019050919050565b6000602082019050818103600083015261193f81611903565b9050919050565b7f45524332303a206d696e7420746f20746865207a65726f206164647265737300600082015250565b600061197c601f83611080565b915061198782611946565b602082019050919050565b600060208201905081810360008301526119ab8161196f565b905091905056fea264697066735822122033d376ee4721cccd99452557b164fbbea629bbb3298dcc7c060723deb9cd22b664736f6c634300080c0033",
  "immutableReferences": {},
  "source": "// SPDX-License-Identifier: MIT\n\nimport \"./CrowdFundingTOKEN.sol\";\nimport \"@openzeppelin/contracts/access/Ownable.sol\";\n\npragma solidity ^0.8.0;\n\ncontract CrowdFunding is Ownable {\n    CrowdFundingTOKEN token;\n    \n    constructor() {\n        token = new CrowdFundingTOKEN();\n    }\n\n    function totalToken() public view returns (uint256) {\n        return token.totalSupply();\n    }\n\n    function addToken(uint256 _addToken) public onlyOwner {\n        token.mint(msg.sender, _addToken);\n    }\n}",
  "sourcePath": "/home/ubuntu/Downloads/dev/tpfunir/contracts/CrowdFunding.sol",
  "compiler": {
    "name": "solc",
    "version": "0.8.12+commit.f00d7308.Emscripten.clang"
  },
  "schemaVersion": "3.4.6",
  "updatedAt": "2022-03-12T19:45:26.837Z",
  "devdoc": {
    "kind": "dev",
    "methods": {
      "owner()": {
        "details": "Returns the address of the current owner."
      },
      "renounceOwnership()": {
        "details": "Leaves the contract without owner. It will not be possible to call `onlyOwner` functions anymore. Can only be called by the current owner. NOTE: Renouncing ownership will leave the contract without an owner, thereby removing any functionality that is only available to the owner."
      },
      "transferOwnership(address)": {
        "details": "Transfers ownership of the contract to a new account (`newOwner`). Can only be called by the current owner."
      }
    },
    "version": 1
  },
  "userdoc": {
    "kind": "user",
    "methods": {},
    "version": 1
  }
}