{
  "contractName": "CrowdFunding",
  "abi": [
    {
      "inputs": [],
      "stateMutability": "nonpayable",
      "type": "constructor"
    },
    {
      "anonymous": false,
      "inputs": [
        {
          "indexed": true,
          "internalType": "address",
          "name": "previousOwner",
          "type": "address"
        },
        {
          "indexed": true,
          "internalType": "address",
          "name": "newOwner",
          "type": "address"
        }
      ],
      "name": "OwnershipTransferred",
      "type": "event"
    },
    {
      "inputs": [],
      "name": "owner",
      "outputs": [
        {
          "internalType": "address",
          "name": "",
          "type": "address"
        }
      ],
      "stateMutability": "view",
      "type": "function",
      "constant": true
    },
    {
      "inputs": [],
      "name": "renounceOwnership",
      "outputs": [],
      "stateMutability": "nonpayable",
      "type": "function"
    },
    {
      "inputs": [
        {
          "internalType": "address",
          "name": "newOwner",
          "type": "address"
        }
      ],
      "name": "transferOwnership",
      "outputs": [],
      "stateMutability": "nonpayable",
      "type": "function"
    },
    {
      "inputs": [
        {
          "internalType": "string",
          "name": "_name",
          "type": "string"
        }
      ],
      "name": "setNameCrowdFunding",
      "outputs": [],
      "stateMutability": "nonpayable",
      "type": "function"
    },
    {
      "inputs": [],
      "name": "getDataCrowdFunding",
      "outputs": [
        {
          "internalType": "string",
          "name": "",
          "type": "string"
        },
        {
          "internalType": "uint256",
          "name": "",
          "type": "uint256"
        },
        {
          "internalType": "uint256",
          "name": "",
          "type": "uint256"
        },
        {
          "internalType": "bool",
          "name": "",
          "type": "bool"
        },
        {
          "internalType": "uint256",
          "name": "",
          "type": "uint256"
        }
      ],
      "stateMutability": "view",
      "type": "function",
      "constant": true
    },
    {
      "inputs": [],
      "name": "totalToken",
      "outputs": [
        {
          "internalType": "uint256",
          "name": "",
          "type": "uint256"
        }
      ],
      "stateMutability": "view",
      "type": "function",
      "constant": true
    },
    {
      "inputs": [
        {
          "internalType": "uint256",
          "name": "_cantTokenForExchange",
          "type": "uint256"
        },
        {
          "internalType": "uint256",
          "name": "_cantTokenToTheWinner",
          "type": "uint256"
        }
      ],
      "name": "addToken",
      "outputs": [],
      "stateMutability": "nonpayable",
      "type": "function"
    },
    {
      "inputs": [],
      "name": "openCrowdFunding",
      "outputs": [],
      "stateMutability": "nonpayable",
      "type": "function"
    },
    {
      "inputs": [],
      "name": "closeCrowdFunding",
      "outputs": [],
      "stateMutability": "nonpayable",
      "type": "function"
    },
    {
      "inputs": [
        {
          "internalType": "address",
          "name": "account",
          "type": "address"
        }
      ],
      "name": "getBalance",
      "outputs": [
        {
          "internalType": "uint256",
          "name": "",
          "type": "uint256"
        }
      ],
      "stateMutability": "view",
      "type": "function",
      "constant": true
    },
    {
      "inputs": [
        {
          "internalType": "address",
          "name": "account",
          "type": "address"
        }
      ],
      "name": "buyTicketLottery",
      "outputs": [],
      "stateMutability": "nonpayable",
      "type": "function"
    },
    {
      "inputs": [],
      "name": "getCantTicketTotalLottery",
      "outputs": [
        {
          "internalType": "uint256",
          "name": "",
          "type": "uint256"
        }
      ],
      "stateMutability": "view",
      "type": "function",
      "constant": true
    },
    {
      "inputs": [
        {
          "internalType": "address",
          "name": "account",
          "type": "address"
        }
      ],
      "name": "getAllNumberTicketLotteryPerson",
      "outputs": [
        {
          "internalType": "uint256[]",
          "name": "",
          "type": "uint256[]"
        }
      ],
      "stateMutability": "view",
      "type": "function",
      "constant": true
    },
    {
      "inputs": [
        {
          "internalType": "uint256",
          "name": "_number",
          "type": "uint256"
        }
      ],
      "name": "getAddressFromNumberLotteryAssigned",
      "outputs": [
        {
          "internalType": "address",
          "name": "",
          "type": "address"
        }
      ],
      "stateMutability": "view",
      "type": "function",
      "constant": true
    },
    {
      "inputs": [],
      "name": "closeCrowdFundingAndPickTheWinner",
      "outputs": [],
      "stateMutability": "nonpayable",
      "type": "function"
    }
  ],
  "bytecode": "0x60806040523480156200001157600080fd5b506200003262000026620000e760201b60201c565b620000ef60201b60201c565b6040516200004090620001b3565b604051809103906000f0801580156200005d573d6000803e3d6000fd5b50600160006101000a81548173ffffffffffffffffffffffffffffffffffffffff021916908373ffffffffffffffffffffffffffffffffffffffff1602179055506040518060200160405280600081525060029080519060200190620000c5929190620001c1565b506000600560006101000a81548160ff021916908315150217905550620002d5565b600033905090565b60008060009054906101000a900473ffffffffffffffffffffffffffffffffffffffff169050816000806101000a81548173ffffffffffffffffffffffffffffffffffffffff021916908373ffffffffffffffffffffffffffffffffffffffff1602179055508173ffffffffffffffffffffffffffffffffffffffff168173ffffffffffffffffffffffffffffffffffffffff167f8be0079c531659141344cd1fd0a4f28419497f9722a3daafe3b4186f6b6457e060405160405180910390a35050565b611f8780620019a783390190565b828054620001cf90620002a0565b90600052602060002090601f016020900481019282620001f357600085556200023f565b82601f106200020e57805160ff19168380011785556200023f565b828001600101855582156200023f579182015b828111156200023e57825182559160200191906001019062000221565b5b5090506200024e919062000252565b5090565b5b808211156200026d57600081600090555060010162000253565b5090565b7f4e487b7100000000000000000000000000000000000000000000000000000000600052602260045260246000fd5b60006002820490506001821680620002b957607f821691505b602082108103620002cf57620002ce62000271565b5b50919050565b6116c280620002e56000396000f3fe608060405234801561001057600080fd5b50600436106100f55760003560e01c80637274762b11610097578063c0e1bba211610066578063c0e1bba214610212578063d91cd86014610230578063f2fde38b14610252578063f8b2cb4f1461026e576100f5565b80637274762b1461019e57806389beb665146101ce5780638da5cb5b146101d85780639292b460146101f6576100f5565b8063626be567116100d3578063626be5671461015057806363c214581461016e57806367b3fa111461018a578063715018a614610194576100f5565b8063075df4cf146100fa578063134c6ba91461012a57806317b9ebec14610134575b600080fd5b610114600480360381019061010f9190610f12565b61029e565b6040516101219190611007565b60405180910390f35b610132610335565b005b61014e60048036038101906101499190611055565b6103ce565b005b61015861052b565b60405161016591906110a4565b60405180910390f35b61018860048036038101906101839190610f12565b6105c3565b005b6101926106ba565b005b61019c6107e7565b005b6101b860048036038101906101b391906110bf565b61086f565b6040516101c591906110fb565b60405180910390f35b6101d66108ac565b005b6101e0610945565b6040516101ed91906110fb565b60405180910390f35b610210600480360381019061020b919061125c565b61096e565b005b61021a610a12565b60405161022791906110a4565b60405180910390f35b610238610a23565b604051610249959493929190611348565b60405180910390f35b61026c60048036038101906102679190610f12565b610b71565b005b61028860048036038101906102839190610f12565b610c68565b60405161029591906110a4565b60405180910390f35b6060600760008373ffffffffffffffffffffffffffffffffffffffff1673ffffffffffffffffffffffffffffffffffffffff16815260200190815260200160002080548060200260200160405190810160405280929190818152602001828054801561032957602002820191906000526020600020905b815481526020019060010190808311610315575b50505050509050919050565b61033d610d0d565b73ffffffffffffffffffffffffffffffffffffffff1661035b610945565b73ffffffffffffffffffffffffffffffffffffffff16146103b1576040517f08c379a00000000000000000000000000000000000000000000000000000000081526004016103a8906113ee565b60405180910390fd5b6000600560006101000a81548160ff021916908315150217905550565b6103d6610d0d565b73ffffffffffffffffffffffffffffffffffffffff166103f4610945565b73ffffffffffffffffffffffffffffffffffffffff161461044a576040517f08c379a0000000000000000000000000000000000000000000000000000000008152600401610441906113ee565b60405180910390fd5b6000821161045757600080fd5b600081101561046557600080fd5b600160009054906101000a900473ffffffffffffffffffffffffffffffffffffffff1673ffffffffffffffffffffffffffffffffffffffff166340c10f193383856104b0919061143d565b6040518363ffffffff1660e01b81526004016104cd929190611493565b600060405180830381600087803b1580156104e757600080fd5b505af11580156104fb573d6000803e3d6000fd5b505050508160035461050d919061143d565b60038190555080600454610521919061143d565b6004819055505050565b6000600160009054906101000a900473ffffffffffffffffffffffffffffffffffffffff1673ffffffffffffffffffffffffffffffffffffffff166318160ddd6040518163ffffffff1660e01b8152600401602060405180830381865afa15801561059a573d6000803e3d6000fd5b505050506040513d601f19601f820116820180604052508101906105be91906114d1565b905090565b60011515600560009054906101000a900460ff161515146105e357600080fd5b6105ed6006610d15565b600760008273ffffffffffffffffffffffffffffffffffffffff1673ffffffffffffffffffffffffffffffffffffffff1681526020019081526020016000206106366006610d2b565b9080600181540180825580915050600190039060005260206000200160009091909190915055806008600061066b6006610d2b565b815260200190815260200160002060006101000a81548173ffffffffffffffffffffffffffffffffffffffff021916908373ffffffffffffffffffffffffffffffffffffffff16021790555050565b6106c2610d0d565b73ffffffffffffffffffffffffffffffffffffffff166106e0610945565b73ffffffffffffffffffffffffffffffffffffffff1614610736576040517f08c379a000000000000000000000000000000000000000000000000000000000815260040161072d906113ee565b60405180910390fd5b60006107426006610d2b565b1161074c57600080fd5b60006107586006610d2b565b42604051602001610769919061151f565b6040516020818303038152906040528051906020012060001c61078c9190611569565b90506107978161086f565b600960000160006101000a81548173ffffffffffffffffffffffffffffffffffffffff021916908373ffffffffffffffffffffffffffffffffffffffff1602179055508060096001018190555050565b6107ef610d0d565b73ffffffffffffffffffffffffffffffffffffffff1661080d610945565b73ffffffffffffffffffffffffffffffffffffffff1614610863576040517f08c379a000000000000000000000000000000000000000000000000000000000815260040161085a906113ee565b60405180910390fd5b61086d6000610d39565b565b60006008600083815260200190815260200160002060009054906101000a900473ffffffffffffffffffffffffffffffffffffffff169050919050565b6108b4610d0d565b73ffffffffffffffffffffffffffffffffffffffff166108d2610945565b73ffffffffffffffffffffffffffffffffffffffff1614610928576040517f08c379a000000000000000000000000000000000000000000000000000000000815260040161091f906113ee565b60405180910390fd5b6001600560006101000a81548160ff021916908315150217905550565b60008060009054906101000a900473ffffffffffffffffffffffffffffffffffffffff16905090565b610976610d0d565b73ffffffffffffffffffffffffffffffffffffffff16610994610945565b73ffffffffffffffffffffffffffffffffffffffff16146109ea576040517f08c379a00000000000000000000000000000000000000000000000000000000081526004016109e1906113ee565b60405180910390fd5b60008151116109f857600080fd5b8060029080519060200190610a0e929190610dfd565b5050565b6000610a1e6006610d2b565b905090565b60606000806000806002600354600454600560009054906101000a900460ff16600160009054906101000a900473ffffffffffffffffffffffffffffffffffffffff1673ffffffffffffffffffffffffffffffffffffffff166318160ddd6040518163ffffffff1660e01b8152600401602060405180830381865afa158015610ab0573d6000803e3d6000fd5b505050506040513d601f19601f82011682018060405250810190610ad491906114d1565b848054610ae0906115c9565b80601f0160208091040260200160405190810160405280929190818152602001828054610b0c906115c9565b8015610b595780601f10610b2e57610100808354040283529160200191610b59565b820191906000526020600020905b815481529060010190602001808311610b3c57829003601f168201915b50505050509450945094509450945094509091929394565b610b79610d0d565b73ffffffffffffffffffffffffffffffffffffffff16610b97610945565b73ffffffffffffffffffffffffffffffffffffffff1614610bed576040517f08c379a0000000000000000000000000000000000000000000000000000000008152600401610be4906113ee565b60405180910390fd5b600073ffffffffffffffffffffffffffffffffffffffff168173ffffffffffffffffffffffffffffffffffffffff1603610c5c576040517f08c379a0000000000000000000000000000000000000000000000000000000008152600401610c539061166c565b60405180910390fd5b610c6581610d39565b50565b6000600160009054906101000a900473ffffffffffffffffffffffffffffffffffffffff1673ffffffffffffffffffffffffffffffffffffffff166370a08231836040518263ffffffff1660e01b8152600401610cc591906110fb565b602060405180830381865afa158015610ce2573d6000803e3d6000fd5b505050506040513d601f19601f82011682018060405250810190610d0691906114d1565b9050919050565b600033905090565b6001816000016000828254019250508190555050565b600081600001549050919050565b60008060009054906101000a900473ffffffffffffffffffffffffffffffffffffffff169050816000806101000a81548173ffffffffffffffffffffffffffffffffffffffff021916908373ffffffffffffffffffffffffffffffffffffffff1602179055508173ffffffffffffffffffffffffffffffffffffffff168173ffffffffffffffffffffffffffffffffffffffff167f8be0079c531659141344cd1fd0a4f28419497f9722a3daafe3b4186f6b6457e060405160405180910390a35050565b828054610e09906115c9565b90600052602060002090601f016020900481019282610e2b5760008555610e72565b82601f10610e4457805160ff1916838001178555610e72565b82800160010185558215610e72579182015b82811115610e71578251825591602001919060010190610e56565b5b509050610e7f9190610e83565b5090565b5b80821115610e9c576000816000905550600101610e84565b5090565b6000604051905090565b600080fd5b600080fd5b600073ffffffffffffffffffffffffffffffffffffffff82169050919050565b6000610edf82610eb4565b9050919050565b610eef81610ed4565b8114610efa57600080fd5b50565b600081359050610f0c81610ee6565b92915050565b600060208284031215610f2857610f27610eaa565b5b6000610f3684828501610efd565b91505092915050565b600081519050919050565b600082825260208201905092915050565b6000819050602082019050919050565b6000819050919050565b610f7e81610f6b565b82525050565b6000610f908383610f75565b60208301905092915050565b6000602082019050919050565b6000610fb482610f3f565b610fbe8185610f4a565b9350610fc983610f5b565b8060005b83811015610ffa578151610fe18882610f84565b9750610fec83610f9c565b925050600181019050610fcd565b5085935050505092915050565b600060208201905081810360008301526110218184610fa9565b905092915050565b61103281610f6b565b811461103d57600080fd5b50565b60008135905061104f81611029565b92915050565b6000806040838503121561106c5761106b610eaa565b5b600061107a85828601611040565b925050602061108b85828601611040565b9150509250929050565b61109e81610f6b565b82525050565b60006020820190506110b96000830184611095565b92915050565b6000602082840312156110d5576110d4610eaa565b5b60006110e384828501611040565b91505092915050565b6110f581610ed4565b82525050565b600060208201905061111060008301846110ec565b92915050565b600080fd5b600080fd5b6000601f19601f8301169050919050565b7f4e487b7100000000000000000000000000000000000000000000000000000000600052604160045260246000fd5b61116982611120565b810181811067ffffffffffffffff8211171561118857611187611131565b5b80604052505050565b600061119b610ea0565b90506111a78282611160565b919050565b600067ffffffffffffffff8211156111c7576111c6611131565b5b6111d082611120565b9050602081019050919050565b82818337600083830152505050565b60006111ff6111fa846111ac565b611191565b90508281526020810184848401111561121b5761121a61111b565b5b6112268482856111dd565b509392505050565b600082601f83011261124357611242611116565b5b81356112538482602086016111ec565b91505092915050565b60006020828403121561127257611271610eaa565b5b600082013567ffffffffffffffff8111156112905761128f610eaf565b5b61129c8482850161122e565b91505092915050565b600081519050919050565b600082825260208201905092915050565b60005b838110156112df5780820151818401526020810190506112c4565b838111156112ee576000848401525b50505050565b60006112ff826112a5565b61130981856112b0565b93506113198185602086016112c1565b61132281611120565b840191505092915050565b60008115159050919050565b6113428161132d565b82525050565b600060a082019050818103600083015261136281886112f4565b90506113716020830187611095565b61137e6040830186611095565b61138b6060830185611339565b6113986080830184611095565b9695505050505050565b7f4f776e61626c653a2063616c6c6572206973206e6f7420746865206f776e6572600082015250565b60006113d86020836112b0565b91506113e3826113a2565b602082019050919050565b60006020820190508181036000830152611407816113cb565b9050919050565b7f4e487b7100000000000000000000000000000000000000000000000000000000600052601160045260246000fd5b600061144882610f6b565b915061145383610f6b565b9250827fffffffffffffffffffffffffffffffffffffffffffffffffffffffffffffffff038211156114885761148761140e565b5b828201905092915050565b60006040820190506114a860008301856110ec565b6114b56020830184611095565b9392505050565b6000815190506114cb81611029565b92915050565b6000602082840312156114e7576114e6610eaa565b5b60006114f5848285016114bc565b91505092915050565b6000819050919050565b61151961151482610f6b565b6114fe565b82525050565b600061152b8284611508565b60208201915081905092915050565b7f4e487b7100000000000000000000000000000000000000000000000000000000600052601260045260246000fd5b600061157482610f6b565b915061157f83610f6b565b92508261158f5761158e61153a565b5b828206905092915050565b7f4e487b7100000000000000000000000000000000000000000000000000000000600052602260045260246000fd5b600060028204905060018216806115e157607f821691505b6020821081036115f4576115f361159a565b5b50919050565b7f4f776e61626c653a206e6577206f776e657220697320746865207a65726f206160008201527f6464726573730000000000000000000000000000000000000000000000000000602082015250565b60006116566026836112b0565b9150611661826115fa565b604082019050919050565b6000602082019050818103600083015261168581611649565b905091905056fea2646970667358221220c6113de00684b412337677164ac70e3fcb1899836024e8e4932205158a55fbcd64736f6c634300080d003360806040523480156200001157600080fd5b506040518060400160405280600c81526020017f43726f776446756e64696e6700000000000000000000000000000000000000008152506040518060400160405280600381526020017f43465400000000000000000000000000000000000000000000000000000000008152508160039080519060200190620000969291906200033b565b508060049080519060200190620000af9291906200033b565b505050620000d2620000c6620000eb60201b60201c565b620000f360201b60201c565b620000e5336000620001b960201b60201c565b62000596565b600033905090565b6000600560009054906101000a900473ffffffffffffffffffffffffffffffffffffffff16905081600560006101000a81548173ffffffffffffffffffffffffffffffffffffffff021916908373ffffffffffffffffffffffffffffffffffffffff1602179055508173ffffffffffffffffffffffffffffffffffffffff168173ffffffffffffffffffffffffffffffffffffffff167f8be0079c531659141344cd1fd0a4f28419497f9722a3daafe3b4186f6b6457e060405160405180910390a35050565b600073ffffffffffffffffffffffffffffffffffffffff168273ffffffffffffffffffffffffffffffffffffffff16036200022b576040517f08c379a000000000000000000000000000000000000000000000000000000000815260040162000222906200044c565b60405180910390fd5b6200023f600083836200033160201b60201c565b8060026000828254620002539190620004a7565b92505081905550806000808473ffffffffffffffffffffffffffffffffffffffff1673ffffffffffffffffffffffffffffffffffffffff1681526020019081526020016000206000828254620002aa9190620004a7565b925050819055508173ffffffffffffffffffffffffffffffffffffffff16600073ffffffffffffffffffffffffffffffffffffffff167fddf252ad1be2c89b69c2b068fc378daa952ba7f163c4a11628f55a4df523b3ef8360405162000311919062000515565b60405180910390a36200032d600083836200033660201b60201c565b5050565b505050565b505050565b828054620003499062000561565b90600052602060002090601f0160209004810192826200036d5760008555620003b9565b82601f106200038857805160ff1916838001178555620003b9565b82800160010185558215620003b9579182015b82811115620003b85782518255916020019190600101906200039b565b5b509050620003c89190620003cc565b5090565b5b80821115620003e7576000816000905550600101620003cd565b5090565b600082825260208201905092915050565b7f45524332303a206d696e7420746f20746865207a65726f206164647265737300600082015250565b600062000434601f83620003eb565b91506200044182620003fc565b602082019050919050565b60006020820190508181036000830152620004678162000425565b9050919050565b6000819050919050565b7f4e487b7100000000000000000000000000000000000000000000000000000000600052601160045260246000fd5b6000620004b4826200046e565b9150620004c1836200046e565b9250827fffffffffffffffffffffffffffffffffffffffffffffffffffffffffffffffff03821115620004f957620004f862000478565b5b828201905092915050565b6200050f816200046e565b82525050565b60006020820190506200052c600083018462000504565b92915050565b7f4e487b7100000000000000000000000000000000000000000000000000000000600052602260045260246000fd5b600060028204905060018216806200057a57607f821691505b60208210810362000590576200058f62000532565b5b50919050565b6119e180620005a66000396000f3fe608060405234801561001057600080fd5b50600436106100f55760003560e01c806370a0823111610097578063a457c2d711610066578063a457c2d714610276578063a9059cbb146102a6578063dd62ed3e146102d6578063f2fde38b14610306576100f5565b806370a0823114610200578063715018a6146102305780638da5cb5b1461023a57806395d89b4114610258576100f5565b806323b872dd116100d357806323b872dd14610166578063313ce5671461019657806339509351146101b457806340c10f19146101e4576100f5565b806306fdde03146100fa578063095ea7b31461011857806318160ddd14610148575b600080fd5b610102610322565b60405161010f9190611108565b60405180910390f35b610132600480360381019061012d91906111c3565b6103b4565b60405161013f919061121e565b60405180910390f35b6101506103d7565b60405161015d9190611248565b60405180910390f35b610180600480360381019061017b9190611263565b6103e1565b60405161018d919061121e565b60405180910390f35b61019e610410565b6040516101ab91906112d2565b60405180910390f35b6101ce60048036038101906101c991906111c3565b610419565b6040516101db919061121e565b60405180910390f35b6101fe60048036038101906101f991906111c3565b6104c3565b005b61021a600480360381019061021591906112ed565b61054d565b6040516102279190611248565b60405180910390f35b610238610595565b005b61024261061d565b60405161024f9190611329565b60405180910390f35b610260610647565b60405161026d9190611108565b60405180910390f35b610290600480360381019061028b91906111c3565b6106d9565b60405161029d919061121e565b60405180910390f35b6102c060048036038101906102bb91906111c3565b6107c3565b6040516102cd919061121e565b60405180910390f35b6102f060048036038101906102eb9190611344565b6107e6565b6040516102fd9190611248565b60405180910390f35b610320600480360381019061031b91906112ed565b61086d565b005b606060038054610331906113b3565b80601f016020809104026020016040519081016040528092919081815260200182805461035d906113b3565b80156103aa5780601f1061037f576101008083540402835291602001916103aa565b820191906000526020600020905b81548152906001019060200180831161038d57829003601f168201915b5050505050905090565b6000806103bf610964565b90506103cc81858561096c565b600191505092915050565b6000600254905090565b6000806103ec610964565b90506103f9858285610b35565b610404858585610bc1565b60019150509392505050565b60006012905090565b600080610424610964565b90506104b8818585600160008673ffffffffffffffffffffffffffffffffffffffff1673ffffffffffffffffffffffffffffffffffffffff16815260200190815260200160002060008973ffffffffffffffffffffffffffffffffffffffff1673ffffffffffffffffffffffffffffffffffffffff168152602001908152602001600020546104b39190611413565b61096c565b600191505092915050565b6104cb610964565b73ffffffffffffffffffffffffffffffffffffffff166104e961061d565b73ffffffffffffffffffffffffffffffffffffffff161461053f576040517f08c379a0000000000000000000000000000000000000000000000000000000008152600401610536906114b5565b60405180910390fd5b6105498282610e40565b5050565b60008060008373ffffffffffffffffffffffffffffffffffffffff1673ffffffffffffffffffffffffffffffffffffffff168152602001908152602001600020549050919050565b61059d610964565b73ffffffffffffffffffffffffffffffffffffffff166105bb61061d565b73ffffffffffffffffffffffffffffffffffffffff1614610611576040517f08c379a0000000000000000000000000000000000000000000000000000000008152600401610608906114b5565b60405180910390fd5b61061b6000610f9f565b565b6000600560009054906101000a900473ffffffffffffffffffffffffffffffffffffffff16905090565b606060048054610656906113b3565b80601f0160208091040260200160405190810160405280929190818152602001828054610682906113b3565b80156106cf5780601f106106a4576101008083540402835291602001916106cf565b820191906000526020600020905b8154815290600101906020018083116106b257829003601f168201915b5050505050905090565b6000806106e4610964565b90506000600160008373ffffffffffffffffffffffffffffffffffffffff1673ffffffffffffffffffffffffffffffffffffffff16815260200190815260200160002060008673ffffffffffffffffffffffffffffffffffffffff1673ffffffffffffffffffffffffffffffffffffffff168152602001908152602001600020549050838110156107aa576040517f08c379a00000000000000000000000000000000000000000000000000000000081526004016107a190611547565b60405180910390fd5b6107b7828686840361096c565b60019250505092915050565b6000806107ce610964565b90506107db818585610bc1565b600191505092915050565b6000600160008473ffffffffffffffffffffffffffffffffffffffff1673ffffffffffffffffffffffffffffffffffffffff16815260200190815260200160002060008373ffffffffffffffffffffffffffffffffffffffff1673ffffffffffffffffffffffffffffffffffffffff16815260200190815260200160002054905092915050565b610875610964565b73ffffffffffffffffffffffffffffffffffffffff1661089361061d565b73ffffffffffffffffffffffffffffffffffffffff16146108e9576040517f08c379a00000000000000000000000000000000000000000000000000000000081526004016108e0906114b5565b60405180910390fd5b600073ffffffffffffffffffffffffffffffffffffffff168173ffffffffffffffffffffffffffffffffffffffff1603610958576040517f08c379a000000000000000000000000000000000000000000000000000000000815260040161094f906115d9565b60405180910390fd5b61096181610f9f565b50565b600033905090565b600073ffffffffffffffffffffffffffffffffffffffff168373ffffffffffffffffffffffffffffffffffffffff16036109db576040517f08c379a00000000000000000000000000000000000000000000000000000000081526004016109d29061166b565b60405180910390fd5b600073ffffffffffffffffffffffffffffffffffffffff168273ffffffffffffffffffffffffffffffffffffffff1603610a4a576040517f08c379a0000000000000000000000000000000000000000000000000000000008152600401610a41906116fd565b60405180910390fd5b80600160008573ffffffffffffffffffffffffffffffffffffffff1673ffffffffffffffffffffffffffffffffffffffff16815260200190815260200160002060008473ffffffffffffffffffffffffffffffffffffffff1673ffffffffffffffffffffffffffffffffffffffff168152602001908152602001600020819055508173ffffffffffffffffffffffffffffffffffffffff168373ffffffffffffffffffffffffffffffffffffffff167f8c5be1e5ebec7d5bd14f71427d1e84f3dd0314c0f7b2291e5b200ac8c7c3b92583604051610b289190611248565b60405180910390a3505050565b6000610b4184846107e6565b90507fffffffffffffffffffffffffffffffffffffffffffffffffffffffffffffffff8114610bbb5781811015610bad576040517f08c379a0000000000000000000000000000000000000000000000000000000008152600401610ba490611769565b60405180910390fd5b610bba848484840361096c565b5b50505050565b600073ffffffffffffffffffffffffffffffffffffffff168373ffffffffffffffffffffffffffffffffffffffff1603610c30576040517f08c379a0000000000000000000000000000000000000000000000000000000008152600401610c27906117fb565b60405180910390fd5b600073ffffffffffffffffffffffffffffffffffffffff168273ffffffffffffffffffffffffffffffffffffffff1603610c9f576040517f08c379a0000000000000000000000000000000000000000000000000000000008152600401610c969061188d565b60405180910390fd5b610caa838383611065565b60008060008573ffffffffffffffffffffffffffffffffffffffff1673ffffffffffffffffffffffffffffffffffffffff16815260200190815260200160002054905081811015610d30576040517f08c379a0000000000000000000000000000000000000000000000000000000008152600401610d279061191f565b60405180910390fd5b8181036000808673ffffffffffffffffffffffffffffffffffffffff1673ffffffffffffffffffffffffffffffffffffffff16815260200190815260200160002081905550816000808573ffffffffffffffffffffffffffffffffffffffff1673ffffffffffffffffffffffffffffffffffffffff1681526020019081526020016000206000828254610dc39190611413565b925050819055508273ffffffffffffffffffffffffffffffffffffffff168473ffffffffffffffffffffffffffffffffffffffff167fddf252ad1be2c89b69c2b068fc378daa952ba7f163c4a11628f55a4df523b3ef84604051610e279190611248565b60405180910390a3610e3a84848461106a565b50505050565b600073ffffffffffffffffffffffffffffffffffffffff168273ffffffffffffffffffffffffffffffffffffffff1603610eaf576040517f08c379a0000000000000000000000000000000000000000000000000000000008152600401610ea69061198b565b60405180910390fd5b610ebb60008383611065565b8060026000828254610ecd9190611413565b92505081905550806000808473ffffffffffffffffffffffffffffffffffffffff1673ffffffffffffffffffffffffffffffffffffffff1681526020019081526020016000206000828254610f229190611413565b925050819055508173ffffffffffffffffffffffffffffffffffffffff16600073ffffffffffffffffffffffffffffffffffffffff167fddf252ad1be2c89b69c2b068fc378daa952ba7f163c4a11628f55a4df523b3ef83604051610f879190611248565b60405180910390a3610f9b6000838361106a565b5050565b6000600560009054906101000a900473ffffffffffffffffffffffffffffffffffffffff16905081600560006101000a81548173ffffffffffffffffffffffffffffffffffffffff021916908373ffffffffffffffffffffffffffffffffffffffff1602179055508173ffffffffffffffffffffffffffffffffffffffff168173ffffffffffffffffffffffffffffffffffffffff167f8be0079c531659141344cd1fd0a4f28419497f9722a3daafe3b4186f6b6457e060405160405180910390a35050565b505050565b505050565b600081519050919050565b600082825260208201905092915050565b60005b838110156110a957808201518184015260208101905061108e565b838111156110b8576000848401525b50505050565b6000601f19601f8301169050919050565b60006110da8261106f565b6110e4818561107a565b93506110f481856020860161108b565b6110fd816110be565b840191505092915050565b6000602082019050818103600083015261112281846110cf565b905092915050565b600080fd5b600073ffffffffffffffffffffffffffffffffffffffff82169050919050565b600061115a8261112f565b9050919050565b61116a8161114f565b811461117557600080fd5b50565b60008135905061118781611161565b92915050565b6000819050919050565b6111a08161118d565b81146111ab57600080fd5b50565b6000813590506111bd81611197565b92915050565b600080604083850312156111da576111d961112a565b5b60006111e885828601611178565b92505060206111f9858286016111ae565b9150509250929050565b60008115159050919050565b61121881611203565b82525050565b6000602082019050611233600083018461120f565b92915050565b6112428161118d565b82525050565b600060208201905061125d6000830184611239565b92915050565b60008060006060848603121561127c5761127b61112a565b5b600061128a86828701611178565b935050602061129b86828701611178565b92505060406112ac868287016111ae565b9150509250925092565b600060ff82169050919050565b6112cc816112b6565b82525050565b60006020820190506112e760008301846112c3565b92915050565b6000602082840312156113035761130261112a565b5b600061131184828501611178565b91505092915050565b6113238161114f565b82525050565b600060208201905061133e600083018461131a565b92915050565b6000806040838503121561135b5761135a61112a565b5b600061136985828601611178565b925050602061137a85828601611178565b9150509250929050565b7f4e487b7100000000000000000000000000000000000000000000000000000000600052602260045260246000fd5b600060028204905060018216806113cb57607f821691505b6020821081036113de576113dd611384565b5b50919050565b7f4e487b7100000000000000000000000000000000000000000000000000000000600052601160045260246000fd5b600061141e8261118d565b91506114298361118d565b9250827fffffffffffffffffffffffffffffffffffffffffffffffffffffffffffffffff0382111561145e5761145d6113e4565b5b828201905092915050565b7f4f776e61626c653a2063616c6c6572206973206e6f7420746865206f776e6572600082015250565b600061149f60208361107a565b91506114aa82611469565b602082019050919050565b600060208201905081810360008301526114ce81611492565b9050919050565b7f45524332303a2064656372656173656420616c6c6f77616e63652062656c6f7760008201527f207a65726f000000000000000000000000000000000000000000000000000000602082015250565b600061153160258361107a565b915061153c826114d5565b604082019050919050565b6000602082019050818103600083015261156081611524565b9050919050565b7f4f776e61626c653a206e6577206f776e657220697320746865207a65726f206160008201527f6464726573730000000000000000000000000000000000000000000000000000602082015250565b60006115c360268361107a565b91506115ce82611567565b604082019050919050565b600060208201905081810360008301526115f2816115b6565b9050919050565b7f45524332303a20617070726f76652066726f6d20746865207a65726f2061646460008201527f7265737300000000000000000000000000000000000000000000000000000000602082015250565b600061165560248361107a565b9150611660826115f9565b604082019050919050565b6000602082019050818103600083015261168481611648565b9050919050565b7f45524332303a20617070726f766520746f20746865207a65726f20616464726560008201527f7373000000000000000000000000000000000000000000000000000000000000602082015250565b60006116e760228361107a565b91506116f28261168b565b604082019050919050565b60006020820190508181036000830152611716816116da565b9050919050565b7f45524332303a20696e73756666696369656e7420616c6c6f77616e6365000000600082015250565b6000611753601d8361107a565b915061175e8261171d565b602082019050919050565b6000602082019050818103600083015261178281611746565b9050919050565b7f45524332303a207472616e736665722066726f6d20746865207a65726f20616460008201527f6472657373000000000000000000000000000000000000000000000000000000602082015250565b60006117e560258361107a565b91506117f082611789565b604082019050919050565b60006020820190508181036000830152611814816117d8565b9050919050565b7f45524332303a207472616e7366657220746f20746865207a65726f206164647260008201527f6573730000000000000000000000000000000000000000000000000000000000602082015250565b600061187760238361107a565b91506118828261181b565b604082019050919050565b600060208201905081810360008301526118a68161186a565b9050919050565b7f45524332303a207472616e7366657220616d6f756e742065786365656473206260008201527f616c616e63650000000000000000000000000000000000000000000000000000602082015250565b600061190960268361107a565b9150611914826118ad565b604082019050919050565b60006020820190508181036000830152611938816118fc565b9050919050565b7f45524332303a206d696e7420746f20746865207a65726f206164647265737300600082015250565b6000611975601f8361107a565b91506119808261193f565b602082019050919050565b600060208201905081810360008301526119a481611968565b905091905056fea2646970667358221220185608dd470f27818e53c0523257e0ce579274ee192194aa398c4af6fb9d26f564736f6c634300080d0033",
  "immutableReferences": {},
  "source": "// SPDX-License-Identifier: MIT\n\nimport \"./CrowdFundingTOKEN.sol\";\nimport \"@openzeppelin/contracts/access/Ownable.sol\";\nimport \"@openzeppelin/contracts/utils/Counters.sol\";\n\npragma solidity ^0.8.0;\n\ncontract CrowdFunding is Ownable {\n    CrowdFundingTOKEN token;\n    string name;\n    uint256 cantTokenForExchange;\n    uint256 cantTokenToTheWinner;\n    bool stateCanFund;\n    using Counters for Counters.Counter;\n    Counters.Counter private _numberTicket;\n    mapping (address => uint256 []) personAddress_NumberTicketMap;\n    mapping (uint256 => address) numberTicketAssigned_personAddressMap;\n\n    struct WinnerLottery{\n        address accountWinner;\n        uint256 numerWinner; \n    }\n    WinnerLottery winnerLottery;\n    \n    constructor() {\n        token = new CrowdFundingTOKEN();\n        name = \"\";\n        stateCanFund = false;\n    }\n\n    function setNameCrowdFunding(string memory _name) public onlyOwner {\n        // Verifica que el Nombre no sea nulo\n        require(bytes(_name).length > 0);        \n        name = _name;        \n    }\n\n    function getDataCrowdFunding() public view returns (string memory, uint256,uint256, bool, uint256) {        \n        return (name, cantTokenForExchange, cantTokenToTheWinner, stateCanFund, token.totalSupply());\n    }\n\n    function totalToken() public view returns (uint256) {\n        return token.totalSupply();\n    }\n\n    function addToken(uint256 _cantTokenForExchange, \n        uint256 _cantTokenToTheWinner) public onlyOwner {\n\n        // Verifica valores validos\n        require(_cantTokenForExchange > 0);\n        require(_cantTokenToTheWinner >= 0);\n\n        token.mint(\n                msg.sender, \n                _cantTokenForExchange + \n                _cantTokenToTheWinner)\n        ;\n        cantTokenForExchange = cantTokenForExchange + _cantTokenForExchange;\n        cantTokenToTheWinner = cantTokenToTheWinner + _cantTokenToTheWinner;\n    }\n\n    function openCrowdFunding() public onlyOwner {\n        stateCanFund = true;\n    }\n\n    function closeCrowdFunding() public  onlyOwner {\n        stateCanFund = false;\n    }\n\n    function getBalance(address account) view public returns (uint256){\n        return token.balanceOf(account);\n    }\n\n    // function buyToken(uint cantToken, address a) public payable {\n    //     token.transferFrom(address(this), a, cantToken);        \n    // }\n\n    // function buyToken1(address to, uint cantToken) public payable {\n    //     token.approve(msg.sender, cantToken);\n    //     //token.transfer(to, cantToken);\n    //     //token.transferFrom(owner(), msg.sender, cantToken);\n    // }\n\n    \n    // function buyToken2() view public returns(address) {\n    //     return msg.sender;        \n    // }\n\n    function buyTicketLottery(address account) public {\n        // controlar que tenga token para comprar un ticket\n        // actualizar token juntado por venta        \n        require(stateCanFund == true);        \n        \n        _numberTicket.increment();\n        personAddress_NumberTicketMap[account].push(_numberTicket.current());\n        numberTicketAssigned_personAddressMap[_numberTicket.current()] = account;\n    }\n\n    function getCantTicketTotalLottery() view public returns(uint256) {        \n        return _numberTicket.current();\n    }\n\n    function getAllNumberTicketLotteryPerson(address account) view public returns(uint256 [] memory) {\n        return personAddress_NumberTicketMap[account];\n    }\n    \n    function getAddressFromNumberLotteryAssigned(\n        uint256 _number) view public returns(address) {\n        return numberTicketAssigned_personAddressMap[_number];\n    }\n\n    function closeCrowdFundingAndPickTheWinner() public onlyOwner{\n    //verificar que est abierto el crowdfundiong\n    //verificar que haya nmero vendidos\n    //generar el random con el nmero mximo de venta\n    //devolver tokenes a todos los participantes\n    //darle al ganador el premio\n    require(_numberTicket.current()>0);\n    uint numberWinner = uint(uint(keccak256(abi.encodePacked(block.timestamp))) % _numberTicket.current());\n\n    winnerLottery.accountWinner = getAddressFromNumberLotteryAssigned(numberWinner);\n    winnerLottery.numerWinner = numberWinner;\n\n    }\n}",
  "sourcePath": "/home/ubuntu/dev/tpfunir/contracts/CrowdFunding.sol",
  "compiler": {
    "name": "solc",
    "version": "0.8.13+commit.abaa5c0e.Emscripten.clang"
  },
  "schemaVersion": "3.4.6",
  "updatedAt": "2022-03-25T02:29:53.839Z",
  "networkType": "ethereum",
  "devdoc": {
    "kind": "dev",
    "methods": {
      "owner()": {
        "details": "Returns the address of the current owner."
      },
      "renounceOwnership()": {
        "details": "Leaves the contract without owner. It will not be possible to call `onlyOwner` functions anymore. Can only be called by the current owner. NOTE: Renouncing ownership will leave the contract without an owner, thereby removing any functionality that is only available to the owner."
      },
      "transferOwnership(address)": {
        "details": "Transfers ownership of the contract to a new account (`newOwner`). Can only be called by the current owner."
      }
    },
    "version": 1
  },
  "userdoc": {
    "kind": "user",
    "methods": {},
    "version": 1
  }
}