{
  "contractName": "CrowdFunding",
  "abi": [
    {
      "inputs": [],
      "stateMutability": "nonpayable",
      "type": "constructor"
    },
    {
      "anonymous": false,
      "inputs": [
        {
          "indexed": true,
          "internalType": "address",
          "name": "previousOwner",
          "type": "address"
        },
        {
          "indexed": true,
          "internalType": "address",
          "name": "newOwner",
          "type": "address"
        }
      ],
      "name": "OwnershipTransferred",
      "type": "event"
    },
    {
      "inputs": [],
      "name": "owner",
      "outputs": [
        {
          "internalType": "address",
          "name": "",
          "type": "address"
        }
      ],
      "stateMutability": "view",
      "type": "function",
      "constant": true
    },
    {
      "inputs": [],
      "name": "renounceOwnership",
      "outputs": [],
      "stateMutability": "nonpayable",
      "type": "function"
    },
    {
      "inputs": [
        {
          "internalType": "address",
          "name": "newOwner",
          "type": "address"
        }
      ],
      "name": "transferOwnership",
      "outputs": [],
      "stateMutability": "nonpayable",
      "type": "function"
    },
    {
      "inputs": [
        {
          "internalType": "string",
          "name": "_name",
          "type": "string"
        }
      ],
      "name": "setNameCrowdFunding",
      "outputs": [],
      "stateMutability": "nonpayable",
      "type": "function"
    },
    {
      "inputs": [],
      "name": "getDataCrowdFunding",
      "outputs": [
        {
          "internalType": "string",
          "name": "",
          "type": "string"
        },
        {
          "internalType": "uint256",
          "name": "",
          "type": "uint256"
        },
        {
          "internalType": "uint256",
          "name": "",
          "type": "uint256"
        },
        {
          "internalType": "bool",
          "name": "",
          "type": "bool"
        },
        {
          "internalType": "uint256",
          "name": "",
          "type": "uint256"
        }
      ],
      "stateMutability": "view",
      "type": "function",
      "constant": true
    },
    {
      "inputs": [],
      "name": "getPriceTokenCFT",
      "outputs": [
        {
          "internalType": "uint256",
          "name": "",
          "type": "uint256"
        }
      ],
      "stateMutability": "view",
      "type": "function",
      "constant": true
    },
    {
      "inputs": [],
      "name": "totalToken",
      "outputs": [
        {
          "internalType": "uint256",
          "name": "",
          "type": "uint256"
        }
      ],
      "stateMutability": "view",
      "type": "function",
      "constant": true
    },
    {
      "inputs": [
        {
          "internalType": "uint256",
          "name": "_cantTokenForExchange",
          "type": "uint256"
        },
        {
          "internalType": "uint256",
          "name": "_cantTokenToTheWinner",
          "type": "uint256"
        }
      ],
      "name": "addToken",
      "outputs": [],
      "stateMutability": "nonpayable",
      "type": "function"
    },
    {
      "inputs": [],
      "name": "openCrowdFunding",
      "outputs": [],
      "stateMutability": "nonpayable",
      "type": "function"
    },
    {
      "inputs": [],
      "name": "closeCrowdFunding",
      "outputs": [],
      "stateMutability": "nonpayable",
      "type": "function"
    },
    {
      "inputs": [
        {
          "internalType": "address",
          "name": "account",
          "type": "address"
        }
      ],
      "name": "getBalance",
      "outputs": [
        {
          "internalType": "uint256",
          "name": "",
          "type": "uint256"
        }
      ],
      "stateMutability": "view",
      "type": "function",
      "constant": true
    },
    {
      "inputs": [],
      "name": "getBalanceETH",
      "outputs": [
        {
          "internalType": "uint256",
          "name": "",
          "type": "uint256"
        }
      ],
      "stateMutability": "view",
      "type": "function",
      "constant": true
    },
    {
      "inputs": [
        {
          "internalType": "address payable",
          "name": "_buyer",
          "type": "address"
        },
        {
          "internalType": "uint256",
          "name": "cantToken",
          "type": "uint256"
        }
      ],
      "name": "buyToken",
      "outputs": [],
      "stateMutability": "payable",
      "type": "function",
      "payable": true
    },
    {
      "inputs": [
        {
          "internalType": "address",
          "name": "account",
          "type": "address"
        }
      ],
      "name": "buyTicketLottery",
      "outputs": [],
      "stateMutability": "nonpayable",
      "type": "function"
    },
    {
      "inputs": [],
      "name": "getCantTicketTotalLottery",
      "outputs": [
        {
          "internalType": "uint256",
          "name": "",
          "type": "uint256"
        }
      ],
      "stateMutability": "view",
      "type": "function",
      "constant": true
    },
    {
      "inputs": [
        {
          "internalType": "address",
          "name": "account",
          "type": "address"
        }
      ],
      "name": "getAllNumberTicketLotteryPerson",
      "outputs": [
        {
          "internalType": "uint256[]",
          "name": "",
          "type": "uint256[]"
        }
      ],
      "stateMutability": "view",
      "type": "function",
      "constant": true
    },
    {
      "inputs": [
        {
          "internalType": "uint256",
          "name": "_number",
          "type": "uint256"
        }
      ],
      "name": "getAddressFromNumberLotteryAssigned",
      "outputs": [
        {
          "internalType": "address",
          "name": "",
          "type": "address"
        }
      ],
      "stateMutability": "view",
      "type": "function",
      "constant": true
    },
    {
      "inputs": [],
      "name": "closeCrowdFundingAndPickTheWinner",
      "outputs": [],
      "stateMutability": "nonpayable",
      "type": "function"
    }
  ],
  "bytecode": "0x60806040523480156200001157600080fd5b5062000032620000266200019d60201b60201c565b620001a560201b60201c565b604051620000409062000269565b604051809103906000f0801580156200005d573d6000803e3d6000fd5b50600160006101000a81548173ffffffffffffffffffffffffffffffffffffffff021916908373ffffffffffffffffffffffffffffffffffffffff1602179055506040518060200160405280600081525060029080519060200190620000c592919062000277565b506000600560006101000a81548160ff021916908315150217905550600160009054906101000a900473ffffffffffffffffffffffffffffffffffffffff1673ffffffffffffffffffffffffffffffffffffffff1663095ea7b33060006040518363ffffffff1660e01b815260040162000141929190620003c3565b6020604051808303816000875af115801562000161573d6000803e3d6000fd5b505050506040513d601f19601f8201168201806040525081019062000187919062000432565b50670de0b6b3a7640000600681905550620004c8565b600033905090565b60008060009054906101000a900473ffffffffffffffffffffffffffffffffffffffff169050816000806101000a81548173ffffffffffffffffffffffffffffffffffffffff021916908373ffffffffffffffffffffffffffffffffffffffff1602179055508173ffffffffffffffffffffffffffffffffffffffff168173ffffffffffffffffffffffffffffffffffffffff167f8be0079c531659141344cd1fd0a4f28419497f9722a3daafe3b4186f6b6457e060405160405180910390a35050565b611fda806200202383390190565b828054620002859062000493565b90600052602060002090601f016020900481019282620002a95760008555620002f5565b82601f10620002c457805160ff1916838001178555620002f5565b82800160010185558215620002f5579182015b82811115620002f4578251825591602001919060010190620002d7565b5b50905062000304919062000308565b5090565b5b808211156200032357600081600090555060010162000309565b5090565b600073ffffffffffffffffffffffffffffffffffffffff82169050919050565b6000620003548262000327565b9050919050565b620003668162000347565b82525050565b6000819050919050565b6000819050919050565b6000819050919050565b6000620003ab620003a56200039f846200036c565b62000380565b62000376565b9050919050565b620003bd816200038a565b82525050565b6000604082019050620003da60008301856200035b565b620003e96020830184620003b2565b9392505050565b600080fd5b60008115159050919050565b6200040c81620003f5565b81146200041857600080fd5b50565b6000815190506200042c8162000401565b92915050565b6000602082840312156200044b576200044a620003f0565b5b60006200045b848285016200041b565b91505092915050565b7f4e487b7100000000000000000000000000000000000000000000000000000000600052602260045260246000fd5b60006002820490506001821680620004ac57607f821691505b602082108103620004c257620004c162000464565b5b50919050565b611b4b80620004d86000396000f3fe6080604052600436106101095760003560e01c806389beb66511610095578063c0e1bba211610064578063c0e1bba2146102fc578063d488e57414610327578063d91cd86014610352578063f2fde38b14610381578063f8b2cb4f146103aa57610109565b806389beb665146102665780638da5cb5b1461027d5780639292b460146102a8578063acd1f254146102d157610109565b806363c21458116100dc57806363c21458146101b657806367b3fa11146101df57806368f8fc10146101f6578063715018a6146102125780637274762b1461022957610109565b8063075df4cf1461010e578063134c6ba91461014b57806317b9ebec14610162578063626be5671461018b575b600080fd5b34801561011a57600080fd5b5061013560048036038101906101309190611259565b6103e7565b604051610142919061134e565b60405180910390f35b34801561015757600080fd5b5061016061047e565b005b34801561016e57600080fd5b506101896004803603810190610184919061139c565b610517565b005b34801561019757600080fd5b506101a0610717565b6040516101ad91906113eb565b60405180910390f35b3480156101c257600080fd5b506101dd60048036038101906101d89190611259565b6107af565b005b3480156101eb57600080fd5b506101f46108a6565b005b610210600480360381019061020b9190611444565b6109d3565b005b34801561021e57600080fd5b50610227610b1c565b005b34801561023557600080fd5b50610250600480360381019061024b9190611484565b610ba4565b60405161025d91906114c0565b60405180910390f35b34801561027257600080fd5b5061027b610be1565b005b34801561028957600080fd5b50610292610c7a565b60405161029f91906114c0565b60405180910390f35b3480156102b457600080fd5b506102cf60048036038101906102ca9190611621565b610ca3565b005b3480156102dd57600080fd5b506102e6610d47565b6040516102f391906113eb565b60405180910390f35b34801561030857600080fd5b50610311610d4f565b60405161031e91906113eb565b60405180910390f35b34801561033357600080fd5b5061033c610d60565b60405161034991906113eb565b60405180910390f35b34801561035e57600080fd5b50610367610d6a565b60405161037895949392919061170d565b60405180910390f35b34801561038d57600080fd5b506103a860048036038101906103a39190611259565b610eb8565b005b3480156103b657600080fd5b506103d160048036038101906103cc9190611259565b610faf565b6040516103de91906113eb565b60405180910390f35b6060600860008373ffffffffffffffffffffffffffffffffffffffff1673ffffffffffffffffffffffffffffffffffffffff16815260200190815260200160002080548060200260200160405190810160405280929190818152602001828054801561047257602002820191906000526020600020905b81548152602001906001019080831161045e575b50505050509050919050565b610486611054565b73ffffffffffffffffffffffffffffffffffffffff166104a4610c7a565b73ffffffffffffffffffffffffffffffffffffffff16146104fa576040517f08c379a00000000000000000000000000000000000000000000000000000000081526004016104f1906117b3565b60405180910390fd5b6000600560006101000a81548160ff021916908315150217905550565b61051f611054565b73ffffffffffffffffffffffffffffffffffffffff1661053d610c7a565b73ffffffffffffffffffffffffffffffffffffffff1614610593576040517f08c379a000000000000000000000000000000000000000000000000000000000815260040161058a906117b3565b60405180910390fd5b600082116105a057600080fd5b60008110156105ae57600080fd5b600160009054906101000a900473ffffffffffffffffffffffffffffffffffffffff1673ffffffffffffffffffffffffffffffffffffffff166340c10f193383856105f99190611802565b6040518363ffffffff1660e01b8152600401610616929190611858565b600060405180830381600087803b15801561063057600080fd5b505af1158015610644573d6000803e3d6000fd5b50505050816003546106569190611802565b6003819055508060045461066a9190611802565b600481905550600160009054906101000a900473ffffffffffffffffffffffffffffffffffffffff1673ffffffffffffffffffffffffffffffffffffffff166339509351306003546040518363ffffffff1660e01b81526004016106cf929190611858565b6020604051808303816000875af11580156106ee573d6000803e3d6000fd5b505050506040513d601f19601f8201168201806040525081019061071291906118ad565b505050565b6000600160009054906101000a900473ffffffffffffffffffffffffffffffffffffffff1673ffffffffffffffffffffffffffffffffffffffff166318160ddd6040518163ffffffff1660e01b8152600401602060405180830381865afa158015610786573d6000803e3d6000fd5b505050506040513d601f19601f820116820180604052508101906107aa91906118ef565b905090565b60011515600560009054906101000a900460ff161515146107cf57600080fd5b6107d9600761105c565b600860008273ffffffffffffffffffffffffffffffffffffffff1673ffffffffffffffffffffffffffffffffffffffff1681526020019081526020016000206108226007611072565b908060018154018082558091505060019003906000526020600020016000909190919091505580600960006108576007611072565b815260200190815260200160002060006101000a81548173ffffffffffffffffffffffffffffffffffffffff021916908373ffffffffffffffffffffffffffffffffffffffff16021790555050565b6108ae611054565b73ffffffffffffffffffffffffffffffffffffffff166108cc610c7a565b73ffffffffffffffffffffffffffffffffffffffff1614610922576040517f08c379a0000000000000000000000000000000000000000000000000000000008152600401610919906117b3565b60405180910390fd5b600061092e6007611072565b1161093857600080fd5b60006109446007611072565b42604051602001610955919061193d565b6040516020818303038152906040528051906020012060001c6109789190611987565b905061098381610ba4565b600a60000160006101000a81548173ffffffffffffffffffffffffffffffffffffffff021916908373ffffffffffffffffffffffffffffffffffffffff16021790555080600a6001018190555050565b6006543410156109e257600080fd5b6000600354116109f157600080fd5b600060065434610a0191906119b8565b90506000811115610a54578273ffffffffffffffffffffffffffffffffffffffff166108fc829081150290604051600060405180830381858888f19350505050158015610a52573d6000803e3d6000fd5b505b600160009054906101000a900473ffffffffffffffffffffffffffffffffffffffff1673ffffffffffffffffffffffffffffffffffffffff16637c524ffc610a9a610c7a565b33856040518463ffffffff1660e01b8152600401610aba939291906119ec565b6020604051808303816000875af1158015610ad9573d6000803e3d6000fd5b505050506040513d601f19601f82011682018060405250810190610afd91906118ad565b508160036000828254610b1091906119b8565b92505081905550505050565b610b24611054565b73ffffffffffffffffffffffffffffffffffffffff16610b42610c7a565b73ffffffffffffffffffffffffffffffffffffffff1614610b98576040517f08c379a0000000000000000000000000000000000000000000000000000000008152600401610b8f906117b3565b60405180910390fd5b610ba26000611080565b565b60006009600083815260200190815260200160002060009054906101000a900473ffffffffffffffffffffffffffffffffffffffff169050919050565b610be9611054565b73ffffffffffffffffffffffffffffffffffffffff16610c07610c7a565b73ffffffffffffffffffffffffffffffffffffffff1614610c5d576040517f08c379a0000000000000000000000000000000000000000000000000000000008152600401610c54906117b3565b60405180910390fd5b6001600560006101000a81548160ff021916908315150217905550565b60008060009054906101000a900473ffffffffffffffffffffffffffffffffffffffff16905090565b610cab611054565b73ffffffffffffffffffffffffffffffffffffffff16610cc9610c7a565b73ffffffffffffffffffffffffffffffffffffffff1614610d1f576040517f08c379a0000000000000000000000000000000000000000000000000000000008152600401610d16906117b3565b60405180910390fd5b6000815111610d2d57600080fd5b8060029080519060200190610d43929190611144565b5050565b600047905090565b6000610d5b6007611072565b905090565b6000600654905090565b60606000806000806002600354600454600560009054906101000a900460ff16600160009054906101000a900473ffffffffffffffffffffffffffffffffffffffff1673ffffffffffffffffffffffffffffffffffffffff166318160ddd6040518163ffffffff1660e01b8152600401602060405180830381865afa158015610df7573d6000803e3d6000fd5b505050506040513d601f19601f82011682018060405250810190610e1b91906118ef565b848054610e2790611a52565b80601f0160208091040260200160405190810160405280929190818152602001828054610e5390611a52565b8015610ea05780601f10610e7557610100808354040283529160200191610ea0565b820191906000526020600020905b815481529060010190602001808311610e8357829003601f168201915b50505050509450945094509450945094509091929394565b610ec0611054565b73ffffffffffffffffffffffffffffffffffffffff16610ede610c7a565b73ffffffffffffffffffffffffffffffffffffffff1614610f34576040517f08c379a0000000000000000000000000000000000000000000000000000000008152600401610f2b906117b3565b60405180910390fd5b600073ffffffffffffffffffffffffffffffffffffffff168173ffffffffffffffffffffffffffffffffffffffff1603610fa3576040517f08c379a0000000000000000000000000000000000000000000000000000000008152600401610f9a90611af5565b60405180910390fd5b610fac81611080565b50565b6000600160009054906101000a900473ffffffffffffffffffffffffffffffffffffffff1673ffffffffffffffffffffffffffffffffffffffff166370a08231836040518263ffffffff1660e01b815260040161100c91906114c0565b602060405180830381865afa158015611029573d6000803e3d6000fd5b505050506040513d601f19601f8201168201806040525081019061104d91906118ef565b9050919050565b600033905090565b6001816000016000828254019250508190555050565b600081600001549050919050565b60008060009054906101000a900473ffffffffffffffffffffffffffffffffffffffff169050816000806101000a81548173ffffffffffffffffffffffffffffffffffffffff021916908373ffffffffffffffffffffffffffffffffffffffff1602179055508173ffffffffffffffffffffffffffffffffffffffff168173ffffffffffffffffffffffffffffffffffffffff167f8be0079c531659141344cd1fd0a4f28419497f9722a3daafe3b4186f6b6457e060405160405180910390a35050565b82805461115090611a52565b90600052602060002090601f01602090048101928261117257600085556111b9565b82601f1061118b57805160ff19168380011785556111b9565b828001600101855582156111b9579182015b828111156111b857825182559160200191906001019061119d565b5b5090506111c691906111ca565b5090565b5b808211156111e35760008160009055506001016111cb565b5090565b6000604051905090565b600080fd5b600080fd5b600073ffffffffffffffffffffffffffffffffffffffff82169050919050565b6000611226826111fb565b9050919050565b6112368161121b565b811461124157600080fd5b50565b6000813590506112538161122d565b92915050565b60006020828403121561126f5761126e6111f1565b5b600061127d84828501611244565b91505092915050565b600081519050919050565b600082825260208201905092915050565b6000819050602082019050919050565b6000819050919050565b6112c5816112b2565b82525050565b60006112d783836112bc565b60208301905092915050565b6000602082019050919050565b60006112fb82611286565b6113058185611291565b9350611310836112a2565b8060005b8381101561134157815161132888826112cb565b9750611333836112e3565b925050600181019050611314565b5085935050505092915050565b6000602082019050818103600083015261136881846112f0565b905092915050565b611379816112b2565b811461138457600080fd5b50565b60008135905061139681611370565b92915050565b600080604083850312156113b3576113b26111f1565b5b60006113c185828601611387565b92505060206113d285828601611387565b9150509250929050565b6113e5816112b2565b82525050565b600060208201905061140060008301846113dc565b92915050565b6000611411826111fb565b9050919050565b61142181611406565b811461142c57600080fd5b50565b60008135905061143e81611418565b92915050565b6000806040838503121561145b5761145a6111f1565b5b60006114698582860161142f565b925050602061147a85828601611387565b9150509250929050565b60006020828403121561149a576114996111f1565b5b60006114a884828501611387565b91505092915050565b6114ba8161121b565b82525050565b60006020820190506114d560008301846114b1565b92915050565b600080fd5b600080fd5b6000601f19601f8301169050919050565b7f4e487b7100000000000000000000000000000000000000000000000000000000600052604160045260246000fd5b61152e826114e5565b810181811067ffffffffffffffff8211171561154d5761154c6114f6565b5b80604052505050565b60006115606111e7565b905061156c8282611525565b919050565b600067ffffffffffffffff82111561158c5761158b6114f6565b5b611595826114e5565b9050602081019050919050565b82818337600083830152505050565b60006115c46115bf84611571565b611556565b9050828152602081018484840111156115e0576115df6114e0565b5b6115eb8482856115a2565b509392505050565b600082601f830112611608576116076114db565b5b81356116188482602086016115b1565b91505092915050565b600060208284031215611637576116366111f1565b5b600082013567ffffffffffffffff811115611655576116546111f6565b5b611661848285016115f3565b91505092915050565b600081519050919050565b600082825260208201905092915050565b60005b838110156116a4578082015181840152602081019050611689565b838111156116b3576000848401525b50505050565b60006116c48261166a565b6116ce8185611675565b93506116de818560208601611686565b6116e7816114e5565b840191505092915050565b60008115159050919050565b611707816116f2565b82525050565b600060a082019050818103600083015261172781886116b9565b905061173660208301876113dc565b61174360408301866113dc565b61175060608301856116fe565b61175d60808301846113dc565b9695505050505050565b7f4f776e61626c653a2063616c6c6572206973206e6f7420746865206f776e6572600082015250565b600061179d602083611675565b91506117a882611767565b602082019050919050565b600060208201905081810360008301526117cc81611790565b9050919050565b7f4e487b7100000000000000000000000000000000000000000000000000000000600052601160045260246000fd5b600061180d826112b2565b9150611818836112b2565b9250827fffffffffffffffffffffffffffffffffffffffffffffffffffffffffffffffff0382111561184d5761184c6117d3565b5b828201905092915050565b600060408201905061186d60008301856114b1565b61187a60208301846113dc565b9392505050565b61188a816116f2565b811461189557600080fd5b50565b6000815190506118a781611881565b92915050565b6000602082840312156118c3576118c26111f1565b5b60006118d184828501611898565b91505092915050565b6000815190506118e981611370565b92915050565b600060208284031215611905576119046111f1565b5b6000611913848285016118da565b91505092915050565b6000819050919050565b611937611932826112b2565b61191c565b82525050565b60006119498284611926565b60208201915081905092915050565b7f4e487b7100000000000000000000000000000000000000000000000000000000600052601260045260246000fd5b6000611992826112b2565b915061199d836112b2565b9250826119ad576119ac611958565b5b828206905092915050565b60006119c3826112b2565b91506119ce836112b2565b9250828210156119e1576119e06117d3565b5b828203905092915050565b6000606082019050611a0160008301866114b1565b611a0e60208301856114b1565b611a1b60408301846113dc565b949350505050565b7f4e487b7100000000000000000000000000000000000000000000000000000000600052602260045260246000fd5b60006002820490506001821680611a6a57607f821691505b602082108103611a7d57611a7c611a23565b5b50919050565b7f4f776e61626c653a206e6577206f776e657220697320746865207a65726f206160008201527f6464726573730000000000000000000000000000000000000000000000000000602082015250565b6000611adf602683611675565b9150611aea82611a83565b604082019050919050565b60006020820190508181036000830152611b0e81611ad2565b905091905056fea264697066735822122005ae8f80eda8e7f4904eb0af68b732fc7f1797341975e0e6a4b2f2d6898830f864736f6c634300080d003360806040523480156200001157600080fd5b506040518060400160405280600c81526020017f43726f776446756e64696e6700000000000000000000000000000000000000008152506040518060400160405280600381526020017f43465400000000000000000000000000000000000000000000000000000000008152508160039080519060200190620000969291906200033b565b508060049080519060200190620000af9291906200033b565b505050620000d2620000c6620000eb60201b60201c565b620000f360201b60201c565b620000e5336000620001b960201b60201c565b62000596565b600033905090565b6000600560009054906101000a900473ffffffffffffffffffffffffffffffffffffffff16905081600560006101000a81548173ffffffffffffffffffffffffffffffffffffffff021916908373ffffffffffffffffffffffffffffffffffffffff1602179055508173ffffffffffffffffffffffffffffffffffffffff168173ffffffffffffffffffffffffffffffffffffffff167f8be0079c531659141344cd1fd0a4f28419497f9722a3daafe3b4186f6b6457e060405160405180910390a35050565b600073ffffffffffffffffffffffffffffffffffffffff168273ffffffffffffffffffffffffffffffffffffffff16036200022b576040517f08c379a000000000000000000000000000000000000000000000000000000000815260040162000222906200044c565b60405180910390fd5b6200023f600083836200033160201b60201c565b8060026000828254620002539190620004a7565b92505081905550806000808473ffffffffffffffffffffffffffffffffffffffff1673ffffffffffffffffffffffffffffffffffffffff1681526020019081526020016000206000828254620002aa9190620004a7565b925050819055508173ffffffffffffffffffffffffffffffffffffffff16600073ffffffffffffffffffffffffffffffffffffffff167fddf252ad1be2c89b69c2b068fc378daa952ba7f163c4a11628f55a4df523b3ef8360405162000311919062000515565b60405180910390a36200032d600083836200033660201b60201c565b5050565b505050565b505050565b828054620003499062000561565b90600052602060002090601f0160209004810192826200036d5760008555620003b9565b82601f106200038857805160ff1916838001178555620003b9565b82800160010185558215620003b9579182015b82811115620003b85782518255916020019190600101906200039b565b5b509050620003c89190620003cc565b5090565b5b80821115620003e7576000816000905550600101620003cd565b5090565b600082825260208201905092915050565b7f45524332303a206d696e7420746f20746865207a65726f206164647265737300600082015250565b600062000434601f83620003eb565b91506200044182620003fc565b602082019050919050565b60006020820190508181036000830152620004678162000425565b9050919050565b6000819050919050565b7f4e487b7100000000000000000000000000000000000000000000000000000000600052601160045260246000fd5b6000620004b4826200046e565b9150620004c1836200046e565b9250827fffffffffffffffffffffffffffffffffffffffffffffffffffffffffffffffff03821115620004f957620004f862000478565b5b828201905092915050565b6200050f816200046e565b82525050565b60006020820190506200052c600083018462000504565b92915050565b7f4e487b7100000000000000000000000000000000000000000000000000000000600052602260045260246000fd5b600060028204905060018216806200057a57607f821691505b60208210810362000590576200058f62000532565b5b50919050565b611a3480620005a66000396000f3fe608060405234801561001057600080fd5b50600436106101005760003560e01c8063715018a611610097578063a457c2d711610066578063a457c2d7146102b1578063a9059cbb146102e1578063dd62ed3e14610311578063f2fde38b1461034157610100565b8063715018a61461023b5780637c524ffc146102455780638da5cb5b1461027557806395d89b411461029357610100565b8063313ce567116100d3578063313ce567146101a157806339509351146101bf57806340c10f19146101ef57806370a082311461020b57610100565b806306fdde0314610105578063095ea7b31461012357806318160ddd1461015357806323b872dd14610171575b600080fd5b61010d61035d565b60405161011a919061115b565b60405180910390f35b61013d60048036038101906101389190611216565b6103ef565b60405161014a9190611271565b60405180910390f35b61015b610412565b604051610168919061129b565b60405180910390f35b61018b600480360381019061018691906112b6565b61041c565b6040516101989190611271565b60405180910390f35b6101a961044b565b6040516101b69190611325565b60405180910390f35b6101d960048036038101906101d49190611216565b610454565b6040516101e69190611271565b60405180910390f35b61020960048036038101906102049190611216565b6104fe565b005b61022560048036038101906102209190611340565b610588565b604051610232919061129b565b60405180910390f35b6102436105d0565b005b61025f600480360381019061025a91906112b6565b610658565b60405161026c9190611271565b60405180910390f35b61027d610670565b60405161028a919061137c565b60405180910390f35b61029b61069a565b6040516102a8919061115b565b60405180910390f35b6102cb60048036038101906102c69190611216565b61072c565b6040516102d89190611271565b60405180910390f35b6102fb60048036038101906102f69190611216565b610816565b6040516103089190611271565b60405180910390f35b61032b60048036038101906103269190611397565b610839565b604051610338919061129b565b60405180910390f35b61035b60048036038101906103569190611340565b6108c0565b005b60606003805461036c90611406565b80601f016020809104026020016040519081016040528092919081815260200182805461039890611406565b80156103e55780601f106103ba576101008083540402835291602001916103e5565b820191906000526020600020905b8154815290600101906020018083116103c857829003601f168201915b5050505050905090565b6000806103fa6109b7565b90506104078185856109bf565b600191505092915050565b6000600254905090565b6000806104276109b7565b9050610434858285610b88565b61043f858585610c14565b60019150509392505050565b60006012905090565b60008061045f6109b7565b90506104f3818585600160008673ffffffffffffffffffffffffffffffffffffffff1673ffffffffffffffffffffffffffffffffffffffff16815260200190815260200160002060008973ffffffffffffffffffffffffffffffffffffffff1673ffffffffffffffffffffffffffffffffffffffff168152602001908152602001600020546104ee9190611466565b6109bf565b600191505092915050565b6105066109b7565b73ffffffffffffffffffffffffffffffffffffffff16610524610670565b73ffffffffffffffffffffffffffffffffffffffff161461057a576040517f08c379a000000000000000000000000000000000000000000000000000000000815260040161057190611508565b60405180910390fd5b6105848282610e93565b5050565b60008060008373ffffffffffffffffffffffffffffffffffffffff1673ffffffffffffffffffffffffffffffffffffffff168152602001908152602001600020549050919050565b6105d86109b7565b73ffffffffffffffffffffffffffffffffffffffff166105f6610670565b73ffffffffffffffffffffffffffffffffffffffff161461064c576040517f08c379a000000000000000000000000000000000000000000000000000000000815260040161064390611508565b60405180910390fd5b6106566000610ff2565b565b6000610665848484610c14565b600190509392505050565b6000600560009054906101000a900473ffffffffffffffffffffffffffffffffffffffff16905090565b6060600480546106a990611406565b80601f01602080910402602001604051908101604052809291908181526020018280546106d590611406565b80156107225780601f106106f757610100808354040283529160200191610722565b820191906000526020600020905b81548152906001019060200180831161070557829003601f168201915b5050505050905090565b6000806107376109b7565b90506000600160008373ffffffffffffffffffffffffffffffffffffffff1673ffffffffffffffffffffffffffffffffffffffff16815260200190815260200160002060008673ffffffffffffffffffffffffffffffffffffffff1673ffffffffffffffffffffffffffffffffffffffff168152602001908152602001600020549050838110156107fd576040517f08c379a00000000000000000000000000000000000000000000000000000000081526004016107f49061159a565b60405180910390fd5b61080a82868684036109bf565b60019250505092915050565b6000806108216109b7565b905061082e818585610c14565b600191505092915050565b6000600160008473ffffffffffffffffffffffffffffffffffffffff1673ffffffffffffffffffffffffffffffffffffffff16815260200190815260200160002060008373ffffffffffffffffffffffffffffffffffffffff1673ffffffffffffffffffffffffffffffffffffffff16815260200190815260200160002054905092915050565b6108c86109b7565b73ffffffffffffffffffffffffffffffffffffffff166108e6610670565b73ffffffffffffffffffffffffffffffffffffffff161461093c576040517f08c379a000000000000000000000000000000000000000000000000000000000815260040161093390611508565b60405180910390fd5b600073ffffffffffffffffffffffffffffffffffffffff168173ffffffffffffffffffffffffffffffffffffffff16036109ab576040517f08c379a00000000000000000000000000000000000000000000000000000000081526004016109a29061162c565b60405180910390fd5b6109b481610ff2565b50565b600033905090565b600073ffffffffffffffffffffffffffffffffffffffff168373ffffffffffffffffffffffffffffffffffffffff1603610a2e576040517f08c379a0000000000000000000000000000000000000000000000000000000008152600401610a25906116be565b60405180910390fd5b600073ffffffffffffffffffffffffffffffffffffffff168273ffffffffffffffffffffffffffffffffffffffff1603610a9d576040517f08c379a0000000000000000000000000000000000000000000000000000000008152600401610a9490611750565b60405180910390fd5b80600160008573ffffffffffffffffffffffffffffffffffffffff1673ffffffffffffffffffffffffffffffffffffffff16815260200190815260200160002060008473ffffffffffffffffffffffffffffffffffffffff1673ffffffffffffffffffffffffffffffffffffffff168152602001908152602001600020819055508173ffffffffffffffffffffffffffffffffffffffff168373ffffffffffffffffffffffffffffffffffffffff167f8c5be1e5ebec7d5bd14f71427d1e84f3dd0314c0f7b2291e5b200ac8c7c3b92583604051610b7b919061129b565b60405180910390a3505050565b6000610b948484610839565b90507fffffffffffffffffffffffffffffffffffffffffffffffffffffffffffffffff8114610c0e5781811015610c00576040517f08c379a0000000000000000000000000000000000000000000000000000000008152600401610bf7906117bc565b60405180910390fd5b610c0d84848484036109bf565b5b50505050565b600073ffffffffffffffffffffffffffffffffffffffff168373ffffffffffffffffffffffffffffffffffffffff1603610c83576040517f08c379a0000000000000000000000000000000000000000000000000000000008152600401610c7a9061184e565b60405180910390fd5b600073ffffffffffffffffffffffffffffffffffffffff168273ffffffffffffffffffffffffffffffffffffffff1603610cf2576040517f08c379a0000000000000000000000000000000000000000000000000000000008152600401610ce9906118e0565b60405180910390fd5b610cfd8383836110b8565b60008060008573ffffffffffffffffffffffffffffffffffffffff1673ffffffffffffffffffffffffffffffffffffffff16815260200190815260200160002054905081811015610d83576040517f08c379a0000000000000000000000000000000000000000000000000000000008152600401610d7a90611972565b60405180910390fd5b8181036000808673ffffffffffffffffffffffffffffffffffffffff1673ffffffffffffffffffffffffffffffffffffffff16815260200190815260200160002081905550816000808573ffffffffffffffffffffffffffffffffffffffff1673ffffffffffffffffffffffffffffffffffffffff1681526020019081526020016000206000828254610e169190611466565b925050819055508273ffffffffffffffffffffffffffffffffffffffff168473ffffffffffffffffffffffffffffffffffffffff167fddf252ad1be2c89b69c2b068fc378daa952ba7f163c4a11628f55a4df523b3ef84604051610e7a919061129b565b60405180910390a3610e8d8484846110bd565b50505050565b600073ffffffffffffffffffffffffffffffffffffffff168273ffffffffffffffffffffffffffffffffffffffff1603610f02576040517f08c379a0000000000000000000000000000000000000000000000000000000008152600401610ef9906119de565b60405180910390fd5b610f0e600083836110b8565b8060026000828254610f209190611466565b92505081905550806000808473ffffffffffffffffffffffffffffffffffffffff1673ffffffffffffffffffffffffffffffffffffffff1681526020019081526020016000206000828254610f759190611466565b925050819055508173ffffffffffffffffffffffffffffffffffffffff16600073ffffffffffffffffffffffffffffffffffffffff167fddf252ad1be2c89b69c2b068fc378daa952ba7f163c4a11628f55a4df523b3ef83604051610fda919061129b565b60405180910390a3610fee600083836110bd565b5050565b6000600560009054906101000a900473ffffffffffffffffffffffffffffffffffffffff16905081600560006101000a81548173ffffffffffffffffffffffffffffffffffffffff021916908373ffffffffffffffffffffffffffffffffffffffff1602179055508173ffffffffffffffffffffffffffffffffffffffff168173ffffffffffffffffffffffffffffffffffffffff167f8be0079c531659141344cd1fd0a4f28419497f9722a3daafe3b4186f6b6457e060405160405180910390a35050565b505050565b505050565b600081519050919050565b600082825260208201905092915050565b60005b838110156110fc5780820151818401526020810190506110e1565b8381111561110b576000848401525b50505050565b6000601f19601f8301169050919050565b600061112d826110c2565b61113781856110cd565b93506111478185602086016110de565b61115081611111565b840191505092915050565b600060208201905081810360008301526111758184611122565b905092915050565b600080fd5b600073ffffffffffffffffffffffffffffffffffffffff82169050919050565b60006111ad82611182565b9050919050565b6111bd816111a2565b81146111c857600080fd5b50565b6000813590506111da816111b4565b92915050565b6000819050919050565b6111f3816111e0565b81146111fe57600080fd5b50565b600081359050611210816111ea565b92915050565b6000806040838503121561122d5761122c61117d565b5b600061123b858286016111cb565b925050602061124c85828601611201565b9150509250929050565b60008115159050919050565b61126b81611256565b82525050565b60006020820190506112866000830184611262565b92915050565b611295816111e0565b82525050565b60006020820190506112b0600083018461128c565b92915050565b6000806000606084860312156112cf576112ce61117d565b5b60006112dd868287016111cb565b93505060206112ee868287016111cb565b92505060406112ff86828701611201565b9150509250925092565b600060ff82169050919050565b61131f81611309565b82525050565b600060208201905061133a6000830184611316565b92915050565b6000602082840312156113565761135561117d565b5b6000611364848285016111cb565b91505092915050565b611376816111a2565b82525050565b6000602082019050611391600083018461136d565b92915050565b600080604083850312156113ae576113ad61117d565b5b60006113bc858286016111cb565b92505060206113cd858286016111cb565b9150509250929050565b7f4e487b7100000000000000000000000000000000000000000000000000000000600052602260045260246000fd5b6000600282049050600182168061141e57607f821691505b602082108103611431576114306113d7565b5b50919050565b7f4e487b7100000000000000000000000000000000000000000000000000000000600052601160045260246000fd5b6000611471826111e0565b915061147c836111e0565b9250827fffffffffffffffffffffffffffffffffffffffffffffffffffffffffffffffff038211156114b1576114b0611437565b5b828201905092915050565b7f4f776e61626c653a2063616c6c6572206973206e6f7420746865206f776e6572600082015250565b60006114f26020836110cd565b91506114fd826114bc565b602082019050919050565b60006020820190508181036000830152611521816114e5565b9050919050565b7f45524332303a2064656372656173656420616c6c6f77616e63652062656c6f7760008201527f207a65726f000000000000000000000000000000000000000000000000000000602082015250565b60006115846025836110cd565b915061158f82611528565b604082019050919050565b600060208201905081810360008301526115b381611577565b9050919050565b7f4f776e61626c653a206e6577206f776e657220697320746865207a65726f206160008201527f6464726573730000000000000000000000000000000000000000000000000000602082015250565b60006116166026836110cd565b9150611621826115ba565b604082019050919050565b6000602082019050818103600083015261164581611609565b9050919050565b7f45524332303a20617070726f76652066726f6d20746865207a65726f2061646460008201527f7265737300000000000000000000000000000000000000000000000000000000602082015250565b60006116a86024836110cd565b91506116b38261164c565b604082019050919050565b600060208201905081810360008301526116d78161169b565b9050919050565b7f45524332303a20617070726f766520746f20746865207a65726f20616464726560008201527f7373000000000000000000000000000000000000000000000000000000000000602082015250565b600061173a6022836110cd565b9150611745826116de565b604082019050919050565b600060208201905081810360008301526117698161172d565b9050919050565b7f45524332303a20696e73756666696369656e7420616c6c6f77616e6365000000600082015250565b60006117a6601d836110cd565b91506117b182611770565b602082019050919050565b600060208201905081810360008301526117d581611799565b9050919050565b7f45524332303a207472616e736665722066726f6d20746865207a65726f20616460008201527f6472657373000000000000000000000000000000000000000000000000000000602082015250565b60006118386025836110cd565b9150611843826117dc565b604082019050919050565b600060208201905081810360008301526118678161182b565b9050919050565b7f45524332303a207472616e7366657220746f20746865207a65726f206164647260008201527f6573730000000000000000000000000000000000000000000000000000000000602082015250565b60006118ca6023836110cd565b91506118d58261186e565b604082019050919050565b600060208201905081810360008301526118f9816118bd565b9050919050565b7f45524332303a207472616e7366657220616d6f756e742065786365656473206260008201527f616c616e63650000000000000000000000000000000000000000000000000000602082015250565b600061195c6026836110cd565b915061196782611900565b604082019050919050565b6000602082019050818103600083015261198b8161194f565b9050919050565b7f45524332303a206d696e7420746f20746865207a65726f206164647265737300600082015250565b60006119c8601f836110cd565b91506119d382611992565b602082019050919050565b600060208201905081810360008301526119f7816119bb565b905091905056fea264697066735822122033d2c7cc872f3326e32e24c0ac8a259f7504cebac96ead558615378774d5172264736f6c634300080d0033",
  "immutableReferences": {},
  "source": "// SPDX-License-Identifier: MIT\n\nimport \"./CrowdFundingTOKEN.sol\";\nimport \"@openzeppelin/contracts/access/Ownable.sol\";\nimport \"@openzeppelin/contracts/utils/Counters.sol\";\n\npragma solidity ^0.8.0;\n\ncontract CrowdFunding is Ownable {\n    CrowdFundingTOKEN private token;\n    string private name;\n    uint256 private cantTokenForExchange;\n    uint256 private cantTokenToTheWinner;\n    bool private stateCanFund;\n    uint256 private priceTokenCFT;\n    using Counters for Counters.Counter;\n    Counters.Counter private _numberTicket;\n    mapping (address => uint256 []) personAddress_NumberTicketMap;\n    mapping (uint256 => address) numberTicketAssigned_personAddressMap;\n\n    struct WinnerLottery{\n        address accountWinner;\n        uint256 numerWinner; \n    }\n    WinnerLottery private winnerLottery;\n    \n    constructor() {\n        token = new CrowdFundingTOKEN();\n        name = \"\";\n        stateCanFund = false;\n        token.approve(address(this), 0);\n        priceTokenCFT = 1 ether;\n    }\n\n    function setNameCrowdFunding(string memory _name) public onlyOwner {\n        // Verifica que el Nombre no sea nulo\n        require(bytes(_name).length > 0);        \n        name = _name;        \n    }\n\n    function getDataCrowdFunding() public view returns (string memory, uint256,uint256, bool, uint256) {        \n        return (name, cantTokenForExchange, cantTokenToTheWinner, stateCanFund, token.totalSupply());\n    }\n\n    function getPriceTokenCFT() public view returns(uint256) {\n        return priceTokenCFT;\n    }\n\n    function totalToken() public view returns (uint256) {\n        return token.totalSupply();\n    }\n\n    function addToken(uint256 _cantTokenForExchange, \n        uint256 _cantTokenToTheWinner) public onlyOwner {\n\n        // Verifica valores validos\n        require(_cantTokenForExchange > 0);\n        require(_cantTokenToTheWinner >= 0);\n\n        token.mint(\n                msg.sender, \n                _cantTokenForExchange + \n                _cantTokenToTheWinner)\n        ;\n        cantTokenForExchange = cantTokenForExchange + _cantTokenForExchange;\n        cantTokenToTheWinner = cantTokenToTheWinner + _cantTokenToTheWinner;\n        token.increaseAllowance(address(this), cantTokenForExchange);\n    }\n\n    function openCrowdFunding() public onlyOwner {\n        stateCanFund = true;\n    }\n\n    function closeCrowdFunding() public  onlyOwner {\n        stateCanFund = false;\n    }\n\n    function getBalance(address account) view public returns (uint256){\n        return token.balanceOf(account);\n    }\n\n    function getBalanceETH() view public returns(uint256){\n        return (address(this).balance);\n    }\n\n    function buyToken(address payable _buyer, uint cantToken) public payable {\n        require(msg.value >= priceTokenCFT);\n        require(cantTokenForExchange > 0);\n        \n        uint returnValue = msg.value - priceTokenCFT;\n        if (returnValue > 0){\n            _buyer.transfer(returnValue);\n        }                    \n\n        token.transferCFT(owner(), msg.sender, cantToken);\n        cantTokenForExchange -= cantToken;\n    }\n\n    function buyTicketLottery(address account) public {\n        // controlar que tenga token para comprar un ticket\n        // actualizar token juntado por venta        \n        require(stateCanFund == true);        \n        \n        _numberTicket.increment();\n        personAddress_NumberTicketMap[account].push(_numberTicket.current());\n        numberTicketAssigned_personAddressMap[_numberTicket.current()] = account;\n    }\n\n    function getCantTicketTotalLottery() view public returns(uint256) {        \n        return _numberTicket.current();\n    }\n\n    function getAllNumberTicketLotteryPerson(address account) view public returns(uint256 [] memory) {\n        return personAddress_NumberTicketMap[account];\n    }\n    \n    function getAddressFromNumberLotteryAssigned(\n        uint256 _number) view public returns(address) {\n        return numberTicketAssigned_personAddressMap[_number];\n    }\n\n    function closeCrowdFundingAndPickTheWinner() public onlyOwner{\n    //verificar que est abierto el crowdfundiong\n    //verificar que haya nmero vendidos\n    //generar el random con el nmero mximo de venta\n    //devolver tokenes a todos los participantes\n    //darle al ganador el premio\n    require(_numberTicket.current()>0);\n    uint numberWinner = uint(uint(keccak256(abi.encodePacked(block.timestamp))) % _numberTicket.current());\n\n    winnerLottery.accountWinner = getAddressFromNumberLotteryAssigned(numberWinner);\n    winnerLottery.numerWinner = numberWinner;\n\n    }\n}",
  "sourcePath": "/home/ubuntu/dev/tpfunir/contracts/CrowdFunding.sol",
  "compiler": {
    "name": "solc",
    "version": "0.8.13+commit.abaa5c0e.Emscripten.clang"
  },
  "schemaVersion": "3.4.6",
  "updatedAt": "2022-04-01T03:05:44.120Z",
  "networkType": "ethereum",
  "devdoc": {
    "kind": "dev",
    "methods": {
      "owner()": {
        "details": "Returns the address of the current owner."
      },
      "renounceOwnership()": {
        "details": "Leaves the contract without owner. It will not be possible to call `onlyOwner` functions anymore. Can only be called by the current owner. NOTE: Renouncing ownership will leave the contract without an owner, thereby removing any functionality that is only available to the owner."
      },
      "transferOwnership(address)": {
        "details": "Transfers ownership of the contract to a new account (`newOwner`). Can only be called by the current owner."
      }
    },
    "version": 1
  },
  "userdoc": {
    "kind": "user",
    "methods": {},
    "version": 1
  }
}